{
  "_format": "hh-sol-artifact-1",
  "contractName": "Ca",
  "sourceName": "contracts/Ca.sol",
  "abi": [
    {
      "inputs": [
        {
          "internalType": "uint256",
          "name": "_supply",
          "type": "uint256"
        },
        {
          "internalType": "address",
          "name": "_rewards",
          "type": "address"
        },
        {
          "internalType": "address",
          "name": "_liquidity",
          "type": "address"
        }
      ],
      "stateMutability": "nonpayable",
      "type": "constructor"
    },
    {
      "anonymous": false,
      "inputs": [
        {
          "indexed": true,
          "internalType": "address",
          "name": "owner",
          "type": "address"
        },
        {
          "indexed": true,
          "internalType": "address",
          "name": "spender",
          "type": "address"
        },
        {
          "indexed": false,
          "internalType": "uint256",
          "name": "value",
          "type": "uint256"
        }
      ],
      "name": "Approval",
      "type": "event"
    },
    {
      "anonymous": false,
      "inputs": [
        {
          "indexed": true,
          "internalType": "address",
          "name": "previousOwner",
          "type": "address"
        },
        {
          "indexed": true,
          "internalType": "address",
          "name": "newOwner",
          "type": "address"
        }
      ],
      "name": "OwnershipTransferred",
      "type": "event"
    },
    {
      "anonymous": false,
      "inputs": [
        {
          "indexed": true,
          "internalType": "address",
          "name": "from",
          "type": "address"
        },
        {
          "indexed": true,
          "internalType": "address",
          "name": "to",
          "type": "address"
        },
        {
          "indexed": false,
          "internalType": "uint256",
          "name": "value",
          "type": "uint256"
        }
      ],
      "name": "Transfer",
      "type": "event"
    },
    {
      "inputs": [
        {
          "internalType": "address[]",
          "name": "addresses",
          "type": "address[]"
        }
      ],
      "name": "addToTransferWhitelist",
      "outputs": [],
      "stateMutability": "nonpayable",
      "type": "function"
    },
    {
      "inputs": [
        {
          "internalType": "address",
          "name": "owner",
          "type": "address"
        },
        {
          "internalType": "address",
          "name": "spender",
          "type": "address"
        }
      ],
      "name": "allowance",
      "outputs": [
        {
          "internalType": "uint256",
          "name": "",
          "type": "uint256"
        }
      ],
      "stateMutability": "view",
      "type": "function"
    },
    {
      "inputs": [
        {
          "internalType": "address",
          "name": "spender",
          "type": "address"
        },
        {
          "internalType": "uint256",
          "name": "amount",
          "type": "uint256"
        }
      ],
      "name": "approve",
      "outputs": [
        {
          "internalType": "bool",
          "name": "",
          "type": "bool"
        }
      ],
      "stateMutability": "nonpayable",
      "type": "function"
    },
    {
      "inputs": [
        {
          "internalType": "address",
          "name": "account",
          "type": "address"
        }
      ],
      "name": "balanceOf",
      "outputs": [
        {
          "internalType": "uint256",
          "name": "",
          "type": "uint256"
        }
      ],
      "stateMutability": "view",
      "type": "function"
    },
    {
      "inputs": [
        {
          "internalType": "uint256",
          "name": "amount",
          "type": "uint256"
        }
      ],
      "name": "burn",
      "outputs": [],
      "stateMutability": "nonpayable",
      "type": "function"
    },
    {
      "inputs": [
        {
          "internalType": "address",
          "name": "account",
          "type": "address"
        },
        {
          "internalType": "uint256",
          "name": "amount",
          "type": "uint256"
        }
      ],
      "name": "burnFrom",
      "outputs": [],
      "stateMutability": "nonpayable",
      "type": "function"
    },
    {
      "inputs": [],
      "name": "decimals",
      "outputs": [
        {
          "internalType": "uint8",
          "name": "",
          "type": "uint8"
        }
      ],
      "stateMutability": "view",
      "type": "function"
    },
    {
      "inputs": [
        {
          "internalType": "address",
          "name": "spender",
          "type": "address"
        },
        {
          "internalType": "uint256",
          "name": "subtractedValue",
          "type": "uint256"
        }
      ],
      "name": "decreaseAllowance",
      "outputs": [
        {
          "internalType": "bool",
          "name": "",
          "type": "bool"
        }
      ],
      "stateMutability": "nonpayable",
      "type": "function"
    },
    {
      "inputs": [
        {
          "internalType": "address",
          "name": "spender",
          "type": "address"
        },
        {
          "internalType": "uint256",
          "name": "addedValue",
          "type": "uint256"
        }
      ],
      "name": "increaseAllowance",
      "outputs": [
        {
          "internalType": "bool",
          "name": "",
          "type": "bool"
        }
      ],
      "stateMutability": "nonpayable",
      "type": "function"
    },
    {
      "inputs": [
        {
          "internalType": "address",
          "name": "owner",
          "type": "address"
        }
      ],
      "name": "isWhitelisted",
      "outputs": [
        {
          "internalType": "bool",
          "name": "",
          "type": "bool"
        }
      ],
      "stateMutability": "view",
      "type": "function"
    },
    {
      "inputs": [],
      "name": "name",
      "outputs": [
        {
          "internalType": "string",
          "name": "",
          "type": "string"
        }
      ],
      "stateMutability": "view",
      "type": "function"
    },
    {
      "inputs": [],
      "name": "owner",
      "outputs": [
        {
          "internalType": "address",
          "name": "",
          "type": "address"
        }
      ],
      "stateMutability": "view",
      "type": "function"
    },
    {
      "inputs": [],
      "name": "renounceOwnership",
      "outputs": [],
      "stateMutability": "nonpayable",
      "type": "function"
    },
    {
      "inputs": [],
      "name": "symbol",
      "outputs": [
        {
          "internalType": "string",
          "name": "",
          "type": "string"
        }
      ],
      "stateMutability": "view",
      "type": "function"
    },
    {
      "inputs": [],
      "name": "totalSupply",
      "outputs": [
        {
          "internalType": "uint256",
          "name": "",
          "type": "uint256"
        }
      ],
      "stateMutability": "view",
      "type": "function"
    },
    {
      "inputs": [
        {
          "internalType": "address",
          "name": "to",
          "type": "address"
        },
        {
          "internalType": "uint256",
          "name": "amount",
          "type": "uint256"
        }
      ],
      "name": "transfer",
      "outputs": [
        {
          "internalType": "bool",
          "name": "",
          "type": "bool"
        }
      ],
      "stateMutability": "nonpayable",
      "type": "function"
    },
    {
      "inputs": [
        {
          "internalType": "address",
          "name": "from",
          "type": "address"
        },
        {
          "internalType": "address",
          "name": "to",
          "type": "address"
        },
        {
          "internalType": "uint256",
          "name": "amount",
          "type": "uint256"
        }
      ],
      "name": "transferFrom",
      "outputs": [
        {
          "internalType": "bool",
          "name": "",
          "type": "bool"
        }
      ],
      "stateMutability": "nonpayable",
      "type": "function"
    },
    {
      "inputs": [
        {
          "internalType": "address",
          "name": "newOwner",
          "type": "address"
        }
      ],
      "name": "transferOwnership",
      "outputs": [],
      "stateMutability": "nonpayable",
      "type": "function"
    },
    {
      "inputs": [
        {
          "internalType": "address",
          "name": "",
          "type": "address"
        }
      ],
      "name": "transferWhitelist",
      "outputs": [
        {
          "internalType": "bool",
          "name": "",
          "type": "bool"
        }
      ],
      "stateMutability": "view",
      "type": "function"
    }
  ],
  "bytecode": "0x60806040523480156200001157600080fd5b50604051620028443803806200284483398181016040528101906200003791906200047b565b6040518060400160405280601181526020017f4379626572204172656e6120546f6b656e0000000000000000000000000000008152506040518060400160405280600381526020017f43415400000000000000000000000000000000000000000000000000000000008152508160039081620000b4919062000747565b508060049081620000c6919062000747565b505050620000e9620000dd6200018660201b60201c565b6200018e60201b60201c565b620000fb33846200025460201b60201c565b81600760006101000a81548173ffffffffffffffffffffffffffffffffffffffff021916908373ffffffffffffffffffffffffffffffffffffffff16021790555080600660006101000a81548173ffffffffffffffffffffffffffffffffffffffff021916908373ffffffffffffffffffffffffffffffffffffffff16021790555050505062000949565b600033905090565b6000600560009054906101000a900473ffffffffffffffffffffffffffffffffffffffff16905081600560006101000a81548173ffffffffffffffffffffffffffffffffffffffff021916908373ffffffffffffffffffffffffffffffffffffffff1602179055508173ffffffffffffffffffffffffffffffffffffffff168173ffffffffffffffffffffffffffffffffffffffff167f8be0079c531659141344cd1fd0a4f28419497f9722a3daafe3b4186f6b6457e060405160405180910390a35050565b600073ffffffffffffffffffffffffffffffffffffffff168273ffffffffffffffffffffffffffffffffffffffff1603620002c6576040517f08c379a0000000000000000000000000000000000000000000000000000000008152600401620002bd906200088f565b60405180910390fd5b620002da60008383620003cc60201b60201c565b8060026000828254620002ee9190620008e0565b92505081905550806000808473ffffffffffffffffffffffffffffffffffffffff1673ffffffffffffffffffffffffffffffffffffffff1681526020019081526020016000206000828254620003459190620008e0565b925050819055508173ffffffffffffffffffffffffffffffffffffffff16600073ffffffffffffffffffffffffffffffffffffffff167fddf252ad1be2c89b69c2b068fc378daa952ba7f163c4a11628f55a4df523b3ef83604051620003ac91906200092c565b60405180910390a3620003c860008383620003d160201b60201c565b5050565b505050565b505050565b600080fd5b6000819050919050565b620003f081620003db565b8114620003fc57600080fd5b50565b6000815190506200041081620003e5565b92915050565b600073ffffffffffffffffffffffffffffffffffffffff82169050919050565b6000620004438262000416565b9050919050565b620004558162000436565b81146200046157600080fd5b50565b60008151905062000475816200044a565b92915050565b600080600060608486031215620004975762000496620003d6565b5b6000620004a786828701620003ff565b9350506020620004ba8682870162000464565b9250506040620004cd8682870162000464565b9150509250925092565b600081519050919050565b7f4e487b7100000000000000000000000000000000000000000000000000000000600052604160045260246000fd5b7f4e487b7100000000000000000000000000000000000000000000000000000000600052602260045260246000fd5b600060028204905060018216806200055957607f821691505b6020821081036200056f576200056e62000511565b5b50919050565b60008190508160005260206000209050919050565b60006020601f8301049050919050565b600082821b905092915050565b600060088302620005d97fffffffffffffffffffffffffffffffffffffffffffffffffffffffffffffffff826200059a565b620005e586836200059a565b95508019841693508086168417925050509392505050565b6000819050919050565b600062000628620006226200061c84620003db565b620005fd565b620003db565b9050919050565b6000819050919050565b620006448362000607565b6200065c62000653826200062f565b848454620005a7565b825550505050565b600090565b6200067362000664565b6200068081848462000639565b505050565b5b81811015620006a8576200069c60008262000669565b60018101905062000686565b5050565b601f821115620006f757620006c18162000575565b620006cc846200058a565b81016020851015620006dc578190505b620006f4620006eb856200058a565b83018262000685565b50505b505050565b600082821c905092915050565b60006200071c60001984600802620006fc565b1980831691505092915050565b600062000737838362000709565b9150826002028217905092915050565b6200075282620004d7565b67ffffffffffffffff8111156200076e576200076d620004e2565b5b6200077a825462000540565b62000787828285620006ac565b600060209050601f831160018114620007bf5760008415620007aa578287015190505b620007b6858262000729565b86555062000826565b601f198416620007cf8662000575565b60005b82811015620007f957848901518255600182019150602085019450602081019050620007d2565b8683101562000819578489015162000815601f89168262000709565b8355505b6001600288020188555050505b505050505050565b600082825260208201905092915050565b7f45524332303a206d696e7420746f20746865207a65726f206164647265737300600082015250565b600062000877601f836200082e565b915062000884826200083f565b602082019050919050565b60006020820190508181036000830152620008aa8162000868565b9050919050565b7f4e487b7100000000000000000000000000000000000000000000000000000000600052601160045260246000fd5b6000620008ed82620003db565b9150620008fa83620003db565b9250828201905080821115620009155762000914620008b1565b5b92915050565b6200092681620003db565b82525050565b60006020820190506200094360008301846200091b565b92915050565b611eeb80620009596000396000f3fe608060405234801561001057600080fd5b50600436106101215760003560e01c8063715018a6116100ad578063a457c2d711610071578063a457c2d71461031e578063a9059cbb1461034e578063a9102e401461037e578063dd62ed3e1461039a578063f2fde38b146103ca57610121565b8063715018a61461028c57806379cc6790146102965780637ffbe241146102b25780638da5cb5b146102e257806395d89b411461030057610121565b8063313ce567116100f4578063313ce567146101c257806339509351146101e05780633af32abf1461021057806342966c681461024057806370a082311461025c57610121565b806306fdde0314610126578063095ea7b31461014457806318160ddd1461017457806323b872dd14610192575b600080fd5b61012e6103e6565b60405161013b919061134b565b60405180910390f35b61015e6004803603810190610159919061140b565b610478565b60405161016b9190611466565b60405180910390f35b61017c61049b565b6040516101899190611490565b60405180910390f35b6101ac60048036038101906101a791906114ab565b6104a5565b6040516101b99190611466565b60405180910390f35b6101ca6104d4565b6040516101d7919061151a565b60405180910390f35b6101fa60048036038101906101f5919061140b565b6104dd565b6040516102079190611466565b60405180910390f35b61022a60048036038101906102259190611535565b610514565b6040516102379190611466565b60405180910390f35b61025a60048036038101906102559190611562565b61056a565b005b61027660048036038101906102719190611535565b61057e565b6040516102839190611490565b60405180910390f35b6102946105c6565b005b6102b060048036038101906102ab919061140b565b6105da565b005b6102cc60048036038101906102c79190611535565b6105fa565b6040516102d99190611466565b60405180910390f35b6102ea61061a565b6040516102f7919061159e565b60405180910390f35b610308610644565b604051610315919061134b565b60405180910390f35b6103386004803603810190610333919061140b565b6106d6565b6040516103459190611466565b60405180910390f35b6103686004803603810190610363919061140b565b61074d565b6040516103759190611466565b60405180910390f35b6103986004803603810190610393919061161e565b610770565b005b6103b460048036038101906103af919061166b565b610823565b6040516103c19190611490565b60405180910390f35b6103e460048036038101906103df9190611535565b6108aa565b005b6060600380546103f5906116da565b80601f0160208091040260200160405190810160405280929190818152602001828054610421906116da565b801561046e5780601f106104435761010080835404028352916020019161046e565b820191906000526020600020905b81548152906001019060200180831161045157829003601f168201915b5050505050905090565b60008061048361092d565b9050610490818585610935565b600191505092915050565b6000600254905090565b6000806104b061092d565b90506104bd858285610afe565b6104c8858585610b8a565b60019150509392505050565b60006012905090565b6000806104e861092d565b90506105098185856104fa8589610823565b610504919061173a565b610935565b600191505092915050565b6000600860008373ffffffffffffffffffffffffffffffffffffffff1673ffffffffffffffffffffffffffffffffffffffff16815260200190815260200160002060009054906101000a900460ff169050919050565b61057b61057561092d565b82610d18565b50565b60008060008373ffffffffffffffffffffffffffffffffffffffff1673ffffffffffffffffffffffffffffffffffffffff168152602001908152602001600020549050919050565b6105ce610eee565b6105d86000610f6c565b565b6105ec826105e661092d565b83610afe565b6105f68282610d18565b5050565b60086020528060005260406000206000915054906101000a900460ff1681565b6000600560009054906101000a900473ffffffffffffffffffffffffffffffffffffffff16905090565b606060048054610653906116da565b80601f016020809104026020016040519081016040528092919081815260200182805461067f906116da565b80156106cc5780601f106106a1576101008083540402835291602001916106cc565b820191906000526020600020905b8154815290600101906020018083116106af57829003601f168201915b5050505050905090565b6000806106e161092d565b905060006106ef8286610823565b905083811015610734576040517f08c379a000000000000000000000000000000000000000000000000000000000815260040161072b906117e0565b60405180910390fd5b6107418286868403610935565b60019250505092915050565b60008061075861092d565b9050610765818585610b8a565b600191505092915050565b610778610eee565b600082829050905060005b8181101561081d576001600860008686858181106107a4576107a3611800565b5b90506020020160208101906107b99190611535565b73ffffffffffffffffffffffffffffffffffffffff1673ffffffffffffffffffffffffffffffffffffffff16815260200190815260200160002060006101000a81548160ff02191690831515021790555080806108159061182f565b915050610783565b50505050565b6000600160008473ffffffffffffffffffffffffffffffffffffffff1673ffffffffffffffffffffffffffffffffffffffff16815260200190815260200160002060008373ffffffffffffffffffffffffffffffffffffffff1673ffffffffffffffffffffffffffffffffffffffff16815260200190815260200160002054905092915050565b6108b2610eee565b600073ffffffffffffffffffffffffffffffffffffffff168173ffffffffffffffffffffffffffffffffffffffff1603610921576040517f08c379a0000000000000000000000000000000000000000000000000000000008152600401610918906118e9565b60405180910390fd5b61092a81610f6c565b50565b600033905090565b600073ffffffffffffffffffffffffffffffffffffffff168373ffffffffffffffffffffffffffffffffffffffff16036109a4576040517f08c379a000000000000000000000000000000000000000000000000000000000815260040161099b9061197b565b60405180910390fd5b600073ffffffffffffffffffffffffffffffffffffffff168273ffffffffffffffffffffffffffffffffffffffff1603610a13576040517f08c379a0000000000000000000000000000000000000000000000000000000008152600401610a0a90611a0d565b60405180910390fd5b80600160008573ffffffffffffffffffffffffffffffffffffffff1673ffffffffffffffffffffffffffffffffffffffff16815260200190815260200160002060008473ffffffffffffffffffffffffffffffffffffffff1673ffffffffffffffffffffffffffffffffffffffff168152602001908152602001600020819055508173ffffffffffffffffffffffffffffffffffffffff168373ffffffffffffffffffffffffffffffffffffffff167f8c5be1e5ebec7d5bd14f71427d1e84f3dd0314c0f7b2291e5b200ac8c7c3b92583604051610af19190611490565b60405180910390a3505050565b6000610b0a8484610823565b90507fffffffffffffffffffffffffffffffffffffffffffffffffffffffffffffffff8114610b845781811015610b76576040517f08c379a0000000000000000000000000000000000000000000000000000000008152600401610b6d90611a79565b60405180910390fd5b610b838484848403610935565b5b50505050565b600860008473ffffffffffffffffffffffffffffffffffffffff1673ffffffffffffffffffffffffffffffffffffffff16815260200190815260200160002060009054906101000a900460ff1680610c2b5750600860008373ffffffffffffffffffffffffffffffffffffffff1673ffffffffffffffffffffffffffffffffffffffff16815260200190815260200160002060009054906101000a900460ff165b15610c4057610c3b838383611032565b610d13565b610c6383612710836019610c549190611a99565b610c5e9190611b0a565b610d18565b610ca983600760009054906101000a900473ffffffffffffffffffffffffffffffffffffffff16612710846032610c9a9190611a99565b610ca49190611b0a565b611032565b610cef83600660009054906101000a900473ffffffffffffffffffffffffffffffffffffffff16612710846019610ce09190611a99565b610cea9190611b0a565b611032565b610d1283836064846063610d039190611a99565b610d0d9190611b0a565b611032565b5b505050565b600073ffffffffffffffffffffffffffffffffffffffff168273ffffffffffffffffffffffffffffffffffffffff1603610d87576040517f08c379a0000000000000000000000000000000000000000000000000000000008152600401610d7e90611bad565b60405180910390fd5b610d93826000836112b1565b60008060008473ffffffffffffffffffffffffffffffffffffffff1673ffffffffffffffffffffffffffffffffffffffff16815260200190815260200160002054905081811015610e19576040517f08c379a0000000000000000000000000000000000000000000000000000000008152600401610e1090611c3f565b60405180910390fd5b8181036000808573ffffffffffffffffffffffffffffffffffffffff1673ffffffffffffffffffffffffffffffffffffffff168152602001908152602001600020819055508160026000828254610e709190611c5f565b92505081905550600073ffffffffffffffffffffffffffffffffffffffff168373ffffffffffffffffffffffffffffffffffffffff167fddf252ad1be2c89b69c2b068fc378daa952ba7f163c4a11628f55a4df523b3ef84604051610ed59190611490565b60405180910390a3610ee9836000846112b6565b505050565b610ef661092d565b73ffffffffffffffffffffffffffffffffffffffff16610f1461061a565b73ffffffffffffffffffffffffffffffffffffffff1614610f6a576040517f08c379a0000000000000000000000000000000000000000000000000000000008152600401610f6190611cdf565b60405180910390fd5b565b6000600560009054906101000a900473ffffffffffffffffffffffffffffffffffffffff16905081600560006101000a81548173ffffffffffffffffffffffffffffffffffffffff021916908373ffffffffffffffffffffffffffffffffffffffff1602179055508173ffffffffffffffffffffffffffffffffffffffff168173ffffffffffffffffffffffffffffffffffffffff167f8be0079c531659141344cd1fd0a4f28419497f9722a3daafe3b4186f6b6457e060405160405180910390a35050565b600073ffffffffffffffffffffffffffffffffffffffff168373ffffffffffffffffffffffffffffffffffffffff16036110a1576040517f08c379a000000000000000000000000000000000000000000000000000000000815260040161109890611d71565b60405180910390fd5b600073ffffffffffffffffffffffffffffffffffffffff168273ffffffffffffffffffffffffffffffffffffffff1603611110576040517f08c379a000000000000000000000000000000000000000000000000000000000815260040161110790611e03565b60405180910390fd5b61111b8383836112b1565b60008060008573ffffffffffffffffffffffffffffffffffffffff1673ffffffffffffffffffffffffffffffffffffffff168152602001908152602001600020549050818110156111a1576040517f08c379a000000000000000000000000000000000000000000000000000000000815260040161119890611e95565b60405180910390fd5b8181036000808673ffffffffffffffffffffffffffffffffffffffff1673ffffffffffffffffffffffffffffffffffffffff16815260200190815260200160002081905550816000808573ffffffffffffffffffffffffffffffffffffffff1673ffffffffffffffffffffffffffffffffffffffff1681526020019081526020016000206000828254611234919061173a565b925050819055508273ffffffffffffffffffffffffffffffffffffffff168473ffffffffffffffffffffffffffffffffffffffff167fddf252ad1be2c89b69c2b068fc378daa952ba7f163c4a11628f55a4df523b3ef846040516112989190611490565b60405180910390a36112ab8484846112b6565b50505050565b505050565b505050565b600081519050919050565b600082825260208201905092915050565b60005b838110156112f55780820151818401526020810190506112da565b60008484015250505050565b6000601f19601f8301169050919050565b600061131d826112bb565b61132781856112c6565b93506113378185602086016112d7565b61134081611301565b840191505092915050565b600060208201905081810360008301526113658184611312565b905092915050565b600080fd5b600080fd5b600073ffffffffffffffffffffffffffffffffffffffff82169050919050565b60006113a282611377565b9050919050565b6113b281611397565b81146113bd57600080fd5b50565b6000813590506113cf816113a9565b92915050565b6000819050919050565b6113e8816113d5565b81146113f357600080fd5b50565b600081359050611405816113df565b92915050565b600080604083850312156114225761142161136d565b5b6000611430858286016113c0565b9250506020611441858286016113f6565b9150509250929050565b60008115159050919050565b6114608161144b565b82525050565b600060208201905061147b6000830184611457565b92915050565b61148a816113d5565b82525050565b60006020820190506114a56000830184611481565b92915050565b6000806000606084860312156114c4576114c361136d565b5b60006114d2868287016113c0565b93505060206114e3868287016113c0565b92505060406114f4868287016113f6565b9150509250925092565b600060ff82169050919050565b611514816114fe565b82525050565b600060208201905061152f600083018461150b565b92915050565b60006020828403121561154b5761154a61136d565b5b6000611559848285016113c0565b91505092915050565b6000602082840312156115785761157761136d565b5b6000611586848285016113f6565b91505092915050565b61159881611397565b82525050565b60006020820190506115b3600083018461158f565b92915050565b600080fd5b600080fd5b600080fd5b60008083601f8401126115de576115dd6115b9565b5b8235905067ffffffffffffffff8111156115fb576115fa6115be565b5b602083019150836020820283011115611617576116166115c3565b5b9250929050565b600080602083850312156116355761163461136d565b5b600083013567ffffffffffffffff81111561165357611652611372565b5b61165f858286016115c8565b92509250509250929050565b600080604083850312156116825761168161136d565b5b6000611690858286016113c0565b92505060206116a1858286016113c0565b9150509250929050565b7f4e487b7100000000000000000000000000000000000000000000000000000000600052602260045260246000fd5b600060028204905060018216806116f257607f821691505b602082108103611705576117046116ab565b5b50919050565b7f4e487b7100000000000000000000000000000000000000000000000000000000600052601160045260246000fd5b6000611745826113d5565b9150611750836113d5565b92508282019050808211156117685761176761170b565b5b92915050565b7f45524332303a2064656372656173656420616c6c6f77616e63652062656c6f7760008201527f207a65726f000000000000000000000000000000000000000000000000000000602082015250565b60006117ca6025836112c6565b91506117d58261176e565b604082019050919050565b600060208201905081810360008301526117f9816117bd565b9050919050565b7f4e487b7100000000000000000000000000000000000000000000000000000000600052603260045260246000fd5b600061183a826113d5565b91507fffffffffffffffffffffffffffffffffffffffffffffffffffffffffffffffff820361186c5761186b61170b565b5b600182019050919050565b7f4f776e61626c653a206e6577206f776e657220697320746865207a65726f206160008201527f6464726573730000000000000000000000000000000000000000000000000000602082015250565b60006118d36026836112c6565b91506118de82611877565b604082019050919050565b60006020820190508181036000830152611902816118c6565b9050919050565b7f45524332303a20617070726f76652066726f6d20746865207a65726f2061646460008201527f7265737300000000000000000000000000000000000000000000000000000000602082015250565b60006119656024836112c6565b915061197082611909565b604082019050919050565b6000602082019050818103600083015261199481611958565b9050919050565b7f45524332303a20617070726f766520746f20746865207a65726f20616464726560008201527f7373000000000000000000000000000000000000000000000000000000000000602082015250565b60006119f76022836112c6565b9150611a028261199b565b604082019050919050565b60006020820190508181036000830152611a26816119ea565b9050919050565b7f45524332303a20696e73756666696369656e7420616c6c6f77616e6365000000600082015250565b6000611a63601d836112c6565b9150611a6e82611a2d565b602082019050919050565b60006020820190508181036000830152611a9281611a56565b9050919050565b6000611aa4826113d5565b9150611aaf836113d5565b9250828202611abd816113d5565b91508282048414831517611ad457611ad361170b565b5b5092915050565b7f4e487b7100000000000000000000000000000000000000000000000000000000600052601260045260246000fd5b6000611b15826113d5565b9150611b20836113d5565b925082611b3057611b2f611adb565b5b828204905092915050565b7f45524332303a206275726e2066726f6d20746865207a65726f2061646472657360008201527f7300000000000000000000000000000000000000000000000000000000000000602082015250565b6000611b976021836112c6565b9150611ba282611b3b565b604082019050919050565b60006020820190508181036000830152611bc681611b8a565b9050919050565b7f45524332303a206275726e20616d6f756e7420657863656564732062616c616e60008201527f6365000000000000000000000000000000000000000000000000000000000000602082015250565b6000611c296022836112c6565b9150611c3482611bcd565b604082019050919050565b60006020820190508181036000830152611c5881611c1c565b9050919050565b6000611c6a826113d5565b9150611c75836113d5565b9250828203905081811115611c8d57611c8c61170b565b5b92915050565b7f4f776e61626c653a2063616c6c6572206973206e6f7420746865206f776e6572600082015250565b6000611cc96020836112c6565b9150611cd482611c93565b602082019050919050565b60006020820190508181036000830152611cf881611cbc565b9050919050565b7f45524332303a207472616e736665722066726f6d20746865207a65726f20616460008201527f6472657373000000000000000000000000000000000000000000000000000000602082015250565b6000611d5b6025836112c6565b9150611d6682611cff565b604082019050919050565b60006020820190508181036000830152611d8a81611d4e565b9050919050565b7f45524332303a207472616e7366657220746f20746865207a65726f206164647260008201527f6573730000000000000000000000000000000000000000000000000000000000602082015250565b6000611ded6023836112c6565b9150611df882611d91565b604082019050919050565b60006020820190508181036000830152611e1c81611de0565b9050919050565b7f45524332303a207472616e7366657220616d6f756e742065786365656473206260008201527f616c616e63650000000000000000000000000000000000000000000000000000602082015250565b6000611e7f6026836112c6565b9150611e8a82611e23565b604082019050919050565b60006020820190508181036000830152611eae81611e72565b905091905056fea2646970667358221220dc60a87018b6fdcf418ee639a82f71a6df01968aa8c3501d1e3d95fb2a7a46b064736f6c63430008110033",
  "linkReferences": {},
  "deployedLinkReferences": {}
}