{
  "_format": "hh-sol-artifact-1",
  "contractName": "MockStaking",
  "sourceName": "contracts/MockStaking.sol",
  "abi": [
    {
      "inputs": [],
      "stateMutability": "nonpayable",
      "type": "constructor"
    },
    {
      "anonymous": false,
      "inputs": [
        {
          "indexed": true,
          "internalType": "address",
          "name": "owner",
          "type": "address"
        },
        {
          "indexed": true,
          "internalType": "address",
          "name": "spender",
          "type": "address"
        },
        {
          "indexed": false,
          "internalType": "uint256",
          "name": "value",
          "type": "uint256"
        }
      ],
      "name": "Approval",
      "type": "event"
    },
    {
      "anonymous": false,
      "inputs": [
        {
          "indexed": true,
          "internalType": "address",
          "name": "delegator",
          "type": "address"
        },
        {
          "indexed": true,
          "internalType": "address",
          "name": "fromDelegate",
          "type": "address"
        },
        {
          "indexed": true,
          "internalType": "address",
          "name": "toDelegate",
          "type": "address"
        }
      ],
      "name": "DelegateChanged",
      "type": "event"
    },
    {
      "anonymous": false,
      "inputs": [
        {
          "indexed": true,
          "internalType": "address",
          "name": "delegate",
          "type": "address"
        },
        {
          "indexed": false,
          "internalType": "uint256",
          "name": "previousBalance",
          "type": "uint256"
        },
        {
          "indexed": false,
          "internalType": "uint256",
          "name": "newBalance",
          "type": "uint256"
        }
      ],
      "name": "DelegateVotesChanged",
      "type": "event"
    },
    {
      "anonymous": false,
      "inputs": [
        {
          "indexed": false,
          "internalType": "uint8",
          "name": "version",
          "type": "uint8"
        }
      ],
      "name": "Initialized",
      "type": "event"
    },
    {
      "anonymous": false,
      "inputs": [
        {
          "indexed": true,
          "internalType": "address",
          "name": "previousOwner",
          "type": "address"
        },
        {
          "indexed": true,
          "internalType": "address",
          "name": "newOwner",
          "type": "address"
        }
      ],
      "name": "OwnershipTransferred",
      "type": "event"
    },
    {
      "anonymous": false,
      "inputs": [
        {
          "indexed": true,
          "internalType": "address",
          "name": "from",
          "type": "address"
        },
        {
          "indexed": true,
          "internalType": "address",
          "name": "to",
          "type": "address"
        },
        {
          "indexed": false,
          "internalType": "uint256",
          "name": "value",
          "type": "uint256"
        }
      ],
      "name": "Transfer",
      "type": "event"
    },
    {
      "inputs": [],
      "name": "DOMAIN_SEPARATOR",
      "outputs": [
        {
          "internalType": "bytes32",
          "name": "",
          "type": "bytes32"
        }
      ],
      "stateMutability": "view",
      "type": "function"
    },
    {
      "inputs": [
        {
          "internalType": "address",
          "name": "owner",
          "type": "address"
        },
        {
          "internalType": "address",
          "name": "spender",
          "type": "address"
        }
      ],
      "name": "allowance",
      "outputs": [
        {
          "internalType": "uint256",
          "name": "",
          "type": "uint256"
        }
      ],
      "stateMutability": "view",
      "type": "function"
    },
    {
      "inputs": [
        {
          "internalType": "address",
          "name": "spender",
          "type": "address"
        },
        {
          "internalType": "uint256",
          "name": "amount",
          "type": "uint256"
        }
      ],
      "name": "approve",
      "outputs": [
        {
          "internalType": "bool",
          "name": "",
          "type": "bool"
        }
      ],
      "stateMutability": "nonpayable",
      "type": "function"
    },
    {
      "inputs": [
        {
          "internalType": "address",
          "name": "account",
          "type": "address"
        }
      ],
      "name": "balanceOf",
      "outputs": [
        {
          "internalType": "uint256",
          "name": "",
          "type": "uint256"
        }
      ],
      "stateMutability": "view",
      "type": "function"
    },
    {
      "inputs": [
        {
          "internalType": "address",
          "name": "account",
          "type": "address"
        },
        {
          "internalType": "uint32",
          "name": "pos",
          "type": "uint32"
        }
      ],
      "name": "checkpoints",
      "outputs": [
        {
          "components": [
            {
              "internalType": "uint32",
              "name": "fromBlock",
              "type": "uint32"
            },
            {
              "internalType": "uint224",
              "name": "votes",
              "type": "uint224"
            }
          ],
          "internalType": "struct ERC20VotesUpgradeable.Checkpoint",
          "name": "",
          "type": "tuple"
        }
      ],
      "stateMutability": "view",
      "type": "function"
    },
    {
      "inputs": [],
      "name": "decimals",
      "outputs": [
        {
          "internalType": "uint8",
          "name": "",
          "type": "uint8"
        }
      ],
      "stateMutability": "view",
      "type": "function"
    },
    {
      "inputs": [
        {
          "internalType": "address",
          "name": "spender",
          "type": "address"
        },
        {
          "internalType": "uint256",
          "name": "subtractedValue",
          "type": "uint256"
        }
      ],
      "name": "decreaseAllowance",
      "outputs": [
        {
          "internalType": "bool",
          "name": "",
          "type": "bool"
        }
      ],
      "stateMutability": "nonpayable",
      "type": "function"
    },
    {
      "inputs": [
        {
          "internalType": "address",
          "name": "delegatee",
          "type": "address"
        }
      ],
      "name": "delegate",
      "outputs": [],
      "stateMutability": "nonpayable",
      "type": "function"
    },
    {
      "inputs": [
        {
          "internalType": "address",
          "name": "delegatee",
          "type": "address"
        },
        {
          "internalType": "uint256",
          "name": "nonce",
          "type": "uint256"
        },
        {
          "internalType": "uint256",
          "name": "expiry",
          "type": "uint256"
        },
        {
          "internalType": "uint8",
          "name": "v",
          "type": "uint8"
        },
        {
          "internalType": "bytes32",
          "name": "r",
          "type": "bytes32"
        },
        {
          "internalType": "bytes32",
          "name": "s",
          "type": "bytes32"
        }
      ],
      "name": "delegateBySig",
      "outputs": [],
      "stateMutability": "nonpayable",
      "type": "function"
    },
    {
      "inputs": [
        {
          "internalType": "address",
          "name": "account",
          "type": "address"
        }
      ],
      "name": "delegates",
      "outputs": [
        {
          "internalType": "address",
          "name": "",
          "type": "address"
        }
      ],
      "stateMutability": "view",
      "type": "function"
    },
    {
      "inputs": [
        {
          "internalType": "address",
          "name": "account",
          "type": "address"
        }
      ],
      "name": "getCurrentVotes",
      "outputs": [
        {
          "internalType": "uint96",
          "name": "",
          "type": "uint96"
        }
      ],
      "stateMutability": "view",
      "type": "function"
    },
    {
      "inputs": [
        {
          "internalType": "uint256",
          "name": "blockNumber",
          "type": "uint256"
        }
      ],
      "name": "getPastTotalSupply",
      "outputs": [
        {
          "internalType": "uint256",
          "name": "",
          "type": "uint256"
        }
      ],
      "stateMutability": "view",
      "type": "function"
    },
    {
      "inputs": [
        {
          "internalType": "address",
          "name": "account",
          "type": "address"
        },
        {
          "internalType": "uint256",
          "name": "blockNumber",
          "type": "uint256"
        }
      ],
      "name": "getPastVotes",
      "outputs": [
        {
          "internalType": "uint256",
          "name": "",
          "type": "uint256"
        }
      ],
      "stateMutability": "view",
      "type": "function"
    },
    {
      "inputs": [
        {
          "internalType": "address",
          "name": "account",
          "type": "address"
        },
        {
          "internalType": "uint256",
          "name": "blockNumber",
          "type": "uint256"
        }
      ],
      "name": "getPriorVotes",
      "outputs": [
        {
          "internalType": "uint96",
          "name": "",
          "type": "uint96"
        }
      ],
      "stateMutability": "view",
      "type": "function"
    },
    {
      "inputs": [
        {
          "internalType": "address",
          "name": "account",
          "type": "address"
        }
      ],
      "name": "getVotes",
      "outputs": [
        {
          "internalType": "uint256",
          "name": "",
          "type": "uint256"
        }
      ],
      "stateMutability": "view",
      "type": "function"
    },
    {
      "inputs": [
        {
          "internalType": "address",
          "name": "spender",
          "type": "address"
        },
        {
          "internalType": "uint256",
          "name": "addedValue",
          "type": "uint256"
        }
      ],
      "name": "increaseAllowance",
      "outputs": [
        {
          "internalType": "bool",
          "name": "",
          "type": "bool"
        }
      ],
      "stateMutability": "nonpayable",
      "type": "function"
    },
    {
      "inputs": [
        {
          "internalType": "contract IERC20Upgradeable",
          "name": "_stakingToken",
          "type": "address"
        },
        {
          "internalType": "uint16",
          "name": "_penaltyDays",
          "type": "uint16"
        },
        {
          "internalType": "uint16",
          "name": "_penaltyBP",
          "type": "uint16"
        },
        {
          "internalType": "address",
          "name": "_treasury",
          "type": "address"
        }
      ],
      "name": "initialize",
      "outputs": [],
      "stateMutability": "nonpayable",
      "type": "function"
    },
    {
      "inputs": [],
      "name": "name",
      "outputs": [
        {
          "internalType": "string",
          "name": "",
          "type": "string"
        }
      ],
      "stateMutability": "view",
      "type": "function"
    },
    {
      "inputs": [
        {
          "internalType": "address",
          "name": "owner",
          "type": "address"
        }
      ],
      "name": "nonces",
      "outputs": [
        {
          "internalType": "uint256",
          "name": "",
          "type": "uint256"
        }
      ],
      "stateMutability": "view",
      "type": "function"
    },
    {
      "inputs": [
        {
          "internalType": "address",
          "name": "account",
          "type": "address"
        }
      ],
      "name": "numCheckpoints",
      "outputs": [
        {
          "internalType": "uint32",
          "name": "",
          "type": "uint32"
        }
      ],
      "stateMutability": "view",
      "type": "function"
    },
    {
      "inputs": [],
      "name": "owner",
      "outputs": [
        {
          "internalType": "address",
          "name": "",
          "type": "address"
        }
      ],
      "stateMutability": "view",
      "type": "function"
    },
    {
      "inputs": [],
      "name": "penaltyBP",
      "outputs": [
        {
          "internalType": "uint16",
          "name": "",
          "type": "uint16"
        }
      ],
      "stateMutability": "view",
      "type": "function"
    },
    {
      "inputs": [],
      "name": "penaltyDays",
      "outputs": [
        {
          "internalType": "uint16",
          "name": "",
          "type": "uint16"
        }
      ],
      "stateMutability": "view",
      "type": "function"
    },
    {
      "inputs": [
        {
          "internalType": "address",
          "name": "owner",
          "type": "address"
        },
        {
          "internalType": "address",
          "name": "spender",
          "type": "address"
        },
        {
          "internalType": "uint256",
          "name": "value",
          "type": "uint256"
        },
        {
          "internalType": "uint256",
          "name": "deadline",
          "type": "uint256"
        },
        {
          "internalType": "uint8",
          "name": "v",
          "type": "uint8"
        },
        {
          "internalType": "bytes32",
          "name": "r",
          "type": "bytes32"
        },
        {
          "internalType": "bytes32",
          "name": "s",
          "type": "bytes32"
        }
      ],
      "name": "permit",
      "outputs": [],
      "stateMutability": "nonpayable",
      "type": "function"
    },
    {
      "inputs": [],
      "name": "renounceOwnership",
      "outputs": [],
      "stateMutability": "nonpayable",
      "type": "function"
    },
    {
      "inputs": [
        {
          "internalType": "uint256",
          "name": "_time",
          "type": "uint256"
        }
      ],
      "name": "setCurrentTime",
      "outputs": [],
      "stateMutability": "nonpayable",
      "type": "function"
    },
    {
      "inputs": [
        {
          "internalType": "uint16",
          "name": "_penaltyBP",
          "type": "uint16"
        }
      ],
      "name": "setPenaltyBP",
      "outputs": [],
      "stateMutability": "nonpayable",
      "type": "function"
    },
    {
      "inputs": [
        {
          "internalType": "uint16",
          "name": "_penaltyDays",
          "type": "uint16"
        }
      ],
      "name": "setPenaltyDays",
      "outputs": [],
      "stateMutability": "nonpayable",
      "type": "function"
    },
    {
      "inputs": [
        {
          "internalType": "address",
          "name": "_treasury",
          "type": "address"
        }
      ],
      "name": "setTreasury",
      "outputs": [],
      "stateMutability": "nonpayable",
      "type": "function"
    },
    {
      "inputs": [
        {
          "internalType": "uint128",
          "name": "_amount",
          "type": "uint128"
        }
      ],
      "name": "stake",
      "outputs": [],
      "stateMutability": "nonpayable",
      "type": "function"
    },
    {
      "inputs": [
        {
          "internalType": "address",
          "name": "",
          "type": "address"
        },
        {
          "internalType": "uint256",
          "name": "",
          "type": "uint256"
        }
      ],
      "name": "stakers",
      "outputs": [
        {
          "internalType": "bool",
          "name": "unstaked",
          "type": "bool"
        },
        {
          "internalType": "uint128",
          "name": "amount",
          "type": "uint128"
        },
        {
          "internalType": "uint48",
          "name": "stakedTimestamp",
          "type": "uint48"
        },
        {
          "internalType": "uint16",
          "name": "penaltyDays",
          "type": "uint16"
        },
        {
          "internalType": "uint16",
          "name": "penaltyBP",
          "type": "uint16"
        },
        {
          "internalType": "uint192",
          "name": "shares",
          "type": "uint192"
        }
      ],
      "stateMutability": "view",
      "type": "function"
    },
    {
      "inputs": [],
      "name": "stakingToken",
      "outputs": [
        {
          "internalType": "contract IERC20Upgradeable",
          "name": "",
          "type": "address"
        }
      ],
      "stateMutability": "view",
      "type": "function"
    },
    {
      "inputs": [],
      "name": "symbol",
      "outputs": [
        {
          "internalType": "string",
          "name": "",
          "type": "string"
        }
      ],
      "stateMutability": "view",
      "type": "function"
    },
    {
      "inputs": [],
      "name": "totalShares",
      "outputs": [
        {
          "internalType": "uint192",
          "name": "",
          "type": "uint192"
        }
      ],
      "stateMutability": "view",
      "type": "function"
    },
    {
      "inputs": [],
      "name": "totalSupply",
      "outputs": [
        {
          "internalType": "uint256",
          "name": "",
          "type": "uint256"
        }
      ],
      "stateMutability": "view",
      "type": "function"
    },
    {
      "inputs": [
        {
          "internalType": "address",
          "name": "to",
          "type": "address"
        },
        {
          "internalType": "uint256",
          "name": "amount",
          "type": "uint256"
        }
      ],
      "name": "transfer",
      "outputs": [
        {
          "internalType": "bool",
          "name": "",
          "type": "bool"
        }
      ],
      "stateMutability": "nonpayable",
      "type": "function"
    },
    {
      "inputs": [
        {
          "internalType": "address",
          "name": "from",
          "type": "address"
        },
        {
          "internalType": "address",
          "name": "to",
          "type": "address"
        },
        {
          "internalType": "uint256",
          "name": "amount",
          "type": "uint256"
        }
      ],
      "name": "transferFrom",
      "outputs": [
        {
          "internalType": "bool",
          "name": "",
          "type": "bool"
        }
      ],
      "stateMutability": "nonpayable",
      "type": "function"
    },
    {
      "inputs": [
        {
          "internalType": "address",
          "name": "newOwner",
          "type": "address"
        }
      ],
      "name": "transferOwnership",
      "outputs": [],
      "stateMutability": "nonpayable",
      "type": "function"
    },
    {
      "inputs": [],
      "name": "treasury",
      "outputs": [
        {
          "internalType": "address",
          "name": "",
          "type": "address"
        }
      ],
      "stateMutability": "view",
      "type": "function"
    },
    {
      "inputs": [
        {
          "internalType": "uint256",
          "name": "_stakeIndex",
          "type": "uint256"
        }
      ],
      "name": "unstake",
      "outputs": [],
      "stateMutability": "nonpayable",
      "type": "function"
    }
  ],
  "bytecode": "0x608060405260006101985534801561001657600080fd5b50615fc280620000276000396000f3fe608060405234801561001057600080fd5b50600436106102485760003560e01c80637ecebe001161013b578063bacb4c57116100b8578063ee2b44e41161007c578063ee2b44e414610768578063ef5509bb14610786578063f0f44260146107a2578063f1127ed8146107be578063f2fde38b146107ee57610248565b8063bacb4c57146106af578063c3cda520146106cb578063c8b6cbf7146106e7578063d505accf1461071c578063dd62ed3e1461073857610248565b80639ab24eb0116100ff5780639ab24eb0146105d1578063a457c2d714610601578063a5582c3e14610631578063a9059cbb1461064f578063b4b5ea571461067f57610248565b80637ecebe001461051957806388fe2be8146105495780638da5cb5b146105655780638e539e8c1461058357806395d89b41146105b357610248565b80633a46b1a8116101c95780636fcfff451161018d5780636fcfff451461046157806370a0823114610491578063715018a6146104c157806372f702f3146104cb578063782d6fe1146104e957610248565b80633a46b1a8146103a95780633a98ef39146103d9578063587cde1e146103f75780635c19a95c1461042757806361d027b31461044357610248565b80632932e77a116102105780632932e77a146103055780632e17de7814610321578063313ce5671461033d5780633644e5151461035b578063395093511461037957610248565b806306fdde031461024d578063095ea7b31461026b57806318160ddd1461029b57806322f8e566146102b957806323b872dd146102d5575b600080fd5b61025561080a565b6040516102629190613c70565b60405180910390f35b61028560048036038101906102809190613d2b565b61089c565b6040516102929190613d86565b60405180910390f35b6102a36108bf565b6040516102b09190613db0565b60405180910390f35b6102d360048036038101906102ce9190613dcb565b6108c9565b005b6102ef60048036038101906102ea9190613df8565b6108d4565b6040516102fc9190613d86565b60405180910390f35b61031f600480360381019061031a9190613e85565b610903565b005b61033b60048036038101906103369190613dcb565b61092c565b005b610345610d7f565b6040516103529190613ece565b60405180910390f35b610363610d88565b6040516103709190613f02565b60405180910390f35b610393600480360381019061038e9190613d2b565b610d97565b6040516103a09190613d86565b60405180910390f35b6103c360048036038101906103be9190613d2b565b610dce565b6040516103d09190613db0565b60405180910390f35b6103e1610e62565b6040516103ee9190613f50565b60405180910390f35b610411600480360381019061040c9190613f6b565b610e8d565b60405161041e9190613fa7565b60405180910390f35b610441600480360381019061043c9190613f6b565b610ef6565b005b61044b610f0a565b6040516104589190613fa7565b60405180910390f35b61047b60048036038101906104769190613f6b565b610f31565b6040516104889190613fe1565b60405180910390f35b6104ab60048036038101906104a69190613f6b565b610f85565b6040516104b89190613db0565b60405180910390f35b6104c9610fce565b005b6104d3610fe2565b6040516104e0919061405b565b60405180910390f35b61050360048036038101906104fe9190613d2b565b611009565b604051610510919061409d565b60405180910390f35b610533600480360381019061052e9190613f6b565b611025565b6040516105409190613db0565b60405180910390f35b610563600480360381019061055e9190614100565b611075565b005b61056d61140d565b60405161057a9190613fa7565b60405180910390f35b61059d60048036038101906105989190613dcb565b611438565b6040516105aa9190613db0565b60405180910390f35b6105bb61148e565b6040516105c89190613c70565b60405180910390f35b6105eb60048036038101906105e69190613f6b565b611520565b6040516105f89190613db0565b60405180910390f35b61061b60048036038101906106169190613d2b565b611631565b6040516106289190613d86565b60405180910390f35b6106396116a8565b604051610646919061413c565b60405180910390f35b61066960048036038101906106649190613d2b565b6116bd565b6040516106769190613d86565b60405180910390f35b61069960048036038101906106949190613f6b565b6116e0565b6040516106a6919061409d565b60405180910390f35b6106c960048036038101906106c49190613e85565b6116fa565b005b6106e560048036038101906106e091906141af565b611723565b005b61070160048036038101906106fc9190613d2b565b611827565b6040516107139695949392919061426c565b60405180910390f35b610736600480360381019061073191906142cd565b6118fc565b005b610752600480360381019061074d919061436f565b611a3e565b60405161075f9190613db0565b60405180910390f35b610770611ac5565b60405161077d919061413c565b60405180910390f35b6107a0600480360381019061079b91906143ed565b611ada565b005b6107bc60048036038101906107b79190613f6b565b611e74565b005b6107d860048036038101906107d39190614480565b611ec1565b6040516107e59190614535565b60405180910390f35b61080860048036038101906108039190613f6b565b611fd1565b005b6060603680546108199061457f565b80601f01602080910402602001604051908101604052809291908181526020018280546108459061457f565b80156108925780601f1061086757610100808354040283529160200191610892565b820191906000526020600020905b81548152906001019060200180831161087557829003601f168201915b5050505050905090565b6000806108a7612054565b90506108b481858561205c565b600191505092915050565b6000603554905090565b806101988190555050565b6000806108df612054565b90506108ec858285612225565b6108f78585856122b1565b60019150509392505050565b61090b6122ec565b8061019660006101000a81548161ffff021916908361ffff16021790555050565b60026101625403610972576040517f08c379a0000000000000000000000000000000000000000000000000000000008152600401610969906145fc565b60405180910390fd5b60026101628190555061019560003373ffffffffffffffffffffffffffffffffffffffff1673ffffffffffffffffffffffffffffffffffffffff168152602001908152602001600020805490508110610a00576040517f08c379a00000000000000000000000000000000000000000000000000000000081526004016109f790614668565b60405180910390fd5b600061019560003373ffffffffffffffffffffffffffffffffffffffff1673ffffffffffffffffffffffffffffffffffffffff1681526020019081526020016000208281548110610a5457610a53614688565b5b906000526020600020906002020190508060000160009054906101000a900460ff1615610ab6576040517f08c379a0000000000000000000000000000000000000000000000000000000008152600401610aad90614729565b60405180910390fd5b610af2338260000160019054906101000a90046fffffffffffffffffffffffffffffffff166fffffffffffffffffffffffffffffffff1661236a565b8060010160009054906101000a900477ffffffffffffffffffffffffffffffffffffffffffffffff1661019760008282829054906101000a900477ffffffffffffffffffffffffffffffffffffffffffffffff16610b509190614778565b92506101000a81548177ffffffffffffffffffffffffffffffffffffffffffffffff021916908377ffffffffffffffffffffffffffffffffffffffffffffffff16021790555060018160000160006101000a81548160ff0219169083151502179055506000610bbd612388565b620151808360000160179054906101000a900461ffff1661ffff16610be291906147c4565b8360000160119054906101000a900465ffffffffffff16610c039190614801565b65ffffffffffff161115610ce6576127108260000160199054906101000a900461ffff1661ffff168360000160019054906101000a90046fffffffffffffffffffffffffffffffff16610c56919061483b565b610c6091906148a7565b6fffffffffffffffffffffffffffffffff169050610ce561019660049054906101000a900473ffffffffffffffffffffffffffffffffffffffff168261019460009054906101000a900473ffffffffffffffffffffffffffffffffffffffff1673ffffffffffffffffffffffffffffffffffffffff166123939092919063ffffffff16565b5b610d7133828460000160019054906101000a90046fffffffffffffffffffffffffffffffff166fffffffffffffffffffffffffffffffff16610d2891906148d8565b61019460009054906101000a900473ffffffffffffffffffffffffffffffffffffffff1673ffffffffffffffffffffffffffffffffffffffff166123939092919063ffffffff16565b505060016101628190555050565b60006012905090565b6000610d92612419565b905090565b600080610da2612054565b9050610dc3818585610db48589611a3e565b610dbe919061490c565b61205c565b600191505092915050565b6000438210610e12576040517f08c379a0000000000000000000000000000000000000000000000000000000008152600401610e099061498c565b60405180910390fd5b610e5a60cd60008573ffffffffffffffffffffffffffffffffffffffff1673ffffffffffffffffffffffffffffffffffffffff16815260200190815260200160002083612459565b905092915050565b61019760009054906101000a900477ffffffffffffffffffffffffffffffffffffffffffffffff1681565b600060cc60008373ffffffffffffffffffffffffffffffffffffffff1673ffffffffffffffffffffffffffffffffffffffff16815260200190815260200160002060009054906101000a900473ffffffffffffffffffffffffffffffffffffffff169050919050565b610f07610f01612054565b82612565565b50565b61019660049054906101000a900473ffffffffffffffffffffffffffffffffffffffff1681565b6000610f7e60cd60008473ffffffffffffffffffffffffffffffffffffffff1673ffffffffffffffffffffffffffffffffffffffff1681526020019081526020016000208054905061267f565b9050919050565b6000603360008373ffffffffffffffffffffffffffffffffffffffff1673ffffffffffffffffffffffffffffffffffffffff168152602001908152602001600020549050919050565b610fd66122ec565b610fe060006126d2565b565b61019460009054906101000a900473ffffffffffffffffffffffffffffffffffffffff1681565b600061101d6110188484610dce565b61279a565b905092915050565b600061106e609960008473ffffffffffffffffffffffffffffffffffffffff1673ffffffffffffffffffffffffffffffffffffffff1681526020019081526020016000206127f5565b9050919050565b600261016254036110bb576040517f08c379a00000000000000000000000000000000000000000000000000000000081526004016110b2906145fc565b60405180910390fd5b6002610162819055506111263330836fffffffffffffffffffffffffffffffff1661019460009054906101000a900473ffffffffffffffffffffffffffffffffffffffff1673ffffffffffffffffffffffffffffffffffffffff16612803909392919063ffffffff16565b61114233826fffffffffffffffffffffffffffffffff1661288c565b806fffffffffffffffffffffffffffffffff1661019760008282829054906101000a900477ffffffffffffffffffffffffffffffffffffffffffffffff1661118a91906149ac565b92506101000a81548177ffffffffffffffffffffffffffffffffffffffffffffffff021916908377ffffffffffffffffffffffffffffffffffffffffffffffff16021790555061019560003373ffffffffffffffffffffffffffffffffffffffff1673ffffffffffffffffffffffffffffffffffffffff1681526020019081526020016000206040518060c00160405280600015158152602001836fffffffffffffffffffffffffffffffff168152602001611244612388565b65ffffffffffff16815260200161019660009054906101000a900461ffff1661ffff16815260200161019660029054906101000a900461ffff1661ffff168152602001836fffffffffffffffffffffffffffffffff1677ffffffffffffffffffffffffffffffffffffffffffffffff16815250908060018154018082558091505060019003906000526020600020906002020160009091909190915060008201518160000160006101000a81548160ff02191690831515021790555060208201518160000160016101000a8154816fffffffffffffffffffffffffffffffff02191690836fffffffffffffffffffffffffffffffff16021790555060408201518160000160116101000a81548165ffffffffffff021916908365ffffffffffff16021790555060608201518160000160176101000a81548161ffff021916908361ffff16021790555060808201518160000160196101000a81548161ffff021916908361ffff16021790555060a08201518160010160006101000a81548177ffffffffffffffffffffffffffffffffffffffffffffffff021916908377ffffffffffffffffffffffffffffffffffffffffffffffff160217905550505060016101628190555050565b600061013060009054906101000a900473ffffffffffffffffffffffffffffffffffffffff16905090565b600043821061147c576040517f08c379a00000000000000000000000000000000000000000000000000000000081526004016114739061498c565b60405180910390fd5b61148760ce83612459565b9050919050565b60606037805461149d9061457f565b80601f01602080910402602001604051908101604052809291908181526020018280546114c99061457f565b80156115165780601f106114eb57610100808354040283529160200191611516565b820191906000526020600020905b8154815290600101906020018083116114f957829003601f168201915b5050505050905090565b60008060cd60008473ffffffffffffffffffffffffffffffffffffffff1673ffffffffffffffffffffffffffffffffffffffff168152602001908152602001600020805490509050600081146116085760cd60008473ffffffffffffffffffffffffffffffffffffffff1673ffffffffffffffffffffffffffffffffffffffff1681526020019081526020016000206001826115bc91906148d8565b815481106115cd576115cc614688565b5b9060005260206000200160000160049054906101000a90047bffffffffffffffffffffffffffffffffffffffffffffffffffffffff1661160b565b60005b7bffffffffffffffffffffffffffffffffffffffffffffffffffffffff16915050919050565b60008061163c612054565b9050600061164a8286611a3e565b90508381101561168f576040517f08c379a000000000000000000000000000000000000000000000000000000000815260040161168690614a6a565b60405180910390fd5b61169c828686840361205c565b60019250505092915050565b61019660029054906101000a900461ffff1681565b6000806116c8612054565b90506116d58185856122b1565b600191505092915050565b60006116f36116ee83611520565b61279a565b9050919050565b6117026122ec565b8061019660026101000a81548161ffff021916908361ffff16021790555050565b83421115611766576040517f08c379a000000000000000000000000000000000000000000000000000000000815260040161175d90614ad6565b60405180910390fd5b60006117c86117c07fe48329057bfd03d55e49b547132e39cffd9c1820ad7b9d4c5307691425d15adf8989896040516020016117a59493929190614af6565b60405160208183030381529060405280519060200120612919565b858585612933565b90506117d38161295e565b8614611814576040517f08c379a000000000000000000000000000000000000000000000000000000000815260040161180b90614b87565b60405180910390fd5b61181e8188612565565b50505050505050565b610195602052816000526040600020818154811061184457600080fd5b9060005260206000209060020201600091509150508060000160009054906101000a900460ff16908060000160019054906101000a90046fffffffffffffffffffffffffffffffff16908060000160119054906101000a900465ffffffffffff16908060000160179054906101000a900461ffff16908060000160199054906101000a900461ffff16908060010160009054906101000a900477ffffffffffffffffffffffffffffffffffffffffffffffff16905086565b8342111561193f576040517f08c379a000000000000000000000000000000000000000000000000000000000815260040161193690614bf3565b60405180910390fd5b60007f6e71edae12b1b97f4d1f60370fef10105fa2faae0126114a169c64845d6126c988888861196e8c61295e565b8960405160200161198496959493929190614c13565b60405160208183030381529060405280519060200120905060006119a782612919565b905060006119b782878787612933565b90508973ffffffffffffffffffffffffffffffffffffffff168173ffffffffffffffffffffffffffffffffffffffff1614611a27576040517f08c379a0000000000000000000000000000000000000000000000000000000008152600401611a1e90614cc0565b60405180910390fd5b611a328a8a8a61205c565b50505050505050505050565b6000603460008473ffffffffffffffffffffffffffffffffffffffff1673ffffffffffffffffffffffffffffffffffffffff16815260200190815260200160002060008373ffffffffffffffffffffffffffffffffffffffff1673ffffffffffffffffffffffffffffffffffffffff16815260200190815260200160002054905092915050565b61019660009054906101000a900461ffff1681565b60008060019054906101000a900460ff16159050808015611b0b5750600160008054906101000a900460ff1660ff16105b80611b385750611b1a306129bc565b158015611b375750600160008054906101000a900460ff1660ff16145b5b611b77576040517f08c379a0000000000000000000000000000000000000000000000000000000008152600401611b6e90614d52565b60405180910390fd5b60016000806101000a81548160ff021916908360ff1602179055508015611bb4576001600060016101000a81548160ff0219169083151502179055505b611c286040518060400160405280600a81526020017f5374616b656420434154000000000000000000000000000000000000000000008152506040518060400160405280600581526020017f73744341540000000000000000000000000000000000000000000000000000008152506129df565b611c666040518060400160405280600a81526020017f5374616b65642043415400000000000000000000000000000000000000000000815250612a3c565b611c6e612acd565b611c76612b26565b600073ffffffffffffffffffffffffffffffffffffffff168573ffffffffffffffffffffffffffffffffffffffff1603611ce5576040517f08c379a0000000000000000000000000000000000000000000000000000000008152600401611cdc90614de4565b60405180910390fd5b600073ffffffffffffffffffffffffffffffffffffffff168273ffffffffffffffffffffffffffffffffffffffff1603611d54576040517f08c379a0000000000000000000000000000000000000000000000000000000008152600401611d4b90614e76565b60405180910390fd5b8461019460006101000a81548173ffffffffffffffffffffffffffffffffffffffff021916908373ffffffffffffffffffffffffffffffffffffffff1602179055508361019660006101000a81548161ffff021916908361ffff1602179055508261019660026101000a81548161ffff021916908361ffff1602179055508161019660046101000a81548173ffffffffffffffffffffffffffffffffffffffff021916908373ffffffffffffffffffffffffffffffffffffffff1602179055508015611e6d5760008060016101000a81548160ff0219169083151502179055507f7f26b83ff96e1f2b6a682f133852f6798a09c465da95921460cefb38474024986001604051611e649190614ed1565b60405180910390a15b5050505050565b611e7c6122ec565b8061019660046101000a81548173ffffffffffffffffffffffffffffffffffffffff021916908373ffffffffffffffffffffffffffffffffffffffff16021790555050565b611ec9613ba2565b60cd60008473ffffffffffffffffffffffffffffffffffffffff1673ffffffffffffffffffffffffffffffffffffffff1681526020019081526020016000208263ffffffff1681548110611f2057611f1f614688565b5b906000526020600020016040518060400160405290816000820160009054906101000a900463ffffffff1663ffffffff1663ffffffff1681526020016000820160049054906101000a90047bffffffffffffffffffffffffffffffffffffffffffffffffffffffff167bffffffffffffffffffffffffffffffffffffffffffffffffffffffff167bffffffffffffffffffffffffffffffffffffffffffffffffffffffff1681525050905092915050565b611fd96122ec565b600073ffffffffffffffffffffffffffffffffffffffff168173ffffffffffffffffffffffffffffffffffffffff1603612048576040517f08c379a000000000000000000000000000000000000000000000000000000000815260040161203f90614f5e565b60405180910390fd5b612051816126d2565b50565b600033905090565b600073ffffffffffffffffffffffffffffffffffffffff168373ffffffffffffffffffffffffffffffffffffffff16036120cb576040517f08c379a00000000000000000000000000000000000000000000000000000000081526004016120c290614ff0565b60405180910390fd5b600073ffffffffffffffffffffffffffffffffffffffff168273ffffffffffffffffffffffffffffffffffffffff160361213a576040517f08c379a000000000000000000000000000000000000000000000000000000000815260040161213190615082565b60405180910390fd5b80603460008573ffffffffffffffffffffffffffffffffffffffff1673ffffffffffffffffffffffffffffffffffffffff16815260200190815260200160002060008473ffffffffffffffffffffffffffffffffffffffff1673ffffffffffffffffffffffffffffffffffffffff168152602001908152602001600020819055508173ffffffffffffffffffffffffffffffffffffffff168373ffffffffffffffffffffffffffffffffffffffff167f8c5be1e5ebec7d5bd14f71427d1e84f3dd0314c0f7b2291e5b200ac8c7c3b925836040516122189190613db0565b60405180910390a3505050565b60006122318484611a3e565b90507fffffffffffffffffffffffffffffffffffffffffffffffffffffffffffffffff81146122ab578181101561229d576040517f08c379a0000000000000000000000000000000000000000000000000000000008152600401612294906150ee565b60405180910390fd5b6122aa848484840361205c565b5b50505050565b6040517f08c379a00000000000000000000000000000000000000000000000000000000081526004016122e390615180565b60405180910390fd5b6122f4612054565b73ffffffffffffffffffffffffffffffffffffffff1661231261140d565b73ffffffffffffffffffffffffffffffffffffffff1614612368576040517f08c379a000000000000000000000000000000000000000000000000000000000815260040161235f906151ec565b60405180910390fd5b565b6123748282612b7f565b61238260ce612d5783612d6d565b50505050565b600061019854905090565b6124148363a9059cbb60e01b84846040516024016123b292919061520c565b604051602081830303815290604052907bffffffffffffffffffffffffffffffffffffffffffffffffffffffff19166020820180517bffffffffffffffffffffffffffffffffffffffffffffffffffffffff8381831617835250505050612fe5565b505050565b60006124547f8b73c3c69bb8fe3d512ecc4cf759cc79239f7b179b0ffacaa9a75d522b39400f6124476130ac565b61244f6130b6565b6130c0565b905090565b6000808380549050905060005b818110156124d857600061247a82846130fa565b9050848682815481106124905761248f614688565b5b9060005260206000200160000160009054906101000a900463ffffffff1663ffffffff1611156124c2578092506124d2565b6001816124cf919061490c565b91505b50612466565b6000821461253a57846001836124ee91906148d8565b815481106124ff576124fe614688565b5b9060005260206000200160000160049054906101000a90047bffffffffffffffffffffffffffffffffffffffffffffffffffffffff1661253d565b60005b7bffffffffffffffffffffffffffffffffffffffffffffffffffffffff169250505092915050565b600061257083610e8d565b9050600061257d84610f85565b90508260cc60008673ffffffffffffffffffffffffffffffffffffffff1673ffffffffffffffffffffffffffffffffffffffff16815260200190815260200160002060006101000a81548173ffffffffffffffffffffffffffffffffffffffff021916908373ffffffffffffffffffffffffffffffffffffffff1602179055508273ffffffffffffffffffffffffffffffffffffffff168273ffffffffffffffffffffffffffffffffffffffff168573ffffffffffffffffffffffffffffffffffffffff167f3134e8a2e6d97e929a7e54011ea5485d7d196dd5f0ba4d4ef95803e8e3fc257f60405160405180910390a4612679828483613120565b50505050565b600063ffffffff80168211156126ca576040517f08c379a00000000000000000000000000000000000000000000000000000000081526004016126c1906152a7565b60405180910390fd5b819050919050565b600061013060009054906101000a900473ffffffffffffffffffffffffffffffffffffffff1690508161013060006101000a81548173ffffffffffffffffffffffffffffffffffffffff021916908373ffffffffffffffffffffffffffffffffffffffff1602179055508173ffffffffffffffffffffffffffffffffffffffff168173ffffffffffffffffffffffffffffffffffffffff167f8be0079c531659141344cd1fd0a4f28419497f9722a3daafe3b4186f6b6457e060405160405180910390a35050565b60006bffffffffffffffffffffffff80168211156127ed576040517f08c379a00000000000000000000000000000000000000000000000000000000081526004016127e490615339565b60405180910390fd5b819050919050565b600081600001549050919050565b612886846323b872dd60e01b85858560405160240161282493929190615359565b604051602081830303815290604052907bffffffffffffffffffffffffffffffffffffffffffffffffffffffff19166020820180517bffffffffffffffffffffffffffffffffffffffffffffffffffffffff8381831617835250505050612fe5565b50505050565b6128968282613319565b61289e613479565b7bffffffffffffffffffffffffffffffffffffffffffffffffffffffff166128c46108bf565b1115612905576040517f08c379a00000000000000000000000000000000000000000000000000000000081526004016128fc90615402565b60405180910390fd5b61291360ce61348f83612d6d565b50505050565b600061292c612926612419565b836134a5565b9050919050565b6000806000612944878787876134d8565b91509150612951816135e4565b8192505050949350505050565b600080609960008473ffffffffffffffffffffffffffffffffffffffff1673ffffffffffffffffffffffffffffffffffffffff16815260200190815260200160002090506129ab816127f5565b91506129b6816137b0565b50919050565b6000808273ffffffffffffffffffffffffffffffffffffffff163b119050919050565b600060019054906101000a900460ff16612a2e576040517f08c379a0000000000000000000000000000000000000000000000000000000008152600401612a2590615494565b60405180910390fd5b612a3882826137c6565b5050565b600060019054906101000a900460ff16612a8b576040517f08c379a0000000000000000000000000000000000000000000000000000000008152600401612a8290615494565b60405180910390fd5b612aca816040518060400160405280600181526020017f3100000000000000000000000000000000000000000000000000000000000000815250613839565b50565b600060019054906101000a900460ff16612b1c576040517f08c379a0000000000000000000000000000000000000000000000000000000008152600401612b1390615494565b60405180910390fd5b612b246138b4565b565b600060019054906101000a900460ff16612b75576040517f08c379a0000000000000000000000000000000000000000000000000000000008152600401612b6c90615494565b60405180910390fd5b612b7d613915565b565b600073ffffffffffffffffffffffffffffffffffffffff168273ffffffffffffffffffffffffffffffffffffffff1603612bee576040517f08c379a0000000000000000000000000000000000000000000000000000000008152600401612be590615526565b60405180910390fd5b612bfa8260008361396f565b6000603360008473ffffffffffffffffffffffffffffffffffffffff1673ffffffffffffffffffffffffffffffffffffffff16815260200190815260200160002054905081811015612c81576040517f08c379a0000000000000000000000000000000000000000000000000000000008152600401612c78906155b8565b60405180910390fd5b818103603360008573ffffffffffffffffffffffffffffffffffffffff1673ffffffffffffffffffffffffffffffffffffffff168152602001908152602001600020819055508160356000828254612cd991906148d8565b92505081905550600073ffffffffffffffffffffffffffffffffffffffff168373ffffffffffffffffffffffffffffffffffffffff167fddf252ad1be2c89b69c2b068fc378daa952ba7f163c4a11628f55a4df523b3ef84604051612d3e9190613db0565b60405180910390a3612d5283600084613974565b505050565b60008183612d6591906148d8565b905092915050565b60008060008580549050905060008114612ddb5785600182612d8f91906148d8565b81548110612da057612d9f614688565b5b9060005260206000200160000160049054906101000a90047bffffffffffffffffffffffffffffffffffffffffffffffffffffffff16612dde565b60005b7bffffffffffffffffffffffffffffffffffffffffffffffffffffffff169250612e0c83858763ffffffff16565b9150600081118015612e5f57504386600183612e2891906148d8565b81548110612e3957612e38614688565b5b9060005260206000200160000160009054906101000a900463ffffffff1663ffffffff16145b15612eec57612e6d8261399f565b86600183612e7b91906148d8565b81548110612e8c57612e8b614688565b5b9060005260206000200160000160046101000a8154817bffffffffffffffffffffffffffffffffffffffffffffffffffffffff02191690837bffffffffffffffffffffffffffffffffffffffffffffffffffffffff160217905550612fdc565b856040518060400160405280612f014361267f565b63ffffffff168152602001612f158561399f565b7bffffffffffffffffffffffffffffffffffffffffffffffffffffffff168152509080600181540180825580915050600190039060005260206000200160009091909190915060008201518160000160006101000a81548163ffffffff021916908363ffffffff16021790555060208201518160000160046101000a8154817bffffffffffffffffffffffffffffffffffffffffffffffffffffffff02191690837bffffffffffffffffffffffffffffffffffffffffffffffffffffffff16021790555050505b50935093915050565b6000613047826040518060400160405280602081526020017f5361666545524332303a206c6f772d6c6576656c2063616c6c206661696c65648152508573ffffffffffffffffffffffffffffffffffffffff16613a0a9092919063ffffffff16565b90506000815111156130a757808060200190518101906130679190615604565b6130a6576040517f08c379a000000000000000000000000000000000000000000000000000000000815260040161309d906156a3565b60405180910390fd5b5b505050565b6000606554905090565b6000606654905090565b600083838346306040516020016130db9594939291906156c3565b6040516020818303038152906040528051906020012090509392505050565b6000600282841861310b9190615716565b828416613118919061490c565b905092915050565b8173ffffffffffffffffffffffffffffffffffffffff168373ffffffffffffffffffffffffffffffffffffffff161415801561315c5750600081115b1561331457600073ffffffffffffffffffffffffffffffffffffffff168373ffffffffffffffffffffffffffffffffffffffff161461323a576000806131e360cd60008773ffffffffffffffffffffffffffffffffffffffff1673ffffffffffffffffffffffffffffffffffffffff168152602001908152602001600020612d5785612d6d565b915091508473ffffffffffffffffffffffffffffffffffffffff167fdec2bacdd2f05b59de34da9b523dff8be42e5e38e818c82fdb0bae774387a724838360405161322f929190615747565b60405180910390a250505b600073ffffffffffffffffffffffffffffffffffffffff168273ffffffffffffffffffffffffffffffffffffffff1614613313576000806132bc60cd60008673ffffffffffffffffffffffffffffffffffffffff1673ffffffffffffffffffffffffffffffffffffffff16815260200190815260200160002061348f85612d6d565b915091508373ffffffffffffffffffffffffffffffffffffffff167fdec2bacdd2f05b59de34da9b523dff8be42e5e38e818c82fdb0bae774387a7248383604051613308929190615747565b60405180910390a250505b5b505050565b600073ffffffffffffffffffffffffffffffffffffffff168273ffffffffffffffffffffffffffffffffffffffff1603613388576040517f08c379a000000000000000000000000000000000000000000000000000000000815260040161337f906157bc565b60405180910390fd5b6133946000838361396f565b80603560008282546133a6919061490c565b9250508190555080603360008473ffffffffffffffffffffffffffffffffffffffff1673ffffffffffffffffffffffffffffffffffffffff16815260200190815260200160002060008282546133fc919061490c565b925050819055508173ffffffffffffffffffffffffffffffffffffffff16600073ffffffffffffffffffffffffffffffffffffffff167fddf252ad1be2c89b69c2b068fc378daa952ba7f163c4a11628f55a4df523b3ef836040516134619190613db0565b60405180910390a361347560008383613974565b5050565b60006bffffffffffffffffffffffff8016905090565b6000818361349d919061490c565b905092915050565b600082826040516020016134ba929190615854565b60405160208183030381529060405280519060200120905092915050565b6000807f7fffffffffffffffffffffffffffffff5d576e7357a4501ddfe92f46681b20a08360001c11156135135760006003915091506135db565b601b8560ff161415801561352b5750601c8560ff1614155b1561353d5760006004915091506135db565b600060018787878760405160008152602001604052604051613562949392919061588b565b6020604051602081039080840390855afa158015613584573d6000803e3d6000fd5b505050602060405103519050600073ffffffffffffffffffffffffffffffffffffffff168173ffffffffffffffffffffffffffffffffffffffff16036135d2576000600192509250506135db565b80600092509250505b94509492505050565b600060048111156135f8576135f76158d0565b5b81600481111561360b5761360a6158d0565b5b03156137ad5760016004811115613625576136246158d0565b5b816004811115613638576136376158d0565b5b03613678576040517f08c379a000000000000000000000000000000000000000000000000000000000815260040161366f9061594b565b60405180910390fd5b6002600481111561368c5761368b6158d0565b5b81600481111561369f5761369e6158d0565b5b036136df576040517f08c379a00000000000000000000000000000000000000000000000000000000081526004016136d6906159b7565b60405180910390fd5b600360048111156136f3576136f26158d0565b5b816004811115613706576137056158d0565b5b03613746576040517f08c379a000000000000000000000000000000000000000000000000000000000815260040161373d90615a49565b60405180910390fd5b600480811115613759576137586158d0565b5b81600481111561376c5761376b6158d0565b5b036137ac576040517f08c379a00000000000000000000000000000000000000000000000000000000081526004016137a390615adb565b60405180910390fd5b5b50565b6001816000016000828254019250508190555050565b600060019054906101000a900460ff16613815576040517f08c379a000000000000000000000000000000000000000000000000000000000815260040161380c90615494565b60405180910390fd5b81603690816138249190615ccc565b5080603790816138349190615ccc565b505050565b600060019054906101000a900460ff16613888576040517f08c379a000000000000000000000000000000000000000000000000000000000815260040161387f90615494565b60405180910390fd5b600082805190602001209050600082805190602001209050816065819055508060668190555050505050565b600060019054906101000a900460ff16613903576040517f08c379a00000000000000000000000000000000000000000000000000000000081526004016138fa90615494565b60405180910390fd5b61391361390e612054565b6126d2565b565b600060019054906101000a900460ff16613964576040517f08c379a000000000000000000000000000000000000000000000000000000000815260040161395b90615494565b60405180910390fd5b600161016281905550565b505050565b61397f838383613a22565b61399a61398b84610e8d565b61399484610e8d565b83613120565b505050565b60007bffffffffffffffffffffffffffffffffffffffffffffffffffffffff8016821115613a02576040517f08c379a00000000000000000000000000000000000000000000000000000000081526004016139f990615e10565b60405180910390fd5b819050919050565b6060613a198484600085613a27565b90509392505050565b505050565b606082471015613a6c576040517f08c379a0000000000000000000000000000000000000000000000000000000008152600401613a6390615ea2565b60405180910390fd5b613a75856129bc565b613ab4576040517f08c379a0000000000000000000000000000000000000000000000000000000008152600401613aab90615f0e565b60405180910390fd5b6000808673ffffffffffffffffffffffffffffffffffffffff168587604051613add9190615f75565b60006040518083038185875af1925050503d8060008114613b1a576040519150601f19603f3d011682016040523d82523d6000602084013e613b1f565b606091505b5091509150613b2f828286613b3b565b92505050949350505050565b60608315613b4b57829050613b9b565b600083511115613b5e5782518084602001fd5b816040517f08c379a0000000000000000000000000000000000000000000000000000000008152600401613b929190613c70565b60405180910390fd5b9392505050565b6040518060400160405280600063ffffffff16815260200160007bffffffffffffffffffffffffffffffffffffffffffffffffffffffff1681525090565b600081519050919050565b600082825260208201905092915050565b60005b83811015613c1a578082015181840152602081019050613bff565b60008484015250505050565b6000601f19601f8301169050919050565b6000613c4282613be0565b613c4c8185613beb565b9350613c5c818560208601613bfc565b613c6581613c26565b840191505092915050565b60006020820190508181036000830152613c8a8184613c37565b905092915050565b600080fd5b600073ffffffffffffffffffffffffffffffffffffffff82169050919050565b6000613cc282613c97565b9050919050565b613cd281613cb7565b8114613cdd57600080fd5b50565b600081359050613cef81613cc9565b92915050565b6000819050919050565b613d0881613cf5565b8114613d1357600080fd5b50565b600081359050613d2581613cff565b92915050565b60008060408385031215613d4257613d41613c92565b5b6000613d5085828601613ce0565b9250506020613d6185828601613d16565b9150509250929050565b60008115159050919050565b613d8081613d6b565b82525050565b6000602082019050613d9b6000830184613d77565b92915050565b613daa81613cf5565b82525050565b6000602082019050613dc56000830184613da1565b92915050565b600060208284031215613de157613de0613c92565b5b6000613def84828501613d16565b91505092915050565b600080600060608486031215613e1157613e10613c92565b5b6000613e1f86828701613ce0565b9350506020613e3086828701613ce0565b9250506040613e4186828701613d16565b9150509250925092565b600061ffff82169050919050565b613e6281613e4b565b8114613e6d57600080fd5b50565b600081359050613e7f81613e59565b92915050565b600060208284031215613e9b57613e9a613c92565b5b6000613ea984828501613e70565b91505092915050565b600060ff82169050919050565b613ec881613eb2565b82525050565b6000602082019050613ee36000830184613ebf565b92915050565b6000819050919050565b613efc81613ee9565b82525050565b6000602082019050613f176000830184613ef3565b92915050565b600077ffffffffffffffffffffffffffffffffffffffffffffffff82169050919050565b613f4a81613f1d565b82525050565b6000602082019050613f656000830184613f41565b92915050565b600060208284031215613f8157613f80613c92565b5b6000613f8f84828501613ce0565b91505092915050565b613fa181613cb7565b82525050565b6000602082019050613fbc6000830184613f98565b92915050565b600063ffffffff82169050919050565b613fdb81613fc2565b82525050565b6000602082019050613ff66000830184613fd2565b92915050565b6000819050919050565b600061402161401c61401784613c97565b613ffc565b613c97565b9050919050565b600061403382614006565b9050919050565b600061404582614028565b9050919050565b6140558161403a565b82525050565b6000602082019050614070600083018461404c565b92915050565b60006bffffffffffffffffffffffff82169050919050565b61409781614076565b82525050565b60006020820190506140b2600083018461408e565b92915050565b60006fffffffffffffffffffffffffffffffff82169050919050565b6140dd816140b8565b81146140e857600080fd5b50565b6000813590506140fa816140d4565b92915050565b60006020828403121561411657614115613c92565b5b6000614124848285016140eb565b91505092915050565b61413681613e4b565b82525050565b6000602082019050614151600083018461412d565b92915050565b61416081613eb2565b811461416b57600080fd5b50565b60008135905061417d81614157565b92915050565b61418c81613ee9565b811461419757600080fd5b50565b6000813590506141a981614183565b92915050565b60008060008060008060c087890312156141cc576141cb613c92565b5b60006141da89828a01613ce0565b96505060206141eb89828a01613d16565b95505060406141fc89828a01613d16565b945050606061420d89828a0161416e565b935050608061421e89828a0161419a565b92505060a061422f89828a0161419a565b9150509295509295509295565b614245816140b8565b82525050565b600065ffffffffffff82169050919050565b6142668161424b565b82525050565b600060c0820190506142816000830189613d77565b61428e602083018861423c565b61429b604083018761425d565b6142a8606083018661412d565b6142b5608083018561412d565b6142c260a0830184613f41565b979650505050505050565b600080600080600080600060e0888a0312156142ec576142eb613c92565b5b60006142fa8a828b01613ce0565b975050602061430b8a828b01613ce0565b965050604061431c8a828b01613d16565b955050606061432d8a828b01613d16565b945050608061433e8a828b0161416e565b93505060a061434f8a828b0161419a565b92505060c06143608a828b0161419a565b91505092959891949750929550565b6000806040838503121561438657614385613c92565b5b600061439485828601613ce0565b92505060206143a585828601613ce0565b9150509250929050565b60006143ba82613cb7565b9050919050565b6143ca816143af565b81146143d557600080fd5b50565b6000813590506143e7816143c1565b92915050565b6000806000806080858703121561440757614406613c92565b5b6000614415878288016143d8565b945050602061442687828801613e70565b935050604061443787828801613e70565b925050606061444887828801613ce0565b91505092959194509250565b61445d81613fc2565b811461446857600080fd5b50565b60008135905061447a81614454565b92915050565b6000806040838503121561449757614496613c92565b5b60006144a585828601613ce0565b92505060206144b68582860161446b565b9150509250929050565b6144c981613fc2565b82525050565b60007bffffffffffffffffffffffffffffffffffffffffffffffffffffffff82169050919050565b614500816144cf565b82525050565b60408201600082015161451c60008501826144c0565b50602082015161452f60208501826144f7565b50505050565b600060408201905061454a6000830184614506565b92915050565b7f4e487b7100000000000000000000000000000000000000000000000000000000600052602260045260246000fd5b6000600282049050600182168061459757607f821691505b6020821081036145aa576145a9614550565b5b50919050565b7f5265656e7472616e637947756172643a207265656e7472616e742063616c6c00600082015250565b60006145e6601f83613beb565b91506145f1826145b0565b602082019050919050565b60006020820190508181036000830152614615816145d9565b9050919050565b7f43796265724172656e615374616b696e673a20696e76616c696420696e646578600082015250565b6000614652602083613beb565b915061465d8261461c565b602082019050919050565b6000602082019050818103600083015261468181614645565b9050919050565b7f4e487b7100000000000000000000000000000000000000000000000000000000600052603260045260246000fd5b7f43796265724172656e615374616b696e673a20756e7374616b656420616c726560008201527f6164790000000000000000000000000000000000000000000000000000000000602082015250565b6000614713602383613beb565b915061471e826146b7565b604082019050919050565b6000602082019050818103600083015261474281614706565b9050919050565b7f4e487b7100000000000000000000000000000000000000000000000000000000600052601160045260246000fd5b600061478382613f1d565b915061478e83613f1d565b9250828203905077ffffffffffffffffffffffffffffffffffffffffffffffff8111156147be576147bd614749565b5b92915050565b60006147cf8261424b565b91506147da8361424b565b92508282026147e88161424b565b91508082146147fa576147f9614749565b5b5092915050565b600061480c8261424b565b91506148178361424b565b9250828201905065ffffffffffff81111561483557614834614749565b5b92915050565b6000614846826140b8565b9150614851836140b8565b925082820261485f816140b8565b915080821461487157614870614749565b5b5092915050565b7f4e487b7100000000000000000000000000000000000000000000000000000000600052601260045260246000fd5b60006148b2826140b8565b91506148bd836140b8565b9250826148cd576148cc614878565b5b828204905092915050565b60006148e382613cf5565b91506148ee83613cf5565b925082820390508181111561490657614905614749565b5b92915050565b600061491782613cf5565b915061492283613cf5565b925082820190508082111561493a57614939614749565b5b92915050565b7f4552433230566f7465733a20626c6f636b206e6f7420796574206d696e656400600082015250565b6000614976601f83613beb565b915061498182614940565b602082019050919050565b600060208201905081810360008301526149a581614969565b9050919050565b60006149b782613f1d565b91506149c283613f1d565b9250828201905077ffffffffffffffffffffffffffffffffffffffffffffffff8111156149f2576149f1614749565b5b92915050565b7f45524332303a2064656372656173656420616c6c6f77616e63652062656c6f7760008201527f207a65726f000000000000000000000000000000000000000000000000000000602082015250565b6000614a54602583613beb565b9150614a5f826149f8565b604082019050919050565b60006020820190508181036000830152614a8381614a47565b9050919050565b7f4552433230566f7465733a207369676e61747572652065787069726564000000600082015250565b6000614ac0601d83613beb565b9150614acb82614a8a565b602082019050919050565b60006020820190508181036000830152614aef81614ab3565b9050919050565b6000608082019050614b0b6000830187613ef3565b614b186020830186613f98565b614b256040830185613da1565b614b326060830184613da1565b95945050505050565b7f4552433230566f7465733a20696e76616c6964206e6f6e636500000000000000600082015250565b6000614b71601983613beb565b9150614b7c82614b3b565b602082019050919050565b60006020820190508181036000830152614ba081614b64565b9050919050565b7f45524332305065726d69743a206578706972656420646561646c696e65000000600082015250565b6000614bdd601d83613beb565b9150614be882614ba7565b602082019050919050565b60006020820190508181036000830152614c0c81614bd0565b9050919050565b600060c082019050614c286000830189613ef3565b614c356020830188613f98565b614c426040830187613f98565b614c4f6060830186613da1565b614c5c6080830185613da1565b614c6960a0830184613da1565b979650505050505050565b7f45524332305065726d69743a20696e76616c6964207369676e61747572650000600082015250565b6000614caa601e83613beb565b9150614cb582614c74565b602082019050919050565b60006020820190508181036000830152614cd981614c9d565b9050919050565b7f496e697469616c697a61626c653a20636f6e747261637420697320616c72656160008201527f647920696e697469616c697a6564000000000000000000000000000000000000602082015250565b6000614d3c602e83613beb565b9150614d4782614ce0565b604082019050919050565b60006020820190508181036000830152614d6b81614d2f565b9050919050565b7f43796265724172656e615374616b696e673a207374616b696e6720746f6b656e60008201527f20697320746865207a65726f2061646472657373000000000000000000000000602082015250565b6000614dce603483613beb565b9150614dd982614d72565b604082019050919050565b60006020820190508181036000830152614dfd81614dc1565b9050919050565b7f43796265724172656e615374616b696e673a207472656173757279206973207460008201527f6865207a65726f20616464726573730000000000000000000000000000000000602082015250565b6000614e60602f83613beb565b9150614e6b82614e04565b604082019050919050565b60006020820190508181036000830152614e8f81614e53565b9050919050565b6000819050919050565b6000614ebb614eb6614eb184614e96565b613ffc565b613eb2565b9050919050565b614ecb81614ea0565b82525050565b6000602082019050614ee66000830184614ec2565b92915050565b7f4f776e61626c653a206e6577206f776e657220697320746865207a65726f206160008201527f6464726573730000000000000000000000000000000000000000000000000000602082015250565b6000614f48602683613beb565b9150614f5382614eec565b604082019050919050565b60006020820190508181036000830152614f7781614f3b565b9050919050565b7f45524332303a20617070726f76652066726f6d20746865207a65726f2061646460008201527f7265737300000000000000000000000000000000000000000000000000000000602082015250565b6000614fda602483613beb565b9150614fe582614f7e565b604082019050919050565b6000602082019050818103600083015261500981614fcd565b9050919050565b7f45524332303a20617070726f766520746f20746865207a65726f20616464726560008201527f7373000000000000000000000000000000000000000000000000000000000000602082015250565b600061506c602283613beb565b915061507782615010565b604082019050919050565b6000602082019050818103600083015261509b8161505f565b9050919050565b7f45524332303a20696e73756666696369656e7420616c6c6f77616e6365000000600082015250565b60006150d8601d83613beb565b91506150e3826150a2565b602082019050919050565b60006020820190508181036000830152615107816150cb565b9050919050565b7f43796265724172656e615374616b696e673a204e4f4e5f5452414e534645524160008201527f424c450000000000000000000000000000000000000000000000000000000000602082015250565b600061516a602383613beb565b91506151758261510e565b604082019050919050565b600060208201905081810360008301526151998161515d565b9050919050565b7f4f776e61626c653a2063616c6c6572206973206e6f7420746865206f776e6572600082015250565b60006151d6602083613beb565b91506151e1826151a0565b602082019050919050565b60006020820190508181036000830152615205816151c9565b9050919050565b60006040820190506152216000830185613f98565b61522e6020830184613da1565b9392505050565b7f53616665436173743a2076616c756520646f65736e27742066697420696e203360008201527f3220626974730000000000000000000000000000000000000000000000000000602082015250565b6000615291602683613beb565b915061529c82615235565b604082019050919050565b600060208201905081810360008301526152c081615284565b9050919050565b7f53616665436173743a2076616c756520646f65736e27742066697420696e203960008201527f3620626974730000000000000000000000000000000000000000000000000000602082015250565b6000615323602683613beb565b915061532e826152c7565b604082019050919050565b6000602082019050818103600083015261535281615316565b9050919050565b600060608201905061536e6000830186613f98565b61537b6020830185613f98565b6153886040830184613da1565b949350505050565b7f4552433230566f7465733a20746f74616c20737570706c79207269736b73206f60008201527f766572666c6f77696e6720766f74657300000000000000000000000000000000602082015250565b60006153ec603083613beb565b91506153f782615390565b604082019050919050565b6000602082019050818103600083015261541b816153df565b9050919050565b7f496e697469616c697a61626c653a20636f6e7472616374206973206e6f74206960008201527f6e697469616c697a696e67000000000000000000000000000000000000000000602082015250565b600061547e602b83613beb565b915061548982615422565b604082019050919050565b600060208201905081810360008301526154ad81615471565b9050919050565b7f45524332303a206275726e2066726f6d20746865207a65726f2061646472657360008201527f7300000000000000000000000000000000000000000000000000000000000000602082015250565b6000615510602183613beb565b915061551b826154b4565b604082019050919050565b6000602082019050818103600083015261553f81615503565b9050919050565b7f45524332303a206275726e20616d6f756e7420657863656564732062616c616e60008201527f6365000000000000000000000000000000000000000000000000000000000000602082015250565b60006155a2602283613beb565b91506155ad82615546565b604082019050919050565b600060208201905081810360008301526155d181615595565b9050919050565b6155e181613d6b565b81146155ec57600080fd5b50565b6000815190506155fe816155d8565b92915050565b60006020828403121561561a57615619613c92565b5b6000615628848285016155ef565b91505092915050565b7f5361666545524332303a204552433230206f7065726174696f6e20646964206e60008201527f6f74207375636365656400000000000000000000000000000000000000000000602082015250565b600061568d602a83613beb565b915061569882615631565b604082019050919050565b600060208201905081810360008301526156bc81615680565b9050919050565b600060a0820190506156d86000830188613ef3565b6156e56020830187613ef3565b6156f26040830186613ef3565b6156ff6060830185613da1565b61570c6080830184613f98565b9695505050505050565b600061572182613cf5565b915061572c83613cf5565b92508261573c5761573b614878565b5b828204905092915050565b600060408201905061575c6000830185613da1565b6157696020830184613da1565b9392505050565b7f45524332303a206d696e7420746f20746865207a65726f206164647265737300600082015250565b60006157a6601f83613beb565b91506157b182615770565b602082019050919050565b600060208201905081810360008301526157d581615799565b9050919050565b600081905092915050565b7f1901000000000000000000000000000000000000000000000000000000000000600082015250565b600061581d6002836157dc565b9150615828826157e7565b600282019050919050565b6000819050919050565b61584e61584982613ee9565b615833565b82525050565b600061585f82615810565b915061586b828561583d565b60208201915061587b828461583d565b6020820191508190509392505050565b60006080820190506158a06000830187613ef3565b6158ad6020830186613ebf565b6158ba6040830185613ef3565b6158c76060830184613ef3565b95945050505050565b7f4e487b7100000000000000000000000000000000000000000000000000000000600052602160045260246000fd5b7f45434453413a20696e76616c6964207369676e61747572650000000000000000600082015250565b6000615935601883613beb565b9150615940826158ff565b602082019050919050565b6000602082019050818103600083015261596481615928565b9050919050565b7f45434453413a20696e76616c6964207369676e6174757265206c656e67746800600082015250565b60006159a1601f83613beb565b91506159ac8261596b565b602082019050919050565b600060208201905081810360008301526159d081615994565b9050919050565b7f45434453413a20696e76616c6964207369676e6174757265202773272076616c60008201527f7565000000000000000000000000000000000000000000000000000000000000602082015250565b6000615a33602283613beb565b9150615a3e826159d7565b604082019050919050565b60006020820190508181036000830152615a6281615a26565b9050919050565b7f45434453413a20696e76616c6964207369676e6174757265202776272076616c60008201527f7565000000000000000000000000000000000000000000000000000000000000602082015250565b6000615ac5602283613beb565b9150615ad082615a69565b604082019050919050565b60006020820190508181036000830152615af481615ab8565b9050919050565b7f4e487b7100000000000000000000000000000000000000000000000000000000600052604160045260246000fd5b60008190508160005260206000209050919050565b60006020601f8301049050919050565b600082821b905092915050565b600060088302615b8c7fffffffffffffffffffffffffffffffffffffffffffffffffffffffffffffffff82615b4f565b615b968683615b4f565b95508019841693508086168417925050509392505050565b6000615bc9615bc4615bbf84613cf5565b613ffc565b613cf5565b9050919050565b6000819050919050565b615be383615bae565b615bf7615bef82615bd0565b848454615b5c565b825550505050565b600090565b615c0c615bff565b615c17818484615bda565b505050565b5b81811015615c3b57615c30600082615c04565b600181019050615c1d565b5050565b601f821115615c8057615c5181615b2a565b615c5a84615b3f565b81016020851015615c69578190505b615c7d615c7585615b3f565b830182615c1c565b50505b505050565b600082821c905092915050565b6000615ca360001984600802615c85565b1980831691505092915050565b6000615cbc8383615c92565b9150826002028217905092915050565b615cd582613be0565b67ffffffffffffffff811115615cee57615ced615afb565b5b615cf8825461457f565b615d03828285615c3f565b600060209050601f831160018114615d365760008415615d24578287015190505b615d2e8582615cb0565b865550615d96565b601f198416615d4486615b2a565b60005b82811015615d6c57848901518255600182019150602085019450602081019050615d47565b86831015615d895784890151615d85601f891682615c92565b8355505b6001600288020188555050505b505050505050565b7f53616665436173743a2076616c756520646f65736e27742066697420696e203260008201527f3234206269747300000000000000000000000000000000000000000000000000602082015250565b6000615dfa602783613beb565b9150615e0582615d9e565b604082019050919050565b60006020820190508181036000830152615e2981615ded565b9050919050565b7f416464726573733a20696e73756666696369656e742062616c616e636520666f60008201527f722063616c6c0000000000000000000000000000000000000000000000000000602082015250565b6000615e8c602683613beb565b9150615e9782615e30565b604082019050919050565b60006020820190508181036000830152615ebb81615e7f565b9050919050565b7f416464726573733a2063616c6c20746f206e6f6e2d636f6e7472616374000000600082015250565b6000615ef8601d83613beb565b9150615f0382615ec2565b602082019050919050565b60006020820190508181036000830152615f2781615eeb565b9050919050565b600081519050919050565b600081905092915050565b6000615f4f82615f2e565b615f598185615f39565b9350615f69818560208601613bfc565b80840191505092915050565b6000615f818284615f44565b91508190509291505056fea26469706673582212202d21f3cd2f966feac6b2fac3f0945eeb417dc39d53662ac35218337929885c3e64736f6c63430008110033",
  "linkReferences": {},
  "deployedLinkReferences": {}
}