{
  "_format": "hh-sol-artifact-1",
  "contractName": "MockStaking",
  "sourceName": "contracts/MockStaking.sol",
  "abi": [
    {
      "inputs": [
        {
          "internalType": "contract IERC20",
          "name": "_stakingToken",
          "type": "address"
        },
        {
          "internalType": "uint16",
          "name": "_penaltyDays",
          "type": "uint16"
        },
        {
          "internalType": "uint16",
          "name": "_penaltyBP",
          "type": "uint16"
        },
        {
          "internalType": "address",
          "name": "_treasury",
          "type": "address"
        }
      ],
      "stateMutability": "nonpayable",
      "type": "constructor"
    },
    {
      "anonymous": false,
      "inputs": [
        {
          "indexed": true,
          "internalType": "address",
          "name": "owner",
          "type": "address"
        },
        {
          "indexed": true,
          "internalType": "address",
          "name": "spender",
          "type": "address"
        },
        {
          "indexed": false,
          "internalType": "uint256",
          "name": "value",
          "type": "uint256"
        }
      ],
      "name": "Approval",
      "type": "event"
    },
    {
      "anonymous": false,
      "inputs": [
        {
          "indexed": true,
          "internalType": "address",
          "name": "previousOwner",
          "type": "address"
        },
        {
          "indexed": true,
          "internalType": "address",
          "name": "newOwner",
          "type": "address"
        }
      ],
      "name": "OwnershipTransferred",
      "type": "event"
    },
    {
      "anonymous": false,
      "inputs": [
        {
          "indexed": false,
          "internalType": "uint16",
          "name": "penaltyBP",
          "type": "uint16"
        }
      ],
      "name": "SetPenaltyBP",
      "type": "event"
    },
    {
      "anonymous": false,
      "inputs": [
        {
          "indexed": false,
          "internalType": "uint16",
          "name": "penaltyDays",
          "type": "uint16"
        }
      ],
      "name": "SetPenaltyDays",
      "type": "event"
    },
    {
      "anonymous": false,
      "inputs": [
        {
          "indexed": false,
          "internalType": "address",
          "name": "treasury",
          "type": "address"
        }
      ],
      "name": "SetTreasury",
      "type": "event"
    },
    {
      "anonymous": false,
      "inputs": [
        {
          "indexed": true,
          "internalType": "address",
          "name": "from",
          "type": "address"
        },
        {
          "indexed": true,
          "internalType": "address",
          "name": "to",
          "type": "address"
        },
        {
          "indexed": false,
          "internalType": "uint256",
          "name": "value",
          "type": "uint256"
        }
      ],
      "name": "Transfer",
      "type": "event"
    },
    {
      "inputs": [
        {
          "internalType": "address",
          "name": "owner",
          "type": "address"
        },
        {
          "internalType": "address",
          "name": "spender",
          "type": "address"
        }
      ],
      "name": "allowance",
      "outputs": [
        {
          "internalType": "uint256",
          "name": "",
          "type": "uint256"
        }
      ],
      "stateMutability": "view",
      "type": "function"
    },
    {
      "inputs": [
        {
          "internalType": "address",
          "name": "spender",
          "type": "address"
        },
        {
          "internalType": "uint256",
          "name": "amount",
          "type": "uint256"
        }
      ],
      "name": "approve",
      "outputs": [
        {
          "internalType": "bool",
          "name": "",
          "type": "bool"
        }
      ],
      "stateMutability": "nonpayable",
      "type": "function"
    },
    {
      "inputs": [
        {
          "internalType": "address",
          "name": "account",
          "type": "address"
        }
      ],
      "name": "balanceOf",
      "outputs": [
        {
          "internalType": "uint256",
          "name": "",
          "type": "uint256"
        }
      ],
      "stateMutability": "view",
      "type": "function"
    },
    {
      "inputs": [],
      "name": "decimals",
      "outputs": [
        {
          "internalType": "uint8",
          "name": "",
          "type": "uint8"
        }
      ],
      "stateMutability": "view",
      "type": "function"
    },
    {
      "inputs": [
        {
          "internalType": "address",
          "name": "spender",
          "type": "address"
        },
        {
          "internalType": "uint256",
          "name": "subtractedValue",
          "type": "uint256"
        }
      ],
      "name": "decreaseAllowance",
      "outputs": [
        {
          "internalType": "bool",
          "name": "",
          "type": "bool"
        }
      ],
      "stateMutability": "nonpayable",
      "type": "function"
    },
    {
      "inputs": [
        {
          "internalType": "address",
          "name": "spender",
          "type": "address"
        },
        {
          "internalType": "uint256",
          "name": "addedValue",
          "type": "uint256"
        }
      ],
      "name": "increaseAllowance",
      "outputs": [
        {
          "internalType": "bool",
          "name": "",
          "type": "bool"
        }
      ],
      "stateMutability": "nonpayable",
      "type": "function"
    },
    {
      "inputs": [],
      "name": "name",
      "outputs": [
        {
          "internalType": "string",
          "name": "",
          "type": "string"
        }
      ],
      "stateMutability": "view",
      "type": "function"
    },
    {
      "inputs": [],
      "name": "owner",
      "outputs": [
        {
          "internalType": "address",
          "name": "",
          "type": "address"
        }
      ],
      "stateMutability": "view",
      "type": "function"
    },
    {
      "inputs": [],
      "name": "penaltyBP",
      "outputs": [
        {
          "internalType": "uint16",
          "name": "",
          "type": "uint16"
        }
      ],
      "stateMutability": "view",
      "type": "function"
    },
    {
      "inputs": [],
      "name": "penaltyDays",
      "outputs": [
        {
          "internalType": "uint16",
          "name": "",
          "type": "uint16"
        }
      ],
      "stateMutability": "view",
      "type": "function"
    },
    {
      "inputs": [],
      "name": "renounceOwnership",
      "outputs": [],
      "stateMutability": "nonpayable",
      "type": "function"
    },
    {
      "inputs": [
        {
          "internalType": "uint256",
          "name": "_time",
          "type": "uint256"
        }
      ],
      "name": "setCurrentTime",
      "outputs": [],
      "stateMutability": "nonpayable",
      "type": "function"
    },
    {
      "inputs": [
        {
          "internalType": "uint16",
          "name": "_penaltyBP",
          "type": "uint16"
        }
      ],
      "name": "setPenaltyBP",
      "outputs": [],
      "stateMutability": "nonpayable",
      "type": "function"
    },
    {
      "inputs": [
        {
          "internalType": "uint16",
          "name": "_penaltyDays",
          "type": "uint16"
        }
      ],
      "name": "setPenaltyDays",
      "outputs": [],
      "stateMutability": "nonpayable",
      "type": "function"
    },
    {
      "inputs": [
        {
          "internalType": "address",
          "name": "_treasury",
          "type": "address"
        }
      ],
      "name": "setTreasury",
      "outputs": [],
      "stateMutability": "nonpayable",
      "type": "function"
    },
    {
      "inputs": [
        {
          "internalType": "uint128",
          "name": "_amount",
          "type": "uint128"
        }
      ],
      "name": "stake",
      "outputs": [],
      "stateMutability": "nonpayable",
      "type": "function"
    },
    {
      "inputs": [
        {
          "internalType": "address",
          "name": "",
          "type": "address"
        }
      ],
      "name": "stakers",
      "outputs": [
        {
          "internalType": "bool",
          "name": "unstaked",
          "type": "bool"
        },
        {
          "internalType": "uint128",
          "name": "amount",
          "type": "uint128"
        },
        {
          "internalType": "uint48",
          "name": "stakedTimestamp",
          "type": "uint48"
        },
        {
          "internalType": "uint16",
          "name": "penaltyDays",
          "type": "uint16"
        },
        {
          "internalType": "uint16",
          "name": "penaltyBP",
          "type": "uint16"
        },
        {
          "internalType": "uint192",
          "name": "shares",
          "type": "uint192"
        }
      ],
      "stateMutability": "view",
      "type": "function"
    },
    {
      "inputs": [],
      "name": "stakingToken",
      "outputs": [
        {
          "internalType": "contract IERC20",
          "name": "",
          "type": "address"
        }
      ],
      "stateMutability": "view",
      "type": "function"
    },
    {
      "inputs": [],
      "name": "symbol",
      "outputs": [
        {
          "internalType": "string",
          "name": "",
          "type": "string"
        }
      ],
      "stateMutability": "view",
      "type": "function"
    },
    {
      "inputs": [],
      "name": "totalShares",
      "outputs": [
        {
          "internalType": "uint192",
          "name": "",
          "type": "uint192"
        }
      ],
      "stateMutability": "view",
      "type": "function"
    },
    {
      "inputs": [],
      "name": "totalSupply",
      "outputs": [
        {
          "internalType": "uint256",
          "name": "",
          "type": "uint256"
        }
      ],
      "stateMutability": "view",
      "type": "function"
    },
    {
      "inputs": [
        {
          "internalType": "address",
          "name": "to",
          "type": "address"
        },
        {
          "internalType": "uint256",
          "name": "amount",
          "type": "uint256"
        }
      ],
      "name": "transfer",
      "outputs": [
        {
          "internalType": "bool",
          "name": "",
          "type": "bool"
        }
      ],
      "stateMutability": "nonpayable",
      "type": "function"
    },
    {
      "inputs": [
        {
          "internalType": "address",
          "name": "from",
          "type": "address"
        },
        {
          "internalType": "address",
          "name": "to",
          "type": "address"
        },
        {
          "internalType": "uint256",
          "name": "amount",
          "type": "uint256"
        }
      ],
      "name": "transferFrom",
      "outputs": [
        {
          "internalType": "bool",
          "name": "",
          "type": "bool"
        }
      ],
      "stateMutability": "nonpayable",
      "type": "function"
    },
    {
      "inputs": [
        {
          "internalType": "address",
          "name": "newOwner",
          "type": "address"
        }
      ],
      "name": "transferOwnership",
      "outputs": [],
      "stateMutability": "nonpayable",
      "type": "function"
    },
    {
      "inputs": [],
      "name": "treasury",
      "outputs": [
        {
          "internalType": "address",
          "name": "",
          "type": "address"
        }
      ],
      "stateMutability": "view",
      "type": "function"
    },
    {
      "inputs": [],
      "name": "unstake",
      "outputs": [],
      "stateMutability": "nonpayable",
      "type": "function"
    }
  ],
  "bytecode": "0x60806040526000600b553480156200001657600080fd5b5060405162003d0838038062003d0883398181016040528101906200003c919062000464565b838383836040518060400160405280600a81526020017f5374616b656420434154000000000000000000000000000000000000000000008152506040518060400160405280600581526020017f73744341540000000000000000000000000000000000000000000000000000008152508160039081620000bd919062000750565b508060049081620000cf919062000750565b505050620000f2620000e6620002a860201b60201c565b620002b060201b60201c565b6001600681905550600073ffffffffffffffffffffffffffffffffffffffff168473ffffffffffffffffffffffffffffffffffffffff16036200016c576040517f08c379a00000000000000000000000000000000000000000000000000000000081526004016200016390620008be565b60405180910390fd5b600073ffffffffffffffffffffffffffffffffffffffff168173ffffffffffffffffffffffffffffffffffffffff1603620001de576040517f08c379a0000000000000000000000000000000000000000000000000000000008152600401620001d59062000956565b60405180910390fd5b83600760006101000a81548173ffffffffffffffffffffffffffffffffffffffff021916908373ffffffffffffffffffffffffffffffffffffffff16021790555082600960006101000a81548161ffff021916908361ffff16021790555081600960026101000a81548161ffff021916908361ffff16021790555080600960046101000a81548173ffffffffffffffffffffffffffffffffffffffff021916908373ffffffffffffffffffffffffffffffffffffffff160217905550505050505050505062000978565b600033905090565b6000600560009054906101000a900473ffffffffffffffffffffffffffffffffffffffff16905081600560006101000a81548173ffffffffffffffffffffffffffffffffffffffff021916908373ffffffffffffffffffffffffffffffffffffffff1602179055508173ffffffffffffffffffffffffffffffffffffffff168173ffffffffffffffffffffffffffffffffffffffff167f8be0079c531659141344cd1fd0a4f28419497f9722a3daafe3b4186f6b6457e060405160405180910390a35050565b600080fd5b600073ffffffffffffffffffffffffffffffffffffffff82169050919050565b6000620003a8826200037b565b9050919050565b6000620003bc826200039b565b9050919050565b620003ce81620003af565b8114620003da57600080fd5b50565b600081519050620003ee81620003c3565b92915050565b600061ffff82169050919050565b6200040d81620003f4565b81146200041957600080fd5b50565b6000815190506200042d8162000402565b92915050565b6200043e816200039b565b81146200044a57600080fd5b50565b6000815190506200045e8162000433565b92915050565b6000806000806080858703121562000481576200048062000376565b5b60006200049187828801620003dd565b9450506020620004a4878288016200041c565b9350506040620004b7878288016200041c565b9250506060620004ca878288016200044d565b91505092959194509250565b600081519050919050565b7f4e487b7100000000000000000000000000000000000000000000000000000000600052604160045260246000fd5b7f4e487b7100000000000000000000000000000000000000000000000000000000600052602260045260246000fd5b600060028204905060018216806200055857607f821691505b6020821081036200056e576200056d62000510565b5b50919050565b60008190508160005260206000209050919050565b60006020601f8301049050919050565b600082821b905092915050565b600060088302620005d87fffffffffffffffffffffffffffffffffffffffffffffffffffffffffffffffff8262000599565b620005e4868362000599565b95508019841693508086168417925050509392505050565b6000819050919050565b6000819050919050565b6000620006316200062b6200062584620005fc565b62000606565b620005fc565b9050919050565b6000819050919050565b6200064d8362000610565b620006656200065c8262000638565b848454620005a6565b825550505050565b600090565b6200067c6200066d565b6200068981848462000642565b505050565b5b81811015620006b157620006a560008262000672565b6001810190506200068f565b5050565b601f8211156200070057620006ca8162000574565b620006d58462000589565b81016020851015620006e5578190505b620006fd620006f48562000589565b8301826200068e565b50505b505050565b600082821c905092915050565b6000620007256000198460080262000705565b1980831691505092915050565b600062000740838362000712565b9150826002028217905092915050565b6200075b82620004d6565b67ffffffffffffffff811115620007775762000776620004e1565b5b6200078382546200053f565b62000790828285620006b5565b600060209050601f831160018114620007c85760008415620007b3578287015190505b620007bf858262000732565b8655506200082f565b601f198416620007d88662000574565b60005b828110156200080257848901518255600182019150602085019450602081019050620007db565b868310156200082257848901516200081e601f89168262000712565b8355505b6001600288020188555050505b505050505050565b600082825260208201905092915050565b7f43796265724172656e615374616b696e673a207374616b696e6720746f6b656e60008201527f20697320746865207a65726f2061646472657373000000000000000000000000602082015250565b6000620008a660348362000837565b9150620008b38262000848565b604082019050919050565b60006020820190508181036000830152620008d98162000897565b9050919050565b7f43796265724172656e615374616b696e673a207472656173757279206973207460008201527f6865207a65726f20616464726573730000000000000000000000000000000000602082015250565b60006200093e602f8362000837565b91506200094b82620008e0565b604082019050919050565b6000602082019050818103600083015262000971816200092f565b9050919050565b61338080620009886000396000f3fe608060405234801561001057600080fd5b506004361061018e5760003560e01c806372f702f3116100de578063a5582c3e11610097578063dd62ed3e11610071578063dd62ed3e1461047a578063ee2b44e4146104aa578063f0f44260146104c8578063f2fde38b146104e45761018e565b8063a5582c3e14610410578063a9059cbb1461042e578063bacb4c571461045e5761018e565b806372f702f31461033557806388fe2be8146103535780638da5cb5b1461036f5780639168ae721461038d57806395d89b41146103c2578063a457c2d7146103e05761018e565b80632def66201161014b5780633a98ef39116101255780633a98ef39146102bf57806361d027b3146102dd57806370a08231146102fb578063715018a61461032b5761018e565b80632def662014610267578063313ce56714610271578063395093511461028f5761018e565b806306fdde0314610193578063095ea7b3146101b157806318160ddd146101e157806322f8e566146101ff57806323b872dd1461021b5780632932e77a1461024b575b600080fd5b61019b610500565b6040516101a89190611fde565b60405180910390f35b6101cb60048036038101906101c69190612099565b610592565b6040516101d891906120f4565b60405180910390f35b6101e96105b5565b6040516101f6919061211e565b60405180910390f35b61021960048036038101906102149190612139565b6105bf565b005b61023560048036038101906102309190612166565b6105c9565b60405161024291906120f4565b60405180910390f35b610265600480360381019061026091906121f3565b6105f8565b005b61026f61069f565b005b610279610aa5565b604051610286919061223c565b60405180910390f35b6102a960048036038101906102a49190612099565b610aae565b6040516102b691906120f4565b60405180910390f35b6102c7610ae5565b6040516102d4919061228a565b60405180910390f35b6102e5610b0f565b6040516102f291906122b4565b60405180910390f35b610315600480360381019061031091906122cf565b610b35565b604051610322919061211e565b60405180910390f35b610333610b7d565b005b61033d610b91565b60405161034a919061235b565b60405180910390f35b61036d600480360381019061036891906123be565b610bb7565b005b610377610fc4565b60405161038491906122b4565b60405180910390f35b6103a760048036038101906103a291906122cf565b610fee565b6040516103b99695949392919061242a565b60405180910390f35b6103ca6110a5565b6040516103d79190611fde565b60405180910390f35b6103fa60048036038101906103f59190612099565b611137565b60405161040791906120f4565b60405180910390f35b6104186111ae565b604051610425919061248b565b60405180910390f35b61044860048036038101906104439190612099565b6111c2565b60405161045591906120f4565b60405180910390f35b610478600480360381019061047391906121f3565b6111e5565b005b610494600480360381019061048f91906124a6565b61128d565b6040516104a1919061211e565b60405180910390f35b6104b2611314565b6040516104bf919061248b565b60405180910390f35b6104e260048036038101906104dd91906122cf565b611328565b005b6104fe60048036038101906104f991906122cf565b61141a565b005b60606003805461050f90612515565b80601f016020809104026020016040519081016040528092919081815260200182805461053b90612515565b80156105885780601f1061055d57610100808354040283529160200191610588565b820191906000526020600020905b81548152906001019060200180831161056b57829003601f168201915b5050505050905090565b60008061059d61149d565b90506105aa8185856114a5565b600191505092915050565b6000600254905090565b80600b8190555050565b6000806105d461149d565b90506105e185828561166e565b6105ec8585856116fa565b60019150509392505050565b610600611735565b605a8161ffff161115610648576040517f08c379a000000000000000000000000000000000000000000000000000000000815260040161063f906125b8565b60405180910390fd5b80600960006101000a81548161ffff021916908361ffff1602179055507f8c3d05154710d4cda78ff685fd4551d32b2968b7e07cb57b4db352ad1f3713af81604051610694919061248b565b60405180910390a150565b6002600654036106e4576040517f08c379a00000000000000000000000000000000000000000000000000000000081526004016106db90612624565b60405180910390fd5b60026006819055506000600860003373ffffffffffffffffffffffffffffffffffffffff1673ffffffffffffffffffffffffffffffffffffffff168152602001908152602001600020905060008160000160119054906101000a900465ffffffffffff1665ffffffffffff1603610790576040517f08c379a0000000000000000000000000000000000000000000000000000000008152600401610787906126b6565b60405180910390fd5b8060000160009054906101000a900460ff16156107e2576040517f08c379a00000000000000000000000000000000000000000000000000000000081526004016107d990612748565b60405180910390fd5b61081e338260000160019054906101000a90046fffffffffffffffffffffffffffffffff166fffffffffffffffffffffffffffffffff166117b3565b8060010160009054906101000a900477ffffffffffffffffffffffffffffffffffffffffffffffff16600a60008282829054906101000a900477ffffffffffffffffffffffffffffffffffffffffffffffff1661087b9190612797565b92506101000a81548177ffffffffffffffffffffffffffffffffffffffffffffffff021916908377ffffffffffffffffffffffffffffffffffffffffffffffff16021790555060018160000160006101000a81548160ff02191690831515021790555060006108e8611989565b620151808360000160179054906101000a900461ffff1661ffff1661090d91906127e3565b8360000160119054906101000a900465ffffffffffff1661092e9190612820565b65ffffffffffff161115610a0f576127108260000160199054906101000a900461ffff1661ffff168360000160019054906101000a90046fffffffffffffffffffffffffffffffff16610981919061285a565b61098b91906128c6565b6fffffffffffffffffffffffffffffffff169050610a0e600960049054906101000a900473ffffffffffffffffffffffffffffffffffffffff1682600760009054906101000a900473ffffffffffffffffffffffffffffffffffffffff1673ffffffffffffffffffffffffffffffffffffffff166119939092919063ffffffff16565b5b610a9933828460000160019054906101000a90046fffffffffffffffffffffffffffffffff166fffffffffffffffffffffffffffffffff16610a5191906128f7565b600760009054906101000a900473ffffffffffffffffffffffffffffffffffffffff1673ffffffffffffffffffffffffffffffffffffffff166119939092919063ffffffff16565b50506001600681905550565b60006012905090565b600080610ab961149d565b9050610ada818585610acb858961128d565b610ad5919061292b565b6114a5565b600191505092915050565b600a60009054906101000a900477ffffffffffffffffffffffffffffffffffffffffffffffff1681565b600960049054906101000a900473ffffffffffffffffffffffffffffffffffffffff1681565b60008060008373ffffffffffffffffffffffffffffffffffffffff1673ffffffffffffffffffffffffffffffffffffffff168152602001908152602001600020549050919050565b610b85611735565b610b8f6000611a19565b565b600760009054906101000a900473ffffffffffffffffffffffffffffffffffffffff1681565b600260065403610bfc576040517f08c379a0000000000000000000000000000000000000000000000000000000008152600401610bf390612624565b60405180910390fd5b60026006819055506000600860003373ffffffffffffffffffffffffffffffffffffffff1673ffffffffffffffffffffffffffffffffffffffff168152602001908152602001600020905060008160000160119054906101000a900465ffffffffffff1665ffffffffffff1614610ca8576040517f08c379a0000000000000000000000000000000000000000000000000000000008152600401610c9f906129d1565b60405180910390fd5b610d093330846fffffffffffffffffffffffffffffffff16600760009054906101000a900473ffffffffffffffffffffffffffffffffffffffff1673ffffffffffffffffffffffffffffffffffffffff16611adf909392919063ffffffff16565b610d2533836fffffffffffffffffffffffffffffffff16611b68565b816fffffffffffffffffffffffffffffffff16600a60008282829054906101000a900477ffffffffffffffffffffffffffffffffffffffffffffffff16610d6c91906129f1565b92506101000a81548177ffffffffffffffffffffffffffffffffffffffffffffffff021916908377ffffffffffffffffffffffffffffffffffffffffffffffff1602179055506040518060c00160405280600015158152602001836fffffffffffffffffffffffffffffffff168152602001610de6611989565b65ffffffffffff168152602001600960009054906101000a900461ffff1661ffff168152602001600960029054906101000a900461ffff1661ffff168152602001836fffffffffffffffffffffffffffffffff1677ffffffffffffffffffffffffffffffffffffffffffffffff16815250600860003373ffffffffffffffffffffffffffffffffffffffff1673ffffffffffffffffffffffffffffffffffffffff16815260200190815260200160002060008201518160000160006101000a81548160ff02191690831515021790555060208201518160000160016101000a8154816fffffffffffffffffffffffffffffffff02191690836fffffffffffffffffffffffffffffffff16021790555060408201518160000160116101000a81548165ffffffffffff021916908365ffffffffffff16021790555060608201518160000160176101000a81548161ffff021916908361ffff16021790555060808201518160000160196101000a81548161ffff021916908361ffff16021790555060a08201518160010160006101000a81548177ffffffffffffffffffffffffffffffffffffffffffffffff021916908377ffffffffffffffffffffffffffffffffffffffffffffffff16021790555090505050600160068190555050565b6000600560009054906101000a900473ffffffffffffffffffffffffffffffffffffffff16905090565b60086020528060005260406000206000915090508060000160009054906101000a900460ff16908060000160019054906101000a90046fffffffffffffffffffffffffffffffff16908060000160119054906101000a900465ffffffffffff16908060000160179054906101000a900461ffff16908060000160199054906101000a900461ffff16908060010160009054906101000a900477ffffffffffffffffffffffffffffffffffffffffffffffff16905086565b6060600480546110b490612515565b80601f01602080910402602001604051908101604052809291908181526020018280546110e090612515565b801561112d5780601f106111025761010080835404028352916020019161112d565b820191906000526020600020905b81548152906001019060200180831161111057829003601f168201915b5050505050905090565b60008061114261149d565b90506000611150828661128d565b905083811015611195576040517f08c379a000000000000000000000000000000000000000000000000000000000815260040161118c90612aaf565b60405180910390fd5b6111a282868684036114a5565b60019250505092915050565b600960029054906101000a900461ffff1681565b6000806111cd61149d565b90506111da8185856116fa565b600191505092915050565b6111ed611735565b6127108161ffff161115611236576040517f08c379a000000000000000000000000000000000000000000000000000000000815260040161122d90612b41565b60405180910390fd5b80600960026101000a81548161ffff021916908361ffff1602179055507f49df4ae990079b53e42ad090f1fc5b7311dd70675bccd49294082a2ed78d619481604051611282919061248b565b60405180910390a150565b6000600160008473ffffffffffffffffffffffffffffffffffffffff1673ffffffffffffffffffffffffffffffffffffffff16815260200190815260200160002060008373ffffffffffffffffffffffffffffffffffffffff1673ffffffffffffffffffffffffffffffffffffffff16815260200190815260200160002054905092915050565b600960009054906101000a900461ffff1681565b611330611735565b600073ffffffffffffffffffffffffffffffffffffffff168173ffffffffffffffffffffffffffffffffffffffff160361139f576040517f08c379a000000000000000000000000000000000000000000000000000000000815260040161139690612bd3565b60405180910390fd5b80600960046101000a81548173ffffffffffffffffffffffffffffffffffffffff021916908373ffffffffffffffffffffffffffffffffffffffff1602179055507fcb7ef3e545f5cdb893f5c568ba710fe08f336375a2d9fd66e161033f8fc09ef38160405161140f91906122b4565b60405180910390a150565b611422611735565b600073ffffffffffffffffffffffffffffffffffffffff168173ffffffffffffffffffffffffffffffffffffffff1603611491576040517f08c379a000000000000000000000000000000000000000000000000000000000815260040161148890612c65565b60405180910390fd5b61149a81611a19565b50565b600033905090565b600073ffffffffffffffffffffffffffffffffffffffff168373ffffffffffffffffffffffffffffffffffffffff1603611514576040517f08c379a000000000000000000000000000000000000000000000000000000000815260040161150b90612cf7565b60405180910390fd5b600073ffffffffffffffffffffffffffffffffffffffff168273ffffffffffffffffffffffffffffffffffffffff1603611583576040517f08c379a000000000000000000000000000000000000000000000000000000000815260040161157a90612d89565b60405180910390fd5b80600160008573ffffffffffffffffffffffffffffffffffffffff1673ffffffffffffffffffffffffffffffffffffffff16815260200190815260200160002060008473ffffffffffffffffffffffffffffffffffffffff1673ffffffffffffffffffffffffffffffffffffffff168152602001908152602001600020819055508173ffffffffffffffffffffffffffffffffffffffff168373ffffffffffffffffffffffffffffffffffffffff167f8c5be1e5ebec7d5bd14f71427d1e84f3dd0314c0f7b2291e5b200ac8c7c3b92583604051611661919061211e565b60405180910390a3505050565b600061167a848461128d565b90507fffffffffffffffffffffffffffffffffffffffffffffffffffffffffffffffff81146116f457818110156116e6576040517f08c379a00000000000000000000000000000000000000000000000000000000081526004016116dd90612df5565b60405180910390fd5b6116f384848484036114a5565b5b50505050565b6040517f08c379a000000000000000000000000000000000000000000000000000000000815260040161172c90612e87565b60405180910390fd5b61173d61149d565b73ffffffffffffffffffffffffffffffffffffffff1661175b610fc4565b73ffffffffffffffffffffffffffffffffffffffff16146117b1576040517f08c379a00000000000000000000000000000000000000000000000000000000081526004016117a890612ef3565b60405180910390fd5b565b600073ffffffffffffffffffffffffffffffffffffffff168273ffffffffffffffffffffffffffffffffffffffff1603611822576040517f08c379a000000000000000000000000000000000000000000000000000000000815260040161181990612f85565b60405180910390fd5b61182e82600083611cc7565b60008060008473ffffffffffffffffffffffffffffffffffffffff1673ffffffffffffffffffffffffffffffffffffffff168152602001908152602001600020549050818110156118b4576040517f08c379a00000000000000000000000000000000000000000000000000000000081526004016118ab90613017565b60405180910390fd5b8181036000808573ffffffffffffffffffffffffffffffffffffffff1673ffffffffffffffffffffffffffffffffffffffff16815260200190815260200160002081905550816002600082825461190b91906128f7565b92505081905550600073ffffffffffffffffffffffffffffffffffffffff168373ffffffffffffffffffffffffffffffffffffffff167fddf252ad1be2c89b69c2b068fc378daa952ba7f163c4a11628f55a4df523b3ef84604051611970919061211e565b60405180910390a361198483600084611ccc565b505050565b6000600b54905090565b611a148363a9059cbb60e01b84846040516024016119b2929190613037565b604051602081830303815290604052907bffffffffffffffffffffffffffffffffffffffffffffffffffffffff19166020820180517bffffffffffffffffffffffffffffffffffffffffffffffffffffffff8381831617835250505050611cd1565b505050565b6000600560009054906101000a900473ffffffffffffffffffffffffffffffffffffffff16905081600560006101000a81548173ffffffffffffffffffffffffffffffffffffffff021916908373ffffffffffffffffffffffffffffffffffffffff1602179055508173ffffffffffffffffffffffffffffffffffffffff168173ffffffffffffffffffffffffffffffffffffffff167f8be0079c531659141344cd1fd0a4f28419497f9722a3daafe3b4186f6b6457e060405160405180910390a35050565b611b62846323b872dd60e01b858585604051602401611b0093929190613060565b604051602081830303815290604052907bffffffffffffffffffffffffffffffffffffffffffffffffffffffff19166020820180517bffffffffffffffffffffffffffffffffffffffffffffffffffffffff8381831617835250505050611cd1565b50505050565b600073ffffffffffffffffffffffffffffffffffffffff168273ffffffffffffffffffffffffffffffffffffffff1603611bd7576040517f08c379a0000000000000000000000000000000000000000000000000000000008152600401611bce906130e3565b60405180910390fd5b611be360008383611cc7565b8060026000828254611bf5919061292b565b92505081905550806000808473ffffffffffffffffffffffffffffffffffffffff1673ffffffffffffffffffffffffffffffffffffffff1681526020019081526020016000206000828254611c4a919061292b565b925050819055508173ffffffffffffffffffffffffffffffffffffffff16600073ffffffffffffffffffffffffffffffffffffffff167fddf252ad1be2c89b69c2b068fc378daa952ba7f163c4a11628f55a4df523b3ef83604051611caf919061211e565b60405180910390a3611cc360008383611ccc565b5050565b505050565b505050565b6000611d33826040518060400160405280602081526020017f5361666545524332303a206c6f772d6c6576656c2063616c6c206661696c65648152508573ffffffffffffffffffffffffffffffffffffffff16611d989092919063ffffffff16565b9050600081511115611d935780806020019051810190611d53919061312f565b611d92576040517f08c379a0000000000000000000000000000000000000000000000000000000008152600401611d89906131ce565b60405180910390fd5b5b505050565b6060611da78484600085611db0565b90509392505050565b606082471015611df5576040517f08c379a0000000000000000000000000000000000000000000000000000000008152600401611dec90613260565b60405180910390fd5b611dfe85611ec4565b611e3d576040517f08c379a0000000000000000000000000000000000000000000000000000000008152600401611e34906132cc565b60405180910390fd5b6000808673ffffffffffffffffffffffffffffffffffffffff168587604051611e669190613333565b60006040518083038185875af1925050503d8060008114611ea3576040519150601f19603f3d011682016040523d82523d6000602084013e611ea8565b606091505b5091509150611eb8828286611ee7565b92505050949350505050565b6000808273ffffffffffffffffffffffffffffffffffffffff163b119050919050565b60608315611ef757829050611f47565b600083511115611f0a5782518084602001fd5b816040517f08c379a0000000000000000000000000000000000000000000000000000000008152600401611f3e9190611fde565b60405180910390fd5b9392505050565b600081519050919050565b600082825260208201905092915050565b60005b83811015611f88578082015181840152602081019050611f6d565b60008484015250505050565b6000601f19601f8301169050919050565b6000611fb082611f4e565b611fba8185611f59565b9350611fca818560208601611f6a565b611fd381611f94565b840191505092915050565b60006020820190508181036000830152611ff88184611fa5565b905092915050565b600080fd5b600073ffffffffffffffffffffffffffffffffffffffff82169050919050565b600061203082612005565b9050919050565b61204081612025565b811461204b57600080fd5b50565b60008135905061205d81612037565b92915050565b6000819050919050565b61207681612063565b811461208157600080fd5b50565b6000813590506120938161206d565b92915050565b600080604083850312156120b0576120af612000565b5b60006120be8582860161204e565b92505060206120cf85828601612084565b9150509250929050565b60008115159050919050565b6120ee816120d9565b82525050565b600060208201905061210960008301846120e5565b92915050565b61211881612063565b82525050565b6000602082019050612133600083018461210f565b92915050565b60006020828403121561214f5761214e612000565b5b600061215d84828501612084565b91505092915050565b60008060006060848603121561217f5761217e612000565b5b600061218d8682870161204e565b935050602061219e8682870161204e565b92505060406121af86828701612084565b9150509250925092565b600061ffff82169050919050565b6121d0816121b9565b81146121db57600080fd5b50565b6000813590506121ed816121c7565b92915050565b60006020828403121561220957612208612000565b5b6000612217848285016121de565b91505092915050565b600060ff82169050919050565b61223681612220565b82525050565b6000602082019050612251600083018461222d565b92915050565b600077ffffffffffffffffffffffffffffffffffffffffffffffff82169050919050565b61228481612257565b82525050565b600060208201905061229f600083018461227b565b92915050565b6122ae81612025565b82525050565b60006020820190506122c960008301846122a5565b92915050565b6000602082840312156122e5576122e4612000565b5b60006122f38482850161204e565b91505092915050565b6000819050919050565b600061232161231c61231784612005565b6122fc565b612005565b9050919050565b600061233382612306565b9050919050565b600061234582612328565b9050919050565b6123558161233a565b82525050565b6000602082019050612370600083018461234c565b92915050565b60006fffffffffffffffffffffffffffffffff82169050919050565b61239b81612376565b81146123a657600080fd5b50565b6000813590506123b881612392565b92915050565b6000602082840312156123d4576123d3612000565b5b60006123e2848285016123a9565b91505092915050565b6123f481612376565b82525050565b600065ffffffffffff82169050919050565b612415816123fa565b82525050565b612424816121b9565b82525050565b600060c08201905061243f60008301896120e5565b61244c60208301886123eb565b612459604083018761240c565b612466606083018661241b565b612473608083018561241b565b61248060a083018461227b565b979650505050505050565b60006020820190506124a0600083018461241b565b92915050565b600080604083850312156124bd576124bc612000565b5b60006124cb8582860161204e565b92505060206124dc8582860161204e565b9150509250929050565b7f4e487b7100000000000000000000000000000000000000000000000000000000600052602260045260246000fd5b6000600282049050600182168061252d57607f821691505b6020821081036125405761253f6124e6565b5b50919050565b7f43796265724172656e615374616b696e673a2070656e616c747920646179732060008201527f65786365656473206c696d697400000000000000000000000000000000000000602082015250565b60006125a2602d83611f59565b91506125ad82612546565b604082019050919050565b600060208201905081810360008301526125d181612595565b9050919050565b7f5265656e7472616e637947756172643a207265656e7472616e742063616c6c00600082015250565b600061260e601f83611f59565b9150612619826125d8565b602082019050919050565b6000602082019050818103600083015261263d81612601565b9050919050565b7f43796265724172656e615374616b696e673a206e6f7468696e6720697320737460008201527f616b656400000000000000000000000000000000000000000000000000000000602082015250565b60006126a0602483611f59565b91506126ab82612644565b604082019050919050565b600060208201905081810360008301526126cf81612693565b9050919050565b7f43796265724172656e615374616b696e673a20756e7374616b656420616c726560008201527f6164790000000000000000000000000000000000000000000000000000000000602082015250565b6000612732602383611f59565b915061273d826126d6565b604082019050919050565b6000602082019050818103600083015261276181612725565b9050919050565b7f4e487b7100000000000000000000000000000000000000000000000000000000600052601160045260246000fd5b60006127a282612257565b91506127ad83612257565b9250828203905077ffffffffffffffffffffffffffffffffffffffffffffffff8111156127dd576127dc612768565b5b92915050565b60006127ee826123fa565b91506127f9836123fa565b9250828202612807816123fa565b915080821461281957612818612768565b5b5092915050565b600061282b826123fa565b9150612836836123fa565b9250828201905065ffffffffffff81111561285457612853612768565b5b92915050565b600061286582612376565b915061287083612376565b925082820261287e81612376565b91508082146128905761288f612768565b5b5092915050565b7f4e487b7100000000000000000000000000000000000000000000000000000000600052601260045260246000fd5b60006128d182612376565b91506128dc83612376565b9250826128ec576128eb612897565b5b828204905092915050565b600061290282612063565b915061290d83612063565b925082820390508181111561292557612924612768565b5b92915050565b600061293682612063565b915061294183612063565b925082820190508082111561295957612958612768565b5b92915050565b7f43796265724172656e615374616b696e673a20616c7265616479207374616b6560008201527f6400000000000000000000000000000000000000000000000000000000000000602082015250565b60006129bb602183611f59565b91506129c68261295f565b604082019050919050565b600060208201905081810360008301526129ea816129ae565b9050919050565b60006129fc82612257565b9150612a0783612257565b9250828201905077ffffffffffffffffffffffffffffffffffffffffffffffff811115612a3757612a36612768565b5b92915050565b7f45524332303a2064656372656173656420616c6c6f77616e63652062656c6f7760008201527f207a65726f000000000000000000000000000000000000000000000000000000602082015250565b6000612a99602583611f59565b9150612aa482612a3d565b604082019050919050565b60006020820190508181036000830152612ac881612a8c565b9050919050565b7f43796265724172656e615374616b696e673a2070656e616c747920425020657860008201527f6365656473206c696d6974000000000000000000000000000000000000000000602082015250565b6000612b2b602b83611f59565b9150612b3682612acf565b604082019050919050565b60006020820190508181036000830152612b5a81612b1e565b9050919050565b7f43796265724172656e615374616b696e673a207472656173757279206973207460008201527f6865207a65726f20616464726573730000000000000000000000000000000000602082015250565b6000612bbd602f83611f59565b9150612bc882612b61565b604082019050919050565b60006020820190508181036000830152612bec81612bb0565b9050919050565b7f4f776e61626c653a206e6577206f776e657220697320746865207a65726f206160008201527f6464726573730000000000000000000000000000000000000000000000000000602082015250565b6000612c4f602683611f59565b9150612c5a82612bf3565b604082019050919050565b60006020820190508181036000830152612c7e81612c42565b9050919050565b7f45524332303a20617070726f76652066726f6d20746865207a65726f2061646460008201527f7265737300000000000000000000000000000000000000000000000000000000602082015250565b6000612ce1602483611f59565b9150612cec82612c85565b604082019050919050565b60006020820190508181036000830152612d1081612cd4565b9050919050565b7f45524332303a20617070726f766520746f20746865207a65726f20616464726560008201527f7373000000000000000000000000000000000000000000000000000000000000602082015250565b6000612d73602283611f59565b9150612d7e82612d17565b604082019050919050565b60006020820190508181036000830152612da281612d66565b9050919050565b7f45524332303a20696e73756666696369656e7420616c6c6f77616e6365000000600082015250565b6000612ddf601d83611f59565b9150612dea82612da9565b602082019050919050565b60006020820190508181036000830152612e0e81612dd2565b9050919050565b7f43796265724172656e615374616b696e673a204e4f4e5f5452414e534645524160008201527f424c450000000000000000000000000000000000000000000000000000000000602082015250565b6000612e71602383611f59565b9150612e7c82612e15565b604082019050919050565b60006020820190508181036000830152612ea081612e64565b9050919050565b7f4f776e61626c653a2063616c6c6572206973206e6f7420746865206f776e6572600082015250565b6000612edd602083611f59565b9150612ee882612ea7565b602082019050919050565b60006020820190508181036000830152612f0c81612ed0565b9050919050565b7f45524332303a206275726e2066726f6d20746865207a65726f2061646472657360008201527f7300000000000000000000000000000000000000000000000000000000000000602082015250565b6000612f6f602183611f59565b9150612f7a82612f13565b604082019050919050565b60006020820190508181036000830152612f9e81612f62565b9050919050565b7f45524332303a206275726e20616d6f756e7420657863656564732062616c616e60008201527f6365000000000000000000000000000000000000000000000000000000000000602082015250565b6000613001602283611f59565b915061300c82612fa5565b604082019050919050565b6000602082019050818103600083015261303081612ff4565b9050919050565b600060408201905061304c60008301856122a5565b613059602083018461210f565b9392505050565b600060608201905061307560008301866122a5565b61308260208301856122a5565b61308f604083018461210f565b949350505050565b7f45524332303a206d696e7420746f20746865207a65726f206164647265737300600082015250565b60006130cd601f83611f59565b91506130d882613097565b602082019050919050565b600060208201905081810360008301526130fc816130c0565b9050919050565b61310c816120d9565b811461311757600080fd5b50565b60008151905061312981613103565b92915050565b60006020828403121561314557613144612000565b5b60006131538482850161311a565b91505092915050565b7f5361666545524332303a204552433230206f7065726174696f6e20646964206e60008201527f6f74207375636365656400000000000000000000000000000000000000000000602082015250565b60006131b8602a83611f59565b91506131c38261315c565b604082019050919050565b600060208201905081810360008301526131e7816131ab565b9050919050565b7f416464726573733a20696e73756666696369656e742062616c616e636520666f60008201527f722063616c6c0000000000000000000000000000000000000000000000000000602082015250565b600061324a602683611f59565b9150613255826131ee565b604082019050919050565b600060208201905081810360008301526132798161323d565b9050919050565b7f416464726573733a2063616c6c20746f206e6f6e2d636f6e7472616374000000600082015250565b60006132b6601d83611f59565b91506132c182613280565b602082019050919050565b600060208201905081810360008301526132e5816132a9565b9050919050565b600081519050919050565b600081905092915050565b600061330d826132ec565b61331781856132f7565b9350613327818560208601611f6a565b80840191505092915050565b600061333f8284613302565b91508190509291505056fea2646970667358221220b069c8749018fac8f6773a0325456fdac8c454b09bdab233dbc3ede64c54c2ad64736f6c63430008110033",
  "linkReferences": {},
  "deployedLinkReferences": {}
}