{
  "_format": "hh-sol-artifact-1",
  "contractName": "Vesting",
  "sourceName": "contracts/Vesting.sol",
  "abi": [
    {
      "inputs": [
        {
          "internalType": "address",
          "name": "token_",
          "type": "address"
        }
      ],
      "stateMutability": "nonpayable",
      "type": "constructor"
    },
    {
      "anonymous": false,
      "inputs": [
        {
          "indexed": true,
          "internalType": "address",
          "name": "previousOwner",
          "type": "address"
        },
        {
          "indexed": true,
          "internalType": "address",
          "name": "newOwner",
          "type": "address"
        }
      ],
      "name": "OwnershipTransferred",
      "type": "event"
    },
    {
      "anonymous": false,
      "inputs": [
        {
          "indexed": false,
          "internalType": "uint256",
          "name": "amount",
          "type": "uint256"
        }
      ],
      "name": "Released",
      "type": "event"
    },
    {
      "stateMutability": "payable",
      "type": "fallback"
    },
    {
      "inputs": [
        {
          "internalType": "address",
          "name": "addr",
          "type": "address"
        }
      ],
      "name": "computeReleasableAmount",
      "outputs": [
        {
          "internalType": "uint256",
          "name": "",
          "type": "uint256"
        }
      ],
      "stateMutability": "view",
      "type": "function"
    },
    {
      "inputs": [
        {
          "internalType": "address",
          "name": "_beneficiary",
          "type": "address"
        },
        {
          "internalType": "uint256",
          "name": "_start",
          "type": "uint256"
        },
        {
          "internalType": "uint256",
          "name": "_duration",
          "type": "uint256"
        },
        {
          "internalType": "uint256",
          "name": "_slicePeriodSeconds",
          "type": "uint256"
        },
        {
          "internalType": "uint256",
          "name": "_amount",
          "type": "uint256"
        }
      ],
      "name": "createVestingSchedule",
      "outputs": [],
      "stateMutability": "nonpayable",
      "type": "function"
    },
    {
      "inputs": [],
      "name": "getToken",
      "outputs": [
        {
          "internalType": "address",
          "name": "",
          "type": "address"
        }
      ],
      "stateMutability": "view",
      "type": "function"
    },
    {
      "inputs": [
        {
          "internalType": "address",
          "name": "addr",
          "type": "address"
        }
      ],
      "name": "getVestingSchedule",
      "outputs": [
        {
          "components": [
            {
              "internalType": "bool",
              "name": "initialized",
              "type": "bool"
            },
            {
              "internalType": "address",
              "name": "beneficiary",
              "type": "address"
            },
            {
              "internalType": "uint256",
              "name": "start",
              "type": "uint256"
            },
            {
              "internalType": "uint256",
              "name": "duration",
              "type": "uint256"
            },
            {
              "internalType": "uint256",
              "name": "slicePeriodSeconds",
              "type": "uint256"
            },
            {
              "internalType": "uint256",
              "name": "amountTotal",
              "type": "uint256"
            },
            {
              "internalType": "uint256",
              "name": "released",
              "type": "uint256"
            }
          ],
          "internalType": "struct Vesting.VestingSchedule",
          "name": "",
          "type": "tuple"
        }
      ],
      "stateMutability": "view",
      "type": "function"
    },
    {
      "inputs": [],
      "name": "getVestingSchedulesTotalAmount",
      "outputs": [
        {
          "internalType": "uint256",
          "name": "",
          "type": "uint256"
        }
      ],
      "stateMutability": "view",
      "type": "function"
    },
    {
      "inputs": [],
      "name": "getWithdrawableAmount",
      "outputs": [
        {
          "internalType": "uint256",
          "name": "",
          "type": "uint256"
        }
      ],
      "stateMutability": "view",
      "type": "function"
    },
    {
      "inputs": [],
      "name": "owner",
      "outputs": [
        {
          "internalType": "address",
          "name": "",
          "type": "address"
        }
      ],
      "stateMutability": "view",
      "type": "function"
    },
    {
      "inputs": [
        {
          "internalType": "address",
          "name": "addr",
          "type": "address"
        },
        {
          "internalType": "uint256",
          "name": "amount",
          "type": "uint256"
        }
      ],
      "name": "release",
      "outputs": [],
      "stateMutability": "nonpayable",
      "type": "function"
    },
    {
      "inputs": [],
      "name": "renounceOwnership",
      "outputs": [],
      "stateMutability": "nonpayable",
      "type": "function"
    },
    {
      "inputs": [
        {
          "internalType": "address",
          "name": "newOwner",
          "type": "address"
        }
      ],
      "name": "transferOwnership",
      "outputs": [],
      "stateMutability": "nonpayable",
      "type": "function"
    },
    {
      "stateMutability": "payable",
      "type": "receive"
    }
  ],
  "bytecode": "0x60a06040523480156200001157600080fd5b506040516200220d3803806200220d833981810160405281019062000037919062000209565b620000576200004b620000d360201b60201c565b620000db60201b60201c565b60018081905550600073ffffffffffffffffffffffffffffffffffffffff168173ffffffffffffffffffffffffffffffffffffffff16036200009857600080fd5b8073ffffffffffffffffffffffffffffffffffffffff1660808173ffffffffffffffffffffffffffffffffffffffff1681525050506200023b565b600033905090565b60008060009054906101000a900473ffffffffffffffffffffffffffffffffffffffff169050816000806101000a81548173ffffffffffffffffffffffffffffffffffffffff021916908373ffffffffffffffffffffffffffffffffffffffff1602179055508173ffffffffffffffffffffffffffffffffffffffff168173ffffffffffffffffffffffffffffffffffffffff167f8be0079c531659141344cd1fd0a4f28419497f9722a3daafe3b4186f6b6457e060405160405180910390a35050565b600080fd5b600073ffffffffffffffffffffffffffffffffffffffff82169050919050565b6000620001d182620001a4565b9050919050565b620001e381620001c4565b8114620001ef57600080fd5b50565b6000815190506200020381620001d8565b92915050565b6000602082840312156200022257620002216200019f565b5b60006200023284828501620001f2565b91505092915050565b608051611fa86200026560003960008181610527015281816108f001526109650152611fa86000f3fe6080604052600436106100955760003560e01c80638da5cb5b116100595780638da5cb5b1461015d57806390be10cc146101885780639f829063146101b3578063dd1fdb62146101f0578063f2fde38b1461022d5761009c565b80630357371d1461009e5780631bf0b08b146100c757806321df0da7146100f057806348deb4711461011b578063715018a6146101465761009c565b3661009c57005b005b3480156100aa57600080fd5b506100c560048036038101906100c09190611329565b610256565b005b3480156100d357600080fd5b506100ee60048036038101906100e99190611369565b61057b565b005b3480156100fc57600080fd5b506101056108ec565b60405161011291906113f3565b60405180910390f35b34801561012757600080fd5b50610130610914565b60405161013d919061141d565b60405180910390f35b34801561015257600080fd5b5061015b61091e565b005b34801561016957600080fd5b50610172610932565b60405161017f91906113f3565b60405180910390f35b34801561019457600080fd5b5061019d61095b565b6040516101aa919061141d565b60405180910390f35b3480156101bf57600080fd5b506101da60048036038101906101d59190611438565b610a10565b6040516101e7919061152c565b60405180910390f35b3480156101fc57600080fd5b5061021760048036038101906102129190611438565b610b0c565b604051610224919061141d565b60405180910390f35b34801561023957600080fd5b50610254600480360381019061024f9190611438565b610c0f565b005b60026001540361029b576040517f08c379a0000000000000000000000000000000000000000000000000000000008152600401610292906115a4565b60405180910390fd5b60026001819055506000600260008473ffffffffffffffffffffffffffffffffffffffff1673ffffffffffffffffffffffffffffffffffffffff168152602001908152602001600020905060008160000160019054906101000a900473ffffffffffffffffffffffffffffffffffffffff1673ffffffffffffffffffffffffffffffffffffffff163373ffffffffffffffffffffffffffffffffffffffff161490506000610347610932565b73ffffffffffffffffffffffffffffffffffffffff163373ffffffffffffffffffffffffffffffffffffffff1614905081806103805750805b6103bf576040517f08c379a00000000000000000000000000000000000000000000000000000000081526004016103b69061165c565b60405180910390fd5b6000610478846040518060e00160405290816000820160009054906101000a900460ff161515151581526020016000820160019054906101000a900473ffffffffffffffffffffffffffffffffffffffff1673ffffffffffffffffffffffffffffffffffffffff1673ffffffffffffffffffffffffffffffffffffffff16815260200160018201548152602001600282015481526020016003820154815260200160048201548152602001600582015481525050610c92565b9050848110156104bd576040517f08c379a00000000000000000000000000000000000000000000000000000000081526004016104b4906116ee565b60405180910390fd5b6104d4858560050154610d8e90919063ffffffff16565b846005018190555060008460000160019054906101000a900473ffffffffffffffffffffffffffffffffffffffff16905061051a86600354610da490919063ffffffff16565b60038190555061056b81877f000000000000000000000000000000000000000000000000000000000000000073ffffffffffffffffffffffffffffffffffffffff16610dba9092919063ffffffff16565b5050505050600180819055505050565b610583610e40565b803073ffffffffffffffffffffffffffffffffffffffff166390be10cc6040518163ffffffff1660e01b8152600401602060405180830381865afa1580156105cf573d6000803e3d6000fd5b505050506040513d601f19601f820116820180604052508101906105f39190611723565b1015610634576040517f08c379a000000000000000000000000000000000000000000000000000000000815260040161062b906117e8565b60405180910390fd5b60008311610677576040517f08c379a000000000000000000000000000000000000000000000000000000000815260040161066e9061187a565b60405180910390fd5b600081116106ba576040517f08c379a00000000000000000000000000000000000000000000000000000000081526004016106b1906118e6565b60405180910390fd5b60018210156106fe576040517f08c379a00000000000000000000000000000000000000000000000000000000081526004016106f590611978565b60405180910390fd5b610706610ebe565b841015610748576040517f08c379a000000000000000000000000000000000000000000000000000000000815260040161073f90611a0a565b60405180910390fd5b600260008673ffffffffffffffffffffffffffffffffffffffff1673ffffffffffffffffffffffffffffffffffffffff16815260200190815260200160002060000160009054906101000a900460ff16156107a257600080fd5b6040518060e001604052806001151581526020018673ffffffffffffffffffffffffffffffffffffffff1681526020018581526020018481526020018381526020018281526020016000815250600260008773ffffffffffffffffffffffffffffffffffffffff1673ffffffffffffffffffffffffffffffffffffffff16815260200190815260200160002060008201518160000160006101000a81548160ff02191690831515021790555060208201518160000160016101000a81548173ffffffffffffffffffffffffffffffffffffffff021916908373ffffffffffffffffffffffffffffffffffffffff16021790555060408201518160010155606082015181600201556080820151816003015560a0820151816004015560c082015181600501559050506108df81600354610d8e90919063ffffffff16565b6003819055505050505050565b60007f0000000000000000000000000000000000000000000000000000000000000000905090565b6000600354905090565b610926610e40565b6109306000610ec6565b565b60008060009054906101000a900473ffffffffffffffffffffffffffffffffffffffff16905090565b6000610a0b6003547f000000000000000000000000000000000000000000000000000000000000000073ffffffffffffffffffffffffffffffffffffffff166370a08231306040518263ffffffff1660e01b81526004016109bc91906113f3565b602060405180830381865afa1580156109d9573d6000803e3d6000fd5b505050506040513d601f19601f820116820180604052508101906109fd9190611723565b610da490919063ffffffff16565b905090565b610a1861123b565b600260008373ffffffffffffffffffffffffffffffffffffffff1673ffffffffffffffffffffffffffffffffffffffff1681526020019081526020016000206040518060e00160405290816000820160009054906101000a900460ff161515151581526020016000820160019054906101000a900473ffffffffffffffffffffffffffffffffffffffff1673ffffffffffffffffffffffffffffffffffffffff1673ffffffffffffffffffffffffffffffffffffffff168152602001600182015481526020016002820154815260200160038201548152602001600482015481526020016005820154815250509050919050565b600080600260008473ffffffffffffffffffffffffffffffffffffffff1673ffffffffffffffffffffffffffffffffffffffff1681526020019081526020016000209050610c07816040518060e00160405290816000820160009054906101000a900460ff161515151581526020016000820160019054906101000a900473ffffffffffffffffffffffffffffffffffffffff1673ffffffffffffffffffffffffffffffffffffffff1673ffffffffffffffffffffffffffffffffffffffff16815260200160018201548152602001600282015481526020016003820154815260200160048201548152602001600582015481525050610c92565b915050919050565b610c17610e40565b600073ffffffffffffffffffffffffffffffffffffffff168173ffffffffffffffffffffffffffffffffffffffff1603610c86576040517f08c379a0000000000000000000000000000000000000000000000000000000008152600401610c7d90611a9c565b60405180910390fd5b610c8f81610ec6565b50565b600080610c9d610ebe565b9050610cba83606001518460400151610d8e90919063ffffffff16565b8110610ce357610cdb8360c001518460a00151610da490919063ffffffff16565b915050610d89565b6000610cfc846040015183610da490919063ffffffff16565b90506000846080015190506000610d1c8284610f8a90919063ffffffff16565b90506000610d338383610fa090919063ffffffff16565b90506000610d648860600151610d56848b60a00151610fa090919063ffffffff16565b610f8a90919063ffffffff16565b9050610d7d8860c0015182610da490919063ffffffff16565b90508096505050505050505b919050565b60008183610d9c9190611aeb565b905092915050565b60008183610db29190611b1f565b905092915050565b610e3b8363a9059cbb60e01b8484604051602401610dd9929190611b53565b604051602081830303815290604052907bffffffffffffffffffffffffffffffffffffffffffffffffffffffff19166020820180517bffffffffffffffffffffffffffffffffffffffffffffffffffffffff8381831617835250505050610fb6565b505050565b610e4861107d565b73ffffffffffffffffffffffffffffffffffffffff16610e66610932565b73ffffffffffffffffffffffffffffffffffffffff1614610ebc576040517f08c379a0000000000000000000000000000000000000000000000000000000008152600401610eb390611bc8565b60405180910390fd5b565b600042905090565b60008060009054906101000a900473ffffffffffffffffffffffffffffffffffffffff169050816000806101000a81548173ffffffffffffffffffffffffffffffffffffffff021916908373ffffffffffffffffffffffffffffffffffffffff1602179055508173ffffffffffffffffffffffffffffffffffffffff168173ffffffffffffffffffffffffffffffffffffffff167f8be0079c531659141344cd1fd0a4f28419497f9722a3daafe3b4186f6b6457e060405160405180910390a35050565b60008183610f989190611c17565b905092915050565b60008183610fae9190611c48565b905092915050565b6000611018826040518060400160405280602081526020017f5361666545524332303a206c6f772d6c6576656c2063616c6c206661696c65648152508573ffffffffffffffffffffffffffffffffffffffff166110859092919063ffffffff16565b905060008151111561107857808060200190518101906110389190611cb6565b611077576040517f08c379a000000000000000000000000000000000000000000000000000000000815260040161106e90611d55565b60405180910390fd5b5b505050565b600033905090565b6060611094848460008561109d565b90509392505050565b6060824710156110e2576040517f08c379a00000000000000000000000000000000000000000000000000000000081526004016110d990611de7565b60405180910390fd5b6110eb856111b1565b61112a576040517f08c379a000000000000000000000000000000000000000000000000000000000815260040161112190611e53565b60405180910390fd5b6000808673ffffffffffffffffffffffffffffffffffffffff1685876040516111539190611ee4565b60006040518083038185875af1925050503d8060008114611190576040519150601f19603f3d011682016040523d82523d6000602084013e611195565b606091505b50915091506111a58282866111d4565b92505050949350505050565b6000808273ffffffffffffffffffffffffffffffffffffffff163b119050919050565b606083156111e457829050611234565b6000835111156111f75782518084602001fd5b816040517f08c379a000000000000000000000000000000000000000000000000000000000815260040161122b9190611f50565b60405180910390fd5b9392505050565b6040518060e00160405280600015158152602001600073ffffffffffffffffffffffffffffffffffffffff16815260200160008152602001600081526020016000815260200160008152602001600081525090565b600080fd5b600073ffffffffffffffffffffffffffffffffffffffff82169050919050565b60006112c082611295565b9050919050565b6112d0816112b5565b81146112db57600080fd5b50565b6000813590506112ed816112c7565b92915050565b6000819050919050565b611306816112f3565b811461131157600080fd5b50565b600081359050611323816112fd565b92915050565b600080604083850312156113405761133f611290565b5b600061134e858286016112de565b925050602061135f85828601611314565b9150509250929050565b600080600080600060a0868803121561138557611384611290565b5b6000611393888289016112de565b95505060206113a488828901611314565b94505060406113b588828901611314565b93505060606113c688828901611314565b92505060806113d788828901611314565b9150509295509295909350565b6113ed816112b5565b82525050565b600060208201905061140860008301846113e4565b92915050565b611417816112f3565b82525050565b6000602082019050611432600083018461140e565b92915050565b60006020828403121561144e5761144d611290565b5b600061145c848285016112de565b91505092915050565b60008115159050919050565b61147a81611465565b82525050565b611489816112b5565b82525050565b611498816112f3565b82525050565b60e0820160008201516114b46000850182611471565b5060208201516114c76020850182611480565b5060408201516114da604085018261148f565b5060608201516114ed606085018261148f565b506080820151611500608085018261148f565b5060a082015161151360a085018261148f565b5060c082015161152660c085018261148f565b50505050565b600060e082019050611541600083018461149e565b92915050565b600082825260208201905092915050565b7f5265656e7472616e637947756172643a207265656e7472616e742063616c6c00600082015250565b600061158e601f83611547565b915061159982611558565b602082019050919050565b600060208201905081810360008301526115bd81611581565b9050919050565b7f546f6b656e56657374696e673a206f6e6c792062656e6566696369617279206160008201527f6e64206f776e65722063616e2072656c656173652076657374656420746f6b6560208201527f6e73000000000000000000000000000000000000000000000000000000000000604082015250565b6000611646604283611547565b9150611651826115c4565b606082019050919050565b6000602082019050818103600083015261167581611639565b9050919050565b7f546f6b656e56657374696e673a2063616e6e6f742072656c6561736520746f6b60008201527f656e732c206e6f7420656e6f7567682076657374656420746f6b656e73000000602082015250565b60006116d8603d83611547565b91506116e38261167c565b604082019050919050565b60006020820190508181036000830152611707816116cb565b9050919050565b60008151905061171d816112fd565b92915050565b60006020828403121561173957611738611290565b5b60006117478482850161170e565b91505092915050565b7f546f6b656e56657374696e673a2063616e6e6f7420637265617465207665737460008201527f696e67207363686564756c652062656361757365206e6f74207375666669636960208201527f656e7420746f6b656e7300000000000000000000000000000000000000000000604082015250565b60006117d2604a83611547565b91506117dd82611750565b606082019050919050565b60006020820190508181036000830152611801816117c5565b9050919050565b7f546f6b656e56657374696e673a206475726174696f6e206d757374206265203e60008201527f2030000000000000000000000000000000000000000000000000000000000000602082015250565b6000611864602283611547565b915061186f82611808565b604082019050919050565b6000602082019050818103600083015261189381611857565b9050919050565b7f546f6b656e56657374696e673a20616d6f756e74206d757374206265203e2030600082015250565b60006118d0602083611547565b91506118db8261189a565b602082019050919050565b600060208201905081810360008301526118ff816118c3565b9050919050565b7f546f6b656e56657374696e673a20736c696365506572696f645365636f6e647360008201527f206d757374206265203e3d203100000000000000000000000000000000000000602082015250565b6000611962602d83611547565b915061196d82611906565b604082019050919050565b6000602082019050818103600083015261199181611955565b9050919050565b7f546f6b656e56657374696e673a205f7374617274206d757374206265206c617460008201527f6572207468616e206c617465737420626c6f636b000000000000000000000000602082015250565b60006119f4603483611547565b91506119ff82611998565b604082019050919050565b60006020820190508181036000830152611a23816119e7565b9050919050565b7f4f776e61626c653a206e6577206f776e657220697320746865207a65726f206160008201527f6464726573730000000000000000000000000000000000000000000000000000602082015250565b6000611a86602683611547565b9150611a9182611a2a565b604082019050919050565b60006020820190508181036000830152611ab581611a79565b9050919050565b7f4e487b7100000000000000000000000000000000000000000000000000000000600052601160045260246000fd5b6000611af6826112f3565b9150611b01836112f3565b9250828201905080821115611b1957611b18611abc565b5b92915050565b6000611b2a826112f3565b9150611b35836112f3565b9250828203905081811115611b4d57611b4c611abc565b5b92915050565b6000604082019050611b6860008301856113e4565b611b75602083018461140e565b9392505050565b7f4f776e61626c653a2063616c6c6572206973206e6f7420746865206f776e6572600082015250565b6000611bb2602083611547565b9150611bbd82611b7c565b602082019050919050565b60006020820190508181036000830152611be181611ba5565b9050919050565b7f4e487b7100000000000000000000000000000000000000000000000000000000600052601260045260246000fd5b6000611c22826112f3565b9150611c2d836112f3565b925082611c3d57611c3c611be8565b5b828204905092915050565b6000611c53826112f3565b9150611c5e836112f3565b9250828202611c6c816112f3565b91508282048414831517611c8357611c82611abc565b5b5092915050565b611c9381611465565b8114611c9e57600080fd5b50565b600081519050611cb081611c8a565b92915050565b600060208284031215611ccc57611ccb611290565b5b6000611cda84828501611ca1565b91505092915050565b7f5361666545524332303a204552433230206f7065726174696f6e20646964206e60008201527f6f74207375636365656400000000000000000000000000000000000000000000602082015250565b6000611d3f602a83611547565b9150611d4a82611ce3565b604082019050919050565b60006020820190508181036000830152611d6e81611d32565b9050919050565b7f416464726573733a20696e73756666696369656e742062616c616e636520666f60008201527f722063616c6c0000000000000000000000000000000000000000000000000000602082015250565b6000611dd1602683611547565b9150611ddc82611d75565b604082019050919050565b60006020820190508181036000830152611e0081611dc4565b9050919050565b7f416464726573733a2063616c6c20746f206e6f6e2d636f6e7472616374000000600082015250565b6000611e3d601d83611547565b9150611e4882611e07565b602082019050919050565b60006020820190508181036000830152611e6c81611e30565b9050919050565b600081519050919050565b600081905092915050565b60005b83811015611ea7578082015181840152602081019050611e8c565b60008484015250505050565b6000611ebe82611e73565b611ec88185611e7e565b9350611ed8818560208601611e89565b80840191505092915050565b6000611ef08284611eb3565b915081905092915050565b600081519050919050565b6000601f19601f8301169050919050565b6000611f2282611efb565b611f2c8185611547565b9350611f3c818560208601611e89565b611f4581611f06565b840191505092915050565b60006020820190508181036000830152611f6a8184611f17565b90509291505056fea2646970667358221220c5a3bf205d3fff3964185d4469cb20c88de11e0f0888076fc06820af98c8d1a164736f6c63430008110033",
  "linkReferences": {},
  "deployedLinkReferences": {}
}