{
  "_format": "hh-sol-artifact-1",
  "contractName": "Vesting",
  "sourceName": "contracts/Vesting.sol",
  "abi": [
    {
      "inputs": [
        {
          "internalType": "address",
          "name": "token_",
          "type": "address"
        }
      ],
      "stateMutability": "nonpayable",
      "type": "constructor"
    },
    {
      "anonymous": false,
      "inputs": [
        {
          "indexed": true,
          "internalType": "address",
          "name": "previousOwner",
          "type": "address"
        },
        {
          "indexed": true,
          "internalType": "address",
          "name": "newOwner",
          "type": "address"
        }
      ],
      "name": "OwnershipTransferred",
      "type": "event"
    },
    {
      "anonymous": false,
      "inputs": [
        {
          "indexed": false,
          "internalType": "uint256",
          "name": "amount",
          "type": "uint256"
        }
      ],
      "name": "Released",
      "type": "event"
    },
    {
      "stateMutability": "payable",
      "type": "fallback"
    },
    {
      "inputs": [
        {
          "internalType": "address",
          "name": "addr",
          "type": "address"
        }
      ],
      "name": "computeReleasableAmount",
      "outputs": [
        {
          "internalType": "uint256",
          "name": "",
          "type": "uint256"
        }
      ],
      "stateMutability": "view",
      "type": "function"
    },
    {
      "inputs": [
        {
          "internalType": "address",
          "name": "_beneficiary",
          "type": "address"
        },
        {
          "internalType": "uint256",
          "name": "_start",
          "type": "uint256"
        },
        {
          "internalType": "uint256",
          "name": "_duration",
          "type": "uint256"
        },
        {
          "internalType": "uint256",
          "name": "_slicePeriodSeconds",
          "type": "uint256"
        },
        {
          "internalType": "uint256",
          "name": "_amount",
          "type": "uint256"
        }
      ],
      "name": "createVestingSchedule",
      "outputs": [],
      "stateMutability": "nonpayable",
      "type": "function"
    },
    {
      "inputs": [],
      "name": "getToken",
      "outputs": [
        {
          "internalType": "address",
          "name": "",
          "type": "address"
        }
      ],
      "stateMutability": "view",
      "type": "function"
    },
    {
      "inputs": [
        {
          "internalType": "address",
          "name": "addr",
          "type": "address"
        }
      ],
      "name": "getVestingSchedule",
      "outputs": [
        {
          "components": [
            {
              "internalType": "bool",
              "name": "initialized",
              "type": "bool"
            },
            {
              "internalType": "address",
              "name": "beneficiary",
              "type": "address"
            },
            {
              "internalType": "uint256",
              "name": "start",
              "type": "uint256"
            },
            {
              "internalType": "uint256",
              "name": "duration",
              "type": "uint256"
            },
            {
              "internalType": "uint256",
              "name": "slicePeriodSeconds",
              "type": "uint256"
            },
            {
              "internalType": "uint256",
              "name": "amountTotal",
              "type": "uint256"
            },
            {
              "internalType": "uint256",
              "name": "released",
              "type": "uint256"
            }
          ],
          "internalType": "struct Vesting.VestingSchedule",
          "name": "",
          "type": "tuple"
        }
      ],
      "stateMutability": "view",
      "type": "function"
    },
    {
      "inputs": [],
      "name": "getVestingSchedulesTotalAmount",
      "outputs": [
        {
          "internalType": "uint256",
          "name": "",
          "type": "uint256"
        }
      ],
      "stateMutability": "view",
      "type": "function"
    },
    {
      "inputs": [],
      "name": "getWithdrawableAmount",
      "outputs": [
        {
          "internalType": "uint256",
          "name": "",
          "type": "uint256"
        }
      ],
      "stateMutability": "view",
      "type": "function"
    },
    {
      "inputs": [],
      "name": "owner",
      "outputs": [
        {
          "internalType": "address",
          "name": "",
          "type": "address"
        }
      ],
      "stateMutability": "view",
      "type": "function"
    },
    {
      "inputs": [
        {
          "internalType": "address",
          "name": "addr",
          "type": "address"
        },
        {
          "internalType": "uint256",
          "name": "amount",
          "type": "uint256"
        }
      ],
      "name": "release",
      "outputs": [],
      "stateMutability": "nonpayable",
      "type": "function"
    },
    {
      "inputs": [],
      "name": "renounceOwnership",
      "outputs": [],
      "stateMutability": "nonpayable",
      "type": "function"
    },
    {
      "inputs": [
        {
          "internalType": "address",
          "name": "newOwner",
          "type": "address"
        }
      ],
      "name": "transferOwnership",
      "outputs": [],
      "stateMutability": "nonpayable",
      "type": "function"
    },
    {
      "stateMutability": "payable",
      "type": "receive"
    }
  ],
  "bytecode": "0x60a06040523480156200001157600080fd5b50604051620020d7380380620020d7833981810160405281019062000037919062000209565b620000576200004b620000d360201b60201c565b620000db60201b60201c565b60018081905550600073ffffffffffffffffffffffffffffffffffffffff168173ffffffffffffffffffffffffffffffffffffffff16036200009857600080fd5b8073ffffffffffffffffffffffffffffffffffffffff1660808173ffffffffffffffffffffffffffffffffffffffff1681525050506200023b565b600033905090565b60008060009054906101000a900473ffffffffffffffffffffffffffffffffffffffff169050816000806101000a81548173ffffffffffffffffffffffffffffffffffffffff021916908373ffffffffffffffffffffffffffffffffffffffff1602179055508173ffffffffffffffffffffffffffffffffffffffff168173ffffffffffffffffffffffffffffffffffffffff167f8be0079c531659141344cd1fd0a4f28419497f9722a3daafe3b4186f6b6457e060405160405180910390a35050565b600080fd5b600073ffffffffffffffffffffffffffffffffffffffff82169050919050565b6000620001d182620001a4565b9050919050565b620001e381620001c4565b8114620001ef57600080fd5b50565b6000815190506200020381620001d8565b92915050565b6000602082840312156200022257620002216200019f565b5b60006200023284828501620001f2565b91505092915050565b608051611e7262000265600039600081816105270152818161084c01526108c10152611e726000f3fe6080604052600436106100955760003560e01c80638da5cb5b116100595780638da5cb5b1461015d57806390be10cc146101885780639f829063146101b3578063dd1fdb62146101f0578063f2fde38b1461022d5761009c565b80630357371d1461009e5780631bf0b08b146100c757806321df0da7146100f057806348deb4711461011b578063715018a6146101465761009c565b3661009c57005b005b3480156100aa57600080fd5b506100c560048036038101906100c09190611285565b610256565b005b3480156100d357600080fd5b506100ee60048036038101906100e991906112c5565b61057b565b005b3480156100fc57600080fd5b50610105610848565b604051610112919061134f565b60405180910390f35b34801561012757600080fd5b50610130610870565b60405161013d9190611379565b60405180910390f35b34801561015257600080fd5b5061015b61087a565b005b34801561016957600080fd5b5061017261088e565b60405161017f919061134f565b60405180910390f35b34801561019457600080fd5b5061019d6108b7565b6040516101aa9190611379565b60405180910390f35b3480156101bf57600080fd5b506101da60048036038101906101d59190611394565b61096c565b6040516101e79190611488565b60405180910390f35b3480156101fc57600080fd5b5061021760048036038101906102129190611394565b610a68565b6040516102249190611379565b60405180910390f35b34801561023957600080fd5b50610254600480360381019061024f9190611394565b610b6b565b005b60026001540361029b576040517f08c379a000000000000000000000000000000000000000000000000000000000815260040161029290611500565b60405180910390fd5b60026001819055506000600260008473ffffffffffffffffffffffffffffffffffffffff1673ffffffffffffffffffffffffffffffffffffffff168152602001908152602001600020905060008160000160019054906101000a900473ffffffffffffffffffffffffffffffffffffffff1673ffffffffffffffffffffffffffffffffffffffff163373ffffffffffffffffffffffffffffffffffffffff16149050600061034761088e565b73ffffffffffffffffffffffffffffffffffffffff163373ffffffffffffffffffffffffffffffffffffffff1614905081806103805750805b6103bf576040517f08c379a00000000000000000000000000000000000000000000000000000000081526004016103b6906115b8565b60405180910390fd5b6000610478846040518060e00160405290816000820160009054906101000a900460ff161515151581526020016000820160019054906101000a900473ffffffffffffffffffffffffffffffffffffffff1673ffffffffffffffffffffffffffffffffffffffff1673ffffffffffffffffffffffffffffffffffffffff16815260200160018201548152602001600282015481526020016003820154815260200160048201548152602001600582015481525050610bee565b9050848110156104bd576040517f08c379a00000000000000000000000000000000000000000000000000000000081526004016104b49061164a565b60405180910390fd5b6104d4858560050154610cea90919063ffffffff16565b846005018190555060008460000160019054906101000a900473ffffffffffffffffffffffffffffffffffffffff16905061051a86600354610d0090919063ffffffff16565b60038190555061056b81877f000000000000000000000000000000000000000000000000000000000000000073ffffffffffffffffffffffffffffffffffffffff16610d169092919063ffffffff16565b5050505050600180819055505050565b610583610d9c565b803073ffffffffffffffffffffffffffffffffffffffff166390be10cc6040518163ffffffff1660e01b8152600401602060405180830381865afa1580156105cf573d6000803e3d6000fd5b505050506040513d601f19601f820116820180604052508101906105f3919061167f565b1015610634576040517f08c379a000000000000000000000000000000000000000000000000000000000815260040161062b90611744565b60405180910390fd5b60008311610677576040517f08c379a000000000000000000000000000000000000000000000000000000000815260040161066e906117d6565b60405180910390fd5b600081116106ba576040517f08c379a00000000000000000000000000000000000000000000000000000000081526004016106b190611842565b60405180910390fd5b60018210156106fe576040517f08c379a00000000000000000000000000000000000000000000000000000000081526004016106f5906118d4565b60405180910390fd5b6040518060e001604052806001151581526020018673ffffffffffffffffffffffffffffffffffffffff1681526020018581526020018481526020018381526020018281526020016000815250600260008773ffffffffffffffffffffffffffffffffffffffff1673ffffffffffffffffffffffffffffffffffffffff16815260200190815260200160002060008201518160000160006101000a81548160ff02191690831515021790555060208201518160000160016101000a81548173ffffffffffffffffffffffffffffffffffffffff021916908373ffffffffffffffffffffffffffffffffffffffff16021790555060408201518160010155606082015181600201556080820151816003015560a0820151816004015560c0820151816005015590505061083b81600354610cea90919063ffffffff16565b6003819055505050505050565b60007f0000000000000000000000000000000000000000000000000000000000000000905090565b6000600354905090565b610882610d9c565b61088c6000610e1a565b565b60008060009054906101000a900473ffffffffffffffffffffffffffffffffffffffff16905090565b60006109676003547f000000000000000000000000000000000000000000000000000000000000000073ffffffffffffffffffffffffffffffffffffffff166370a08231306040518263ffffffff1660e01b8152600401610918919061134f565b602060405180830381865afa158015610935573d6000803e3d6000fd5b505050506040513d601f19601f82011682018060405250810190610959919061167f565b610d0090919063ffffffff16565b905090565b610974611197565b600260008373ffffffffffffffffffffffffffffffffffffffff1673ffffffffffffffffffffffffffffffffffffffff1681526020019081526020016000206040518060e00160405290816000820160009054906101000a900460ff161515151581526020016000820160019054906101000a900473ffffffffffffffffffffffffffffffffffffffff1673ffffffffffffffffffffffffffffffffffffffff1673ffffffffffffffffffffffffffffffffffffffff168152602001600182015481526020016002820154815260200160038201548152602001600482015481526020016005820154815250509050919050565b600080600260008473ffffffffffffffffffffffffffffffffffffffff1673ffffffffffffffffffffffffffffffffffffffff1681526020019081526020016000209050610b63816040518060e00160405290816000820160009054906101000a900460ff161515151581526020016000820160019054906101000a900473ffffffffffffffffffffffffffffffffffffffff1673ffffffffffffffffffffffffffffffffffffffff1673ffffffffffffffffffffffffffffffffffffffff16815260200160018201548152602001600282015481526020016003820154815260200160048201548152602001600582015481525050610bee565b915050919050565b610b73610d9c565b600073ffffffffffffffffffffffffffffffffffffffff168173ffffffffffffffffffffffffffffffffffffffff1603610be2576040517f08c379a0000000000000000000000000000000000000000000000000000000008152600401610bd990611966565b60405180910390fd5b610beb81610e1a565b50565b600080610bf9610ede565b9050610c1683606001518460400151610cea90919063ffffffff16565b8110610c3f57610c378360c001518460a00151610d0090919063ffffffff16565b915050610ce5565b6000610c58846040015183610d0090919063ffffffff16565b90506000846080015190506000610c788284610ee690919063ffffffff16565b90506000610c8f8383610efc90919063ffffffff16565b90506000610cc08860600151610cb2848b60a00151610efc90919063ffffffff16565b610ee690919063ffffffff16565b9050610cd98860c0015182610d0090919063ffffffff16565b90508096505050505050505b919050565b60008183610cf891906119b5565b905092915050565b60008183610d0e91906119e9565b905092915050565b610d978363a9059cbb60e01b8484604051602401610d35929190611a1d565b604051602081830303815290604052907bffffffffffffffffffffffffffffffffffffffffffffffffffffffff19166020820180517bffffffffffffffffffffffffffffffffffffffffffffffffffffffff8381831617835250505050610f12565b505050565b610da4610fd9565b73ffffffffffffffffffffffffffffffffffffffff16610dc261088e565b73ffffffffffffffffffffffffffffffffffffffff1614610e18576040517f08c379a0000000000000000000000000000000000000000000000000000000008152600401610e0f90611a92565b60405180910390fd5b565b60008060009054906101000a900473ffffffffffffffffffffffffffffffffffffffff169050816000806101000a81548173ffffffffffffffffffffffffffffffffffffffff021916908373ffffffffffffffffffffffffffffffffffffffff1602179055508173ffffffffffffffffffffffffffffffffffffffff168173ffffffffffffffffffffffffffffffffffffffff167f8be0079c531659141344cd1fd0a4f28419497f9722a3daafe3b4186f6b6457e060405160405180910390a35050565b600042905090565b60008183610ef49190611ae1565b905092915050565b60008183610f0a9190611b12565b905092915050565b6000610f74826040518060400160405280602081526020017f5361666545524332303a206c6f772d6c6576656c2063616c6c206661696c65648152508573ffffffffffffffffffffffffffffffffffffffff16610fe19092919063ffffffff16565b9050600081511115610fd45780806020019051810190610f949190611b80565b610fd3576040517f08c379a0000000000000000000000000000000000000000000000000000000008152600401610fca90611c1f565b60405180910390fd5b5b505050565b600033905090565b6060610ff08484600085610ff9565b90509392505050565b60608247101561103e576040517f08c379a000000000000000000000000000000000000000000000000000000000815260040161103590611cb1565b60405180910390fd5b6110478561110d565b611086576040517f08c379a000000000000000000000000000000000000000000000000000000000815260040161107d90611d1d565b60405180910390fd5b6000808673ffffffffffffffffffffffffffffffffffffffff1685876040516110af9190611dae565b60006040518083038185875af1925050503d80600081146110ec576040519150601f19603f3d011682016040523d82523d6000602084013e6110f1565b606091505b5091509150611101828286611130565b92505050949350505050565b6000808273ffffffffffffffffffffffffffffffffffffffff163b119050919050565b6060831561114057829050611190565b6000835111156111535782518084602001fd5b816040517f08c379a00000000000000000000000000000000000000000000000000000000081526004016111879190611e1a565b60405180910390fd5b9392505050565b6040518060e00160405280600015158152602001600073ffffffffffffffffffffffffffffffffffffffff16815260200160008152602001600081526020016000815260200160008152602001600081525090565b600080fd5b600073ffffffffffffffffffffffffffffffffffffffff82169050919050565b600061121c826111f1565b9050919050565b61122c81611211565b811461123757600080fd5b50565b60008135905061124981611223565b92915050565b6000819050919050565b6112628161124f565b811461126d57600080fd5b50565b60008135905061127f81611259565b92915050565b6000806040838503121561129c5761129b6111ec565b5b60006112aa8582860161123a565b92505060206112bb85828601611270565b9150509250929050565b600080600080600060a086880312156112e1576112e06111ec565b5b60006112ef8882890161123a565b955050602061130088828901611270565b945050604061131188828901611270565b935050606061132288828901611270565b925050608061133388828901611270565b9150509295509295909350565b61134981611211565b82525050565b60006020820190506113646000830184611340565b92915050565b6113738161124f565b82525050565b600060208201905061138e600083018461136a565b92915050565b6000602082840312156113aa576113a96111ec565b5b60006113b88482850161123a565b91505092915050565b60008115159050919050565b6113d6816113c1565b82525050565b6113e581611211565b82525050565b6113f48161124f565b82525050565b60e08201600082015161141060008501826113cd565b50602082015161142360208501826113dc565b50604082015161143660408501826113eb565b50606082015161144960608501826113eb565b50608082015161145c60808501826113eb565b5060a082015161146f60a08501826113eb565b5060c082015161148260c08501826113eb565b50505050565b600060e08201905061149d60008301846113fa565b92915050565b600082825260208201905092915050565b7f5265656e7472616e637947756172643a207265656e7472616e742063616c6c00600082015250565b60006114ea601f836114a3565b91506114f5826114b4565b602082019050919050565b60006020820190508181036000830152611519816114dd565b9050919050565b7f546f6b656e56657374696e673a206f6e6c792062656e6566696369617279206160008201527f6e64206f776e65722063616e2072656c656173652076657374656420746f6b6560208201527f6e73000000000000000000000000000000000000000000000000000000000000604082015250565b60006115a26042836114a3565b91506115ad82611520565b606082019050919050565b600060208201905081810360008301526115d181611595565b9050919050565b7f546f6b656e56657374696e673a2063616e6e6f742072656c6561736520746f6b60008201527f656e732c206e6f7420656e6f7567682076657374656420746f6b656e73000000602082015250565b6000611634603d836114a3565b915061163f826115d8565b604082019050919050565b6000602082019050818103600083015261166381611627565b9050919050565b60008151905061167981611259565b92915050565b600060208284031215611695576116946111ec565b5b60006116a38482850161166a565b91505092915050565b7f546f6b656e56657374696e673a2063616e6e6f7420637265617465207665737460008201527f696e67207363686564756c652062656361757365206e6f74207375666669636960208201527f656e7420746f6b656e7300000000000000000000000000000000000000000000604082015250565b600061172e604a836114a3565b9150611739826116ac565b606082019050919050565b6000602082019050818103600083015261175d81611721565b9050919050565b7f546f6b656e56657374696e673a206475726174696f6e206d757374206265203e60008201527f2030000000000000000000000000000000000000000000000000000000000000602082015250565b60006117c06022836114a3565b91506117cb82611764565b604082019050919050565b600060208201905081810360008301526117ef816117b3565b9050919050565b7f546f6b656e56657374696e673a20616d6f756e74206d757374206265203e2030600082015250565b600061182c6020836114a3565b9150611837826117f6565b602082019050919050565b6000602082019050818103600083015261185b8161181f565b9050919050565b7f546f6b656e56657374696e673a20736c696365506572696f645365636f6e647360008201527f206d757374206265203e3d203100000000000000000000000000000000000000602082015250565b60006118be602d836114a3565b91506118c982611862565b604082019050919050565b600060208201905081810360008301526118ed816118b1565b9050919050565b7f4f776e61626c653a206e6577206f776e657220697320746865207a65726f206160008201527f6464726573730000000000000000000000000000000000000000000000000000602082015250565b60006119506026836114a3565b915061195b826118f4565b604082019050919050565b6000602082019050818103600083015261197f81611943565b9050919050565b7f4e487b7100000000000000000000000000000000000000000000000000000000600052601160045260246000fd5b60006119c08261124f565b91506119cb8361124f565b92508282019050808211156119e3576119e2611986565b5b92915050565b60006119f48261124f565b91506119ff8361124f565b9250828203905081811115611a1757611a16611986565b5b92915050565b6000604082019050611a326000830185611340565b611a3f602083018461136a565b9392505050565b7f4f776e61626c653a2063616c6c6572206973206e6f7420746865206f776e6572600082015250565b6000611a7c6020836114a3565b9150611a8782611a46565b602082019050919050565b60006020820190508181036000830152611aab81611a6f565b9050919050565b7f4e487b7100000000000000000000000000000000000000000000000000000000600052601260045260246000fd5b6000611aec8261124f565b9150611af78361124f565b925082611b0757611b06611ab2565b5b828204905092915050565b6000611b1d8261124f565b9150611b288361124f565b9250828202611b368161124f565b91508282048414831517611b4d57611b4c611986565b5b5092915050565b611b5d816113c1565b8114611b6857600080fd5b50565b600081519050611b7a81611b54565b92915050565b600060208284031215611b9657611b956111ec565b5b6000611ba484828501611b6b565b91505092915050565b7f5361666545524332303a204552433230206f7065726174696f6e20646964206e60008201527f6f74207375636365656400000000000000000000000000000000000000000000602082015250565b6000611c09602a836114a3565b9150611c1482611bad565b604082019050919050565b60006020820190508181036000830152611c3881611bfc565b9050919050565b7f416464726573733a20696e73756666696369656e742062616c616e636520666f60008201527f722063616c6c0000000000000000000000000000000000000000000000000000602082015250565b6000611c9b6026836114a3565b9150611ca682611c3f565b604082019050919050565b60006020820190508181036000830152611cca81611c8e565b9050919050565b7f416464726573733a2063616c6c20746f206e6f6e2d636f6e7472616374000000600082015250565b6000611d07601d836114a3565b9150611d1282611cd1565b602082019050919050565b60006020820190508181036000830152611d3681611cfa565b9050919050565b600081519050919050565b600081905092915050565b60005b83811015611d71578082015181840152602081019050611d56565b60008484015250505050565b6000611d8882611d3d565b611d928185611d48565b9350611da2818560208601611d53565b80840191505092915050565b6000611dba8284611d7d565b915081905092915050565b600081519050919050565b6000601f19601f8301169050919050565b6000611dec82611dc5565b611df681856114a3565b9350611e06818560208601611d53565b611e0f81611dd0565b840191505092915050565b60006020820190508181036000830152611e348184611de1565b90509291505056fea2646970667358221220d71fe64d911c88c123bda214a0fcf2d526e6a032252f9bf4b48412c4295168d064736f6c63430008110033",
  "linkReferences": {},
  "deployedLinkReferences": {}
}