{
  "_format": "hh-sol-artifact-1",
  "contractName": "CyberArenaStaking",
  "sourceName": "contracts/Staking.sol",
  "abi": [
    {
      "anonymous": false,
      "inputs": [
        {
          "indexed": true,
          "internalType": "address",
          "name": "owner",
          "type": "address"
        },
        {
          "indexed": true,
          "internalType": "address",
          "name": "spender",
          "type": "address"
        },
        {
          "indexed": false,
          "internalType": "uint256",
          "name": "value",
          "type": "uint256"
        }
      ],
      "name": "Approval",
      "type": "event"
    },
    {
      "anonymous": false,
      "inputs": [
        {
          "indexed": true,
          "internalType": "address",
          "name": "delegator",
          "type": "address"
        },
        {
          "indexed": true,
          "internalType": "address",
          "name": "fromDelegate",
          "type": "address"
        },
        {
          "indexed": true,
          "internalType": "address",
          "name": "toDelegate",
          "type": "address"
        }
      ],
      "name": "DelegateChanged",
      "type": "event"
    },
    {
      "anonymous": false,
      "inputs": [
        {
          "indexed": true,
          "internalType": "address",
          "name": "delegate",
          "type": "address"
        },
        {
          "indexed": false,
          "internalType": "uint256",
          "name": "previousBalance",
          "type": "uint256"
        },
        {
          "indexed": false,
          "internalType": "uint256",
          "name": "newBalance",
          "type": "uint256"
        }
      ],
      "name": "DelegateVotesChanged",
      "type": "event"
    },
    {
      "anonymous": false,
      "inputs": [
        {
          "indexed": false,
          "internalType": "uint8",
          "name": "version",
          "type": "uint8"
        }
      ],
      "name": "Initialized",
      "type": "event"
    },
    {
      "anonymous": false,
      "inputs": [
        {
          "indexed": true,
          "internalType": "address",
          "name": "previousOwner",
          "type": "address"
        },
        {
          "indexed": true,
          "internalType": "address",
          "name": "newOwner",
          "type": "address"
        }
      ],
      "name": "OwnershipTransferred",
      "type": "event"
    },
    {
      "anonymous": false,
      "inputs": [
        {
          "indexed": true,
          "internalType": "address",
          "name": "from",
          "type": "address"
        },
        {
          "indexed": true,
          "internalType": "address",
          "name": "to",
          "type": "address"
        },
        {
          "indexed": false,
          "internalType": "uint256",
          "name": "value",
          "type": "uint256"
        }
      ],
      "name": "Transfer",
      "type": "event"
    },
    {
      "inputs": [],
      "name": "DOMAIN_SEPARATOR",
      "outputs": [
        {
          "internalType": "bytes32",
          "name": "",
          "type": "bytes32"
        }
      ],
      "stateMutability": "view",
      "type": "function"
    },
    {
      "inputs": [
        {
          "internalType": "address",
          "name": "owner",
          "type": "address"
        },
        {
          "internalType": "address",
          "name": "spender",
          "type": "address"
        }
      ],
      "name": "allowance",
      "outputs": [
        {
          "internalType": "uint256",
          "name": "",
          "type": "uint256"
        }
      ],
      "stateMutability": "view",
      "type": "function"
    },
    {
      "inputs": [
        {
          "internalType": "address",
          "name": "spender",
          "type": "address"
        },
        {
          "internalType": "uint256",
          "name": "amount",
          "type": "uint256"
        }
      ],
      "name": "approve",
      "outputs": [
        {
          "internalType": "bool",
          "name": "",
          "type": "bool"
        }
      ],
      "stateMutability": "nonpayable",
      "type": "function"
    },
    {
      "inputs": [
        {
          "internalType": "address",
          "name": "account",
          "type": "address"
        }
      ],
      "name": "balanceOf",
      "outputs": [
        {
          "internalType": "uint256",
          "name": "",
          "type": "uint256"
        }
      ],
      "stateMutability": "view",
      "type": "function"
    },
    {
      "inputs": [
        {
          "internalType": "address",
          "name": "account",
          "type": "address"
        },
        {
          "internalType": "uint32",
          "name": "pos",
          "type": "uint32"
        }
      ],
      "name": "checkpoints",
      "outputs": [
        {
          "components": [
            {
              "internalType": "uint32",
              "name": "fromBlock",
              "type": "uint32"
            },
            {
              "internalType": "uint224",
              "name": "votes",
              "type": "uint224"
            }
          ],
          "internalType": "struct ERC20VotesUpgradeable.Checkpoint",
          "name": "",
          "type": "tuple"
        }
      ],
      "stateMutability": "view",
      "type": "function"
    },
    {
      "inputs": [],
      "name": "decimals",
      "outputs": [
        {
          "internalType": "uint8",
          "name": "",
          "type": "uint8"
        }
      ],
      "stateMutability": "view",
      "type": "function"
    },
    {
      "inputs": [
        {
          "internalType": "address",
          "name": "spender",
          "type": "address"
        },
        {
          "internalType": "uint256",
          "name": "subtractedValue",
          "type": "uint256"
        }
      ],
      "name": "decreaseAllowance",
      "outputs": [
        {
          "internalType": "bool",
          "name": "",
          "type": "bool"
        }
      ],
      "stateMutability": "nonpayable",
      "type": "function"
    },
    {
      "inputs": [
        {
          "internalType": "address",
          "name": "delegatee",
          "type": "address"
        }
      ],
      "name": "delegate",
      "outputs": [],
      "stateMutability": "nonpayable",
      "type": "function"
    },
    {
      "inputs": [
        {
          "internalType": "address",
          "name": "delegatee",
          "type": "address"
        },
        {
          "internalType": "uint256",
          "name": "nonce",
          "type": "uint256"
        },
        {
          "internalType": "uint256",
          "name": "expiry",
          "type": "uint256"
        },
        {
          "internalType": "uint8",
          "name": "v",
          "type": "uint8"
        },
        {
          "internalType": "bytes32",
          "name": "r",
          "type": "bytes32"
        },
        {
          "internalType": "bytes32",
          "name": "s",
          "type": "bytes32"
        }
      ],
      "name": "delegateBySig",
      "outputs": [],
      "stateMutability": "nonpayable",
      "type": "function"
    },
    {
      "inputs": [
        {
          "internalType": "address",
          "name": "account",
          "type": "address"
        }
      ],
      "name": "delegates",
      "outputs": [
        {
          "internalType": "address",
          "name": "",
          "type": "address"
        }
      ],
      "stateMutability": "view",
      "type": "function"
    },
    {
      "inputs": [
        {
          "internalType": "address",
          "name": "account",
          "type": "address"
        }
      ],
      "name": "getCurrentVotes",
      "outputs": [
        {
          "internalType": "uint96",
          "name": "",
          "type": "uint96"
        }
      ],
      "stateMutability": "view",
      "type": "function"
    },
    {
      "inputs": [
        {
          "internalType": "uint256",
          "name": "blockNumber",
          "type": "uint256"
        }
      ],
      "name": "getPastTotalSupply",
      "outputs": [
        {
          "internalType": "uint256",
          "name": "",
          "type": "uint256"
        }
      ],
      "stateMutability": "view",
      "type": "function"
    },
    {
      "inputs": [
        {
          "internalType": "address",
          "name": "account",
          "type": "address"
        },
        {
          "internalType": "uint256",
          "name": "blockNumber",
          "type": "uint256"
        }
      ],
      "name": "getPastVotes",
      "outputs": [
        {
          "internalType": "uint256",
          "name": "",
          "type": "uint256"
        }
      ],
      "stateMutability": "view",
      "type": "function"
    },
    {
      "inputs": [
        {
          "internalType": "address",
          "name": "account",
          "type": "address"
        },
        {
          "internalType": "uint256",
          "name": "blockNumber",
          "type": "uint256"
        }
      ],
      "name": "getPriorVotes",
      "outputs": [
        {
          "internalType": "uint96",
          "name": "",
          "type": "uint96"
        }
      ],
      "stateMutability": "view",
      "type": "function"
    },
    {
      "inputs": [
        {
          "internalType": "address",
          "name": "account",
          "type": "address"
        }
      ],
      "name": "getVotes",
      "outputs": [
        {
          "internalType": "uint256",
          "name": "",
          "type": "uint256"
        }
      ],
      "stateMutability": "view",
      "type": "function"
    },
    {
      "inputs": [
        {
          "internalType": "address",
          "name": "spender",
          "type": "address"
        },
        {
          "internalType": "uint256",
          "name": "addedValue",
          "type": "uint256"
        }
      ],
      "name": "increaseAllowance",
      "outputs": [
        {
          "internalType": "bool",
          "name": "",
          "type": "bool"
        }
      ],
      "stateMutability": "nonpayable",
      "type": "function"
    },
    {
      "inputs": [
        {
          "internalType": "contract IERC20Upgradeable",
          "name": "_stakingToken",
          "type": "address"
        },
        {
          "internalType": "uint16",
          "name": "_penaltyDays",
          "type": "uint16"
        },
        {
          "internalType": "uint16",
          "name": "_penaltyBP",
          "type": "uint16"
        },
        {
          "internalType": "address",
          "name": "_treasury",
          "type": "address"
        }
      ],
      "name": "initialize",
      "outputs": [],
      "stateMutability": "nonpayable",
      "type": "function"
    },
    {
      "inputs": [],
      "name": "name",
      "outputs": [
        {
          "internalType": "string",
          "name": "",
          "type": "string"
        }
      ],
      "stateMutability": "view",
      "type": "function"
    },
    {
      "inputs": [
        {
          "internalType": "address",
          "name": "owner",
          "type": "address"
        }
      ],
      "name": "nonces",
      "outputs": [
        {
          "internalType": "uint256",
          "name": "",
          "type": "uint256"
        }
      ],
      "stateMutability": "view",
      "type": "function"
    },
    {
      "inputs": [
        {
          "internalType": "address",
          "name": "account",
          "type": "address"
        }
      ],
      "name": "numCheckpoints",
      "outputs": [
        {
          "internalType": "uint32",
          "name": "",
          "type": "uint32"
        }
      ],
      "stateMutability": "view",
      "type": "function"
    },
    {
      "inputs": [],
      "name": "owner",
      "outputs": [
        {
          "internalType": "address",
          "name": "",
          "type": "address"
        }
      ],
      "stateMutability": "view",
      "type": "function"
    },
    {
      "inputs": [],
      "name": "penaltyBP",
      "outputs": [
        {
          "internalType": "uint16",
          "name": "",
          "type": "uint16"
        }
      ],
      "stateMutability": "view",
      "type": "function"
    },
    {
      "inputs": [],
      "name": "penaltyDays",
      "outputs": [
        {
          "internalType": "uint16",
          "name": "",
          "type": "uint16"
        }
      ],
      "stateMutability": "view",
      "type": "function"
    },
    {
      "inputs": [
        {
          "internalType": "address",
          "name": "owner",
          "type": "address"
        },
        {
          "internalType": "address",
          "name": "spender",
          "type": "address"
        },
        {
          "internalType": "uint256",
          "name": "value",
          "type": "uint256"
        },
        {
          "internalType": "uint256",
          "name": "deadline",
          "type": "uint256"
        },
        {
          "internalType": "uint8",
          "name": "v",
          "type": "uint8"
        },
        {
          "internalType": "bytes32",
          "name": "r",
          "type": "bytes32"
        },
        {
          "internalType": "bytes32",
          "name": "s",
          "type": "bytes32"
        }
      ],
      "name": "permit",
      "outputs": [],
      "stateMutability": "nonpayable",
      "type": "function"
    },
    {
      "inputs": [],
      "name": "renounceOwnership",
      "outputs": [],
      "stateMutability": "nonpayable",
      "type": "function"
    },
    {
      "inputs": [
        {
          "internalType": "uint16",
          "name": "_penaltyBP",
          "type": "uint16"
        }
      ],
      "name": "setPenaltyBP",
      "outputs": [],
      "stateMutability": "nonpayable",
      "type": "function"
    },
    {
      "inputs": [
        {
          "internalType": "uint16",
          "name": "_penaltyDays",
          "type": "uint16"
        }
      ],
      "name": "setPenaltyDays",
      "outputs": [],
      "stateMutability": "nonpayable",
      "type": "function"
    },
    {
      "inputs": [
        {
          "internalType": "address",
          "name": "_treasury",
          "type": "address"
        }
      ],
      "name": "setTreasury",
      "outputs": [],
      "stateMutability": "nonpayable",
      "type": "function"
    },
    {
      "inputs": [
        {
          "internalType": "uint128",
          "name": "_amount",
          "type": "uint128"
        }
      ],
      "name": "stake",
      "outputs": [],
      "stateMutability": "nonpayable",
      "type": "function"
    },
    {
      "inputs": [
        {
          "internalType": "address",
          "name": "",
          "type": "address"
        },
        {
          "internalType": "uint256",
          "name": "",
          "type": "uint256"
        }
      ],
      "name": "stakers",
      "outputs": [
        {
          "internalType": "bool",
          "name": "unstaked",
          "type": "bool"
        },
        {
          "internalType": "uint128",
          "name": "amount",
          "type": "uint128"
        },
        {
          "internalType": "uint48",
          "name": "stakedTimestamp",
          "type": "uint48"
        },
        {
          "internalType": "uint16",
          "name": "penaltyDays",
          "type": "uint16"
        },
        {
          "internalType": "uint16",
          "name": "penaltyBP",
          "type": "uint16"
        },
        {
          "internalType": "uint192",
          "name": "shares",
          "type": "uint192"
        }
      ],
      "stateMutability": "view",
      "type": "function"
    },
    {
      "inputs": [],
      "name": "stakingToken",
      "outputs": [
        {
          "internalType": "contract IERC20Upgradeable",
          "name": "",
          "type": "address"
        }
      ],
      "stateMutability": "view",
      "type": "function"
    },
    {
      "inputs": [],
      "name": "symbol",
      "outputs": [
        {
          "internalType": "string",
          "name": "",
          "type": "string"
        }
      ],
      "stateMutability": "view",
      "type": "function"
    },
    {
      "inputs": [],
      "name": "totalShares",
      "outputs": [
        {
          "internalType": "uint192",
          "name": "",
          "type": "uint192"
        }
      ],
      "stateMutability": "view",
      "type": "function"
    },
    {
      "inputs": [],
      "name": "totalSupply",
      "outputs": [
        {
          "internalType": "uint256",
          "name": "",
          "type": "uint256"
        }
      ],
      "stateMutability": "view",
      "type": "function"
    },
    {
      "inputs": [
        {
          "internalType": "address",
          "name": "to",
          "type": "address"
        },
        {
          "internalType": "uint256",
          "name": "amount",
          "type": "uint256"
        }
      ],
      "name": "transfer",
      "outputs": [
        {
          "internalType": "bool",
          "name": "",
          "type": "bool"
        }
      ],
      "stateMutability": "nonpayable",
      "type": "function"
    },
    {
      "inputs": [
        {
          "internalType": "address",
          "name": "from",
          "type": "address"
        },
        {
          "internalType": "address",
          "name": "to",
          "type": "address"
        },
        {
          "internalType": "uint256",
          "name": "amount",
          "type": "uint256"
        }
      ],
      "name": "transferFrom",
      "outputs": [
        {
          "internalType": "bool",
          "name": "",
          "type": "bool"
        }
      ],
      "stateMutability": "nonpayable",
      "type": "function"
    },
    {
      "inputs": [
        {
          "internalType": "address",
          "name": "newOwner",
          "type": "address"
        }
      ],
      "name": "transferOwnership",
      "outputs": [],
      "stateMutability": "nonpayable",
      "type": "function"
    },
    {
      "inputs": [],
      "name": "treasury",
      "outputs": [
        {
          "internalType": "address",
          "name": "",
          "type": "address"
        }
      ],
      "stateMutability": "view",
      "type": "function"
    },
    {
      "inputs": [
        {
          "internalType": "uint256",
          "name": "_stakeIndex",
          "type": "uint256"
        }
      ],
      "name": "unstake",
      "outputs": [],
      "stateMutability": "nonpayable",
      "type": "function"
    }
  ],
  "bytecode": "0x608060405234801561001057600080fd5b50615f8d80620000216000396000f3fe608060405234801561001057600080fd5b506004361061023d5760003560e01c80637ecebe001161013b578063bacb4c57116100b8578063ee2b44e41161007c578063ee2b44e414610741578063ef5509bb1461075f578063f0f442601461077b578063f1127ed814610797578063f2fde38b146107c75761023d565b8063bacb4c5714610688578063c3cda520146106a4578063c8b6cbf7146106c0578063d505accf146106f5578063dd62ed3e146107115761023d565b80639ab24eb0116100ff5780639ab24eb0146105aa578063a457c2d7146105da578063a5582c3e1461060a578063a9059cbb14610628578063b4b5ea57146106585761023d565b80637ecebe00146104f257806388fe2be8146105225780638da5cb5b1461053e5780638e539e8c1461055c57806395d89b411461058c5761023d565b80633a46b1a8116101c95780636fcfff451161018d5780636fcfff451461043a57806370a082311461046a578063715018a61461049a57806372f702f3146104a4578063782d6fe1146104c25761023d565b80633a46b1a8146103825780633a98ef39146103b2578063587cde1e146103d05780635c19a95c1461040057806361d027b31461041c5761023d565b80632932e77a116102105780632932e77a146102de5780632e17de78146102fa578063313ce567146103165780633644e5151461033457806339509351146103525761023d565b806306fdde0314610242578063095ea7b31461026057806318160ddd1461029057806323b872dd146102ae575b600080fd5b61024a6107e3565b6040516102579190613c3b565b60405180910390f35b61027a60048036038101906102759190613cf6565b610875565b6040516102879190613d51565b60405180910390f35b610298610898565b6040516102a59190613d7b565b60405180910390f35b6102c860048036038101906102c39190613d96565b6108a2565b6040516102d59190613d51565b60405180910390f35b6102f860048036038101906102f39190613e23565b6108d1565b005b610314600480360381019061030f9190613e50565b6108fa565b005b61031e610d4d565b60405161032b9190613e99565b60405180910390f35b61033c610d56565b6040516103499190613ecd565b60405180910390f35b61036c60048036038101906103679190613cf6565b610d65565b6040516103799190613d51565b60405180910390f35b61039c60048036038101906103979190613cf6565b610d9c565b6040516103a99190613d7b565b60405180910390f35b6103ba610e30565b6040516103c79190613f1b565b60405180910390f35b6103ea60048036038101906103e59190613f36565b610e5b565b6040516103f79190613f72565b60405180910390f35b61041a60048036038101906104159190613f36565b610ec4565b005b610424610ed8565b6040516104319190613f72565b60405180910390f35b610454600480360381019061044f9190613f36565b610eff565b6040516104619190613fac565b60405180910390f35b610484600480360381019061047f9190613f36565b610f53565b6040516104919190613d7b565b60405180910390f35b6104a2610f9c565b005b6104ac610fb0565b6040516104b99190614026565b60405180910390f35b6104dc60048036038101906104d79190613cf6565b610fd7565b6040516104e99190614068565b60405180910390f35b61050c60048036038101906105079190613f36565b610ff3565b6040516105199190613d7b565b60405180910390f35b61053c600480360381019061053791906140cb565b611043565b005b6105466113db565b6040516105539190613f72565b60405180910390f35b61057660048036038101906105719190613e50565b611406565b6040516105839190613d7b565b60405180910390f35b61059461145c565b6040516105a19190613c3b565b60405180910390f35b6105c460048036038101906105bf9190613f36565b6114ee565b6040516105d19190613d7b565b60405180910390f35b6105f460048036038101906105ef9190613cf6565b6115ff565b6040516106019190613d51565b60405180910390f35b610612611676565b60405161061f9190614107565b60405180910390f35b610642600480360381019061063d9190613cf6565b61168b565b60405161064f9190613d51565b60405180910390f35b610672600480360381019061066d9190613f36565b6116ae565b60405161067f9190614068565b60405180910390f35b6106a2600480360381019061069d9190613e23565b6116c8565b005b6106be60048036038101906106b9919061417a565b6116f1565b005b6106da60048036038101906106d59190613cf6565b6117f5565b6040516106ec96959493929190614237565b60405180910390f35b61070f600480360381019061070a9190614298565b6118ca565b005b61072b6004803603810190610726919061433a565b611a0c565b6040516107389190613d7b565b60405180910390f35b610749611a93565b6040516107569190614107565b60405180910390f35b610779600480360381019061077491906143b8565b611aa8565b005b61079560048036038101906107909190613f36565b611e42565b005b6107b160048036038101906107ac919061444b565b611e8f565b6040516107be9190614500565b60405180910390f35b6107e160048036038101906107dc9190613f36565b611f9f565b005b6060603680546107f29061454a565b80601f016020809104026020016040519081016040528092919081815260200182805461081e9061454a565b801561086b5780601f106108405761010080835404028352916020019161086b565b820191906000526020600020905b81548152906001019060200180831161084e57829003601f168201915b5050505050905090565b600080610880612022565b905061088d81858561202a565b600191505092915050565b6000603554905090565b6000806108ad612022565b90506108ba8582856121f3565b6108c585858561227f565b60019150509392505050565b6108d96122ba565b8061019660006101000a81548161ffff021916908361ffff16021790555050565b60026101625403610940576040517f08c379a0000000000000000000000000000000000000000000000000000000008152600401610937906145c7565b60405180910390fd5b60026101628190555061019560003373ffffffffffffffffffffffffffffffffffffffff1673ffffffffffffffffffffffffffffffffffffffff1681526020019081526020016000208054905081106109ce576040517f08c379a00000000000000000000000000000000000000000000000000000000081526004016109c590614633565b60405180910390fd5b600061019560003373ffffffffffffffffffffffffffffffffffffffff1673ffffffffffffffffffffffffffffffffffffffff1681526020019081526020016000208281548110610a2257610a21614653565b5b906000526020600020906002020190508060000160009054906101000a900460ff1615610a84576040517f08c379a0000000000000000000000000000000000000000000000000000000008152600401610a7b906146f4565b60405180910390fd5b610ac0338260000160019054906101000a90046fffffffffffffffffffffffffffffffff166fffffffffffffffffffffffffffffffff16612338565b8060010160009054906101000a900477ffffffffffffffffffffffffffffffffffffffffffffffff1661019760008282829054906101000a900477ffffffffffffffffffffffffffffffffffffffffffffffff16610b1e9190614743565b92506101000a81548177ffffffffffffffffffffffffffffffffffffffffffffffff021916908377ffffffffffffffffffffffffffffffffffffffffffffffff16021790555060018160000160006101000a81548160ff0219169083151502179055506000610b8b612356565b620151808360000160179054906101000a900461ffff1661ffff16610bb0919061478f565b8360000160119054906101000a900465ffffffffffff16610bd191906147cc565b65ffffffffffff161115610cb4576127108260000160199054906101000a900461ffff1661ffff168360000160019054906101000a90046fffffffffffffffffffffffffffffffff16610c249190614806565b610c2e9190614872565b6fffffffffffffffffffffffffffffffff169050610cb361019660049054906101000a900473ffffffffffffffffffffffffffffffffffffffff168261019460009054906101000a900473ffffffffffffffffffffffffffffffffffffffff1673ffffffffffffffffffffffffffffffffffffffff1661235e9092919063ffffffff16565b5b610d3f33828460000160019054906101000a90046fffffffffffffffffffffffffffffffff166fffffffffffffffffffffffffffffffff16610cf691906148a3565b61019460009054906101000a900473ffffffffffffffffffffffffffffffffffffffff1673ffffffffffffffffffffffffffffffffffffffff1661235e9092919063ffffffff16565b505060016101628190555050565b60006012905090565b6000610d606123e4565b905090565b600080610d70612022565b9050610d91818585610d828589611a0c565b610d8c91906148d7565b61202a565b600191505092915050565b6000438210610de0576040517f08c379a0000000000000000000000000000000000000000000000000000000008152600401610dd790614957565b60405180910390fd5b610e2860cd60008573ffffffffffffffffffffffffffffffffffffffff1673ffffffffffffffffffffffffffffffffffffffff16815260200190815260200160002083612424565b905092915050565b61019760009054906101000a900477ffffffffffffffffffffffffffffffffffffffffffffffff1681565b600060cc60008373ffffffffffffffffffffffffffffffffffffffff1673ffffffffffffffffffffffffffffffffffffffff16815260200190815260200160002060009054906101000a900473ffffffffffffffffffffffffffffffffffffffff169050919050565b610ed5610ecf612022565b82612530565b50565b61019660049054906101000a900473ffffffffffffffffffffffffffffffffffffffff1681565b6000610f4c60cd60008473ffffffffffffffffffffffffffffffffffffffff1673ffffffffffffffffffffffffffffffffffffffff1681526020019081526020016000208054905061264a565b9050919050565b6000603360008373ffffffffffffffffffffffffffffffffffffffff1673ffffffffffffffffffffffffffffffffffffffff168152602001908152602001600020549050919050565b610fa46122ba565b610fae600061269d565b565b61019460009054906101000a900473ffffffffffffffffffffffffffffffffffffffff1681565b6000610feb610fe68484610d9c565b612765565b905092915050565b600061103c609960008473ffffffffffffffffffffffffffffffffffffffff1673ffffffffffffffffffffffffffffffffffffffff1681526020019081526020016000206127c0565b9050919050565b60026101625403611089576040517f08c379a0000000000000000000000000000000000000000000000000000000008152600401611080906145c7565b60405180910390fd5b6002610162819055506110f43330836fffffffffffffffffffffffffffffffff1661019460009054906101000a900473ffffffffffffffffffffffffffffffffffffffff1673ffffffffffffffffffffffffffffffffffffffff166127ce909392919063ffffffff16565b61111033826fffffffffffffffffffffffffffffffff16612857565b806fffffffffffffffffffffffffffffffff1661019760008282829054906101000a900477ffffffffffffffffffffffffffffffffffffffffffffffff166111589190614977565b92506101000a81548177ffffffffffffffffffffffffffffffffffffffffffffffff021916908377ffffffffffffffffffffffffffffffffffffffffffffffff16021790555061019560003373ffffffffffffffffffffffffffffffffffffffff1673ffffffffffffffffffffffffffffffffffffffff1681526020019081526020016000206040518060c00160405280600015158152602001836fffffffffffffffffffffffffffffffff168152602001611212612356565b65ffffffffffff16815260200161019660009054906101000a900461ffff1661ffff16815260200161019660029054906101000a900461ffff1661ffff168152602001836fffffffffffffffffffffffffffffffff1677ffffffffffffffffffffffffffffffffffffffffffffffff16815250908060018154018082558091505060019003906000526020600020906002020160009091909190915060008201518160000160006101000a81548160ff02191690831515021790555060208201518160000160016101000a8154816fffffffffffffffffffffffffffffffff02191690836fffffffffffffffffffffffffffffffff16021790555060408201518160000160116101000a81548165ffffffffffff021916908365ffffffffffff16021790555060608201518160000160176101000a81548161ffff021916908361ffff16021790555060808201518160000160196101000a81548161ffff021916908361ffff16021790555060a08201518160010160006101000a81548177ffffffffffffffffffffffffffffffffffffffffffffffff021916908377ffffffffffffffffffffffffffffffffffffffffffffffff160217905550505060016101628190555050565b600061013060009054906101000a900473ffffffffffffffffffffffffffffffffffffffff16905090565b600043821061144a576040517f08c379a000000000000000000000000000000000000000000000000000000000815260040161144190614957565b60405180910390fd5b61145560ce83612424565b9050919050565b60606037805461146b9061454a565b80601f01602080910402602001604051908101604052809291908181526020018280546114979061454a565b80156114e45780601f106114b9576101008083540402835291602001916114e4565b820191906000526020600020905b8154815290600101906020018083116114c757829003601f168201915b5050505050905090565b60008060cd60008473ffffffffffffffffffffffffffffffffffffffff1673ffffffffffffffffffffffffffffffffffffffff168152602001908152602001600020805490509050600081146115d65760cd60008473ffffffffffffffffffffffffffffffffffffffff1673ffffffffffffffffffffffffffffffffffffffff16815260200190815260200160002060018261158a91906148a3565b8154811061159b5761159a614653565b5b9060005260206000200160000160049054906101000a90047bffffffffffffffffffffffffffffffffffffffffffffffffffffffff166115d9565b60005b7bffffffffffffffffffffffffffffffffffffffffffffffffffffffff16915050919050565b60008061160a612022565b905060006116188286611a0c565b90508381101561165d576040517f08c379a000000000000000000000000000000000000000000000000000000000815260040161165490614a35565b60405180910390fd5b61166a828686840361202a565b60019250505092915050565b61019660029054906101000a900461ffff1681565b600080611696612022565b90506116a381858561227f565b600191505092915050565b60006116c16116bc836114ee565b612765565b9050919050565b6116d06122ba565b8061019660026101000a81548161ffff021916908361ffff16021790555050565b83421115611734576040517f08c379a000000000000000000000000000000000000000000000000000000000815260040161172b90614aa1565b60405180910390fd5b600061179661178e7fe48329057bfd03d55e49b547132e39cffd9c1820ad7b9d4c5307691425d15adf8989896040516020016117739493929190614ac1565b604051602081830303815290604052805190602001206128e4565b8585856128fe565b90506117a181612929565b86146117e2576040517f08c379a00000000000000000000000000000000000000000000000000000000081526004016117d990614b52565b60405180910390fd5b6117ec8188612530565b50505050505050565b610195602052816000526040600020818154811061181257600080fd5b9060005260206000209060020201600091509150508060000160009054906101000a900460ff16908060000160019054906101000a90046fffffffffffffffffffffffffffffffff16908060000160119054906101000a900465ffffffffffff16908060000160179054906101000a900461ffff16908060000160199054906101000a900461ffff16908060010160009054906101000a900477ffffffffffffffffffffffffffffffffffffffffffffffff16905086565b8342111561190d576040517f08c379a000000000000000000000000000000000000000000000000000000000815260040161190490614bbe565b60405180910390fd5b60007f6e71edae12b1b97f4d1f60370fef10105fa2faae0126114a169c64845d6126c988888861193c8c612929565b8960405160200161195296959493929190614bde565b6040516020818303038152906040528051906020012090506000611975826128e4565b90506000611985828787876128fe565b90508973ffffffffffffffffffffffffffffffffffffffff168173ffffffffffffffffffffffffffffffffffffffff16146119f5576040517f08c379a00000000000000000000000000000000000000000000000000000000081526004016119ec90614c8b565b60405180910390fd5b611a008a8a8a61202a565b50505050505050505050565b6000603460008473ffffffffffffffffffffffffffffffffffffffff1673ffffffffffffffffffffffffffffffffffffffff16815260200190815260200160002060008373ffffffffffffffffffffffffffffffffffffffff1673ffffffffffffffffffffffffffffffffffffffff16815260200190815260200160002054905092915050565b61019660009054906101000a900461ffff1681565b60008060019054906101000a900460ff16159050808015611ad95750600160008054906101000a900460ff1660ff16105b80611b065750611ae830612987565b158015611b055750600160008054906101000a900460ff1660ff16145b5b611b45576040517f08c379a0000000000000000000000000000000000000000000000000000000008152600401611b3c90614d1d565b60405180910390fd5b60016000806101000a81548160ff021916908360ff1602179055508015611b82576001600060016101000a81548160ff0219169083151502179055505b611bf66040518060400160405280600a81526020017f5374616b656420434154000000000000000000000000000000000000000000008152506040518060400160405280600581526020017f73744341540000000000000000000000000000000000000000000000000000008152506129aa565b611c346040518060400160405280600a81526020017f5374616b65642043415400000000000000000000000000000000000000000000815250612a07565b611c3c612a98565b611c44612af1565b600073ffffffffffffffffffffffffffffffffffffffff168573ffffffffffffffffffffffffffffffffffffffff1603611cb3576040517f08c379a0000000000000000000000000000000000000000000000000000000008152600401611caa90614daf565b60405180910390fd5b600073ffffffffffffffffffffffffffffffffffffffff168273ffffffffffffffffffffffffffffffffffffffff1603611d22576040517f08c379a0000000000000000000000000000000000000000000000000000000008152600401611d1990614e41565b60405180910390fd5b8461019460006101000a81548173ffffffffffffffffffffffffffffffffffffffff021916908373ffffffffffffffffffffffffffffffffffffffff1602179055508361019660006101000a81548161ffff021916908361ffff1602179055508261019660026101000a81548161ffff021916908361ffff1602179055508161019660046101000a81548173ffffffffffffffffffffffffffffffffffffffff021916908373ffffffffffffffffffffffffffffffffffffffff1602179055508015611e3b5760008060016101000a81548160ff0219169083151502179055507f7f26b83ff96e1f2b6a682f133852f6798a09c465da95921460cefb38474024986001604051611e329190614e9c565b60405180910390a15b5050505050565b611e4a6122ba565b8061019660046101000a81548173ffffffffffffffffffffffffffffffffffffffff021916908373ffffffffffffffffffffffffffffffffffffffff16021790555050565b611e97613b6d565b60cd60008473ffffffffffffffffffffffffffffffffffffffff1673ffffffffffffffffffffffffffffffffffffffff1681526020019081526020016000208263ffffffff1681548110611eee57611eed614653565b5b906000526020600020016040518060400160405290816000820160009054906101000a900463ffffffff1663ffffffff1663ffffffff1681526020016000820160049054906101000a90047bffffffffffffffffffffffffffffffffffffffffffffffffffffffff167bffffffffffffffffffffffffffffffffffffffffffffffffffffffff167bffffffffffffffffffffffffffffffffffffffffffffffffffffffff1681525050905092915050565b611fa76122ba565b600073ffffffffffffffffffffffffffffffffffffffff168173ffffffffffffffffffffffffffffffffffffffff1603612016576040517f08c379a000000000000000000000000000000000000000000000000000000000815260040161200d90614f29565b60405180910390fd5b61201f8161269d565b50565b600033905090565b600073ffffffffffffffffffffffffffffffffffffffff168373ffffffffffffffffffffffffffffffffffffffff1603612099576040517f08c379a000000000000000000000000000000000000000000000000000000000815260040161209090614fbb565b60405180910390fd5b600073ffffffffffffffffffffffffffffffffffffffff168273ffffffffffffffffffffffffffffffffffffffff1603612108576040517f08c379a00000000000000000000000000000000000000000000000000000000081526004016120ff9061504d565b60405180910390fd5b80603460008573ffffffffffffffffffffffffffffffffffffffff1673ffffffffffffffffffffffffffffffffffffffff16815260200190815260200160002060008473ffffffffffffffffffffffffffffffffffffffff1673ffffffffffffffffffffffffffffffffffffffff168152602001908152602001600020819055508173ffffffffffffffffffffffffffffffffffffffff168373ffffffffffffffffffffffffffffffffffffffff167f8c5be1e5ebec7d5bd14f71427d1e84f3dd0314c0f7b2291e5b200ac8c7c3b925836040516121e69190613d7b565b60405180910390a3505050565b60006121ff8484611a0c565b90507fffffffffffffffffffffffffffffffffffffffffffffffffffffffffffffffff8114612279578181101561226b576040517f08c379a0000000000000000000000000000000000000000000000000000000008152600401612262906150b9565b60405180910390fd5b612278848484840361202a565b5b50505050565b6040517f08c379a00000000000000000000000000000000000000000000000000000000081526004016122b19061514b565b60405180910390fd5b6122c2612022565b73ffffffffffffffffffffffffffffffffffffffff166122e06113db565b73ffffffffffffffffffffffffffffffffffffffff1614612336576040517f08c379a000000000000000000000000000000000000000000000000000000000815260040161232d906151b7565b60405180910390fd5b565b6123428282612b4a565b61235060ce612d2283612d38565b50505050565b600042905090565b6123df8363a9059cbb60e01b848460405160240161237d9291906151d7565b604051602081830303815290604052907bffffffffffffffffffffffffffffffffffffffffffffffffffffffff19166020820180517bffffffffffffffffffffffffffffffffffffffffffffffffffffffff8381831617835250505050612fb0565b505050565b600061241f7f8b73c3c69bb8fe3d512ecc4cf759cc79239f7b179b0ffacaa9a75d522b39400f612412613077565b61241a613081565b61308b565b905090565b6000808380549050905060005b818110156124a357600061244582846130c5565b90508486828154811061245b5761245a614653565b5b9060005260206000200160000160009054906101000a900463ffffffff1663ffffffff16111561248d5780925061249d565b60018161249a91906148d7565b91505b50612431565b6000821461250557846001836124b991906148a3565b815481106124ca576124c9614653565b5b9060005260206000200160000160049054906101000a90047bffffffffffffffffffffffffffffffffffffffffffffffffffffffff16612508565b60005b7bffffffffffffffffffffffffffffffffffffffffffffffffffffffff169250505092915050565b600061253b83610e5b565b9050600061254884610f53565b90508260cc60008673ffffffffffffffffffffffffffffffffffffffff1673ffffffffffffffffffffffffffffffffffffffff16815260200190815260200160002060006101000a81548173ffffffffffffffffffffffffffffffffffffffff021916908373ffffffffffffffffffffffffffffffffffffffff1602179055508273ffffffffffffffffffffffffffffffffffffffff168273ffffffffffffffffffffffffffffffffffffffff168573ffffffffffffffffffffffffffffffffffffffff167f3134e8a2e6d97e929a7e54011ea5485d7d196dd5f0ba4d4ef95803e8e3fc257f60405160405180910390a46126448284836130eb565b50505050565b600063ffffffff8016821115612695576040517f08c379a000000000000000000000000000000000000000000000000000000000815260040161268c90615272565b60405180910390fd5b819050919050565b600061013060009054906101000a900473ffffffffffffffffffffffffffffffffffffffff1690508161013060006101000a81548173ffffffffffffffffffffffffffffffffffffffff021916908373ffffffffffffffffffffffffffffffffffffffff1602179055508173ffffffffffffffffffffffffffffffffffffffff168173ffffffffffffffffffffffffffffffffffffffff167f8be0079c531659141344cd1fd0a4f28419497f9722a3daafe3b4186f6b6457e060405160405180910390a35050565b60006bffffffffffffffffffffffff80168211156127b8576040517f08c379a00000000000000000000000000000000000000000000000000000000081526004016127af90615304565b60405180910390fd5b819050919050565b600081600001549050919050565b612851846323b872dd60e01b8585856040516024016127ef93929190615324565b604051602081830303815290604052907bffffffffffffffffffffffffffffffffffffffffffffffffffffffff19166020820180517bffffffffffffffffffffffffffffffffffffffffffffffffffffffff8381831617835250505050612fb0565b50505050565b61286182826132e4565b612869613444565b7bffffffffffffffffffffffffffffffffffffffffffffffffffffffff1661288f610898565b11156128d0576040517f08c379a00000000000000000000000000000000000000000000000000000000081526004016128c7906153cd565b60405180910390fd5b6128de60ce61345a83612d38565b50505050565b60006128f76128f16123e4565b83613470565b9050919050565b600080600061290f878787876134a3565b9150915061291c816135af565b8192505050949350505050565b600080609960008473ffffffffffffffffffffffffffffffffffffffff1673ffffffffffffffffffffffffffffffffffffffff1681526020019081526020016000209050612976816127c0565b91506129818161377b565b50919050565b6000808273ffffffffffffffffffffffffffffffffffffffff163b119050919050565b600060019054906101000a900460ff166129f9576040517f08c379a00000000000000000000000000000000000000000000000000000000081526004016129f09061545f565b60405180910390fd5b612a038282613791565b5050565b600060019054906101000a900460ff16612a56576040517f08c379a0000000000000000000000000000000000000000000000000000000008152600401612a4d9061545f565b60405180910390fd5b612a95816040518060400160405280600181526020017f3100000000000000000000000000000000000000000000000000000000000000815250613804565b50565b600060019054906101000a900460ff16612ae7576040517f08c379a0000000000000000000000000000000000000000000000000000000008152600401612ade9061545f565b60405180910390fd5b612aef61387f565b565b600060019054906101000a900460ff16612b40576040517f08c379a0000000000000000000000000000000000000000000000000000000008152600401612b379061545f565b60405180910390fd5b612b486138e0565b565b600073ffffffffffffffffffffffffffffffffffffffff168273ffffffffffffffffffffffffffffffffffffffff1603612bb9576040517f08c379a0000000000000000000000000000000000000000000000000000000008152600401612bb0906154f1565b60405180910390fd5b612bc58260008361393a565b6000603360008473ffffffffffffffffffffffffffffffffffffffff1673ffffffffffffffffffffffffffffffffffffffff16815260200190815260200160002054905081811015612c4c576040517f08c379a0000000000000000000000000000000000000000000000000000000008152600401612c4390615583565b60405180910390fd5b818103603360008573ffffffffffffffffffffffffffffffffffffffff1673ffffffffffffffffffffffffffffffffffffffff168152602001908152602001600020819055508160356000828254612ca491906148a3565b92505081905550600073ffffffffffffffffffffffffffffffffffffffff168373ffffffffffffffffffffffffffffffffffffffff167fddf252ad1be2c89b69c2b068fc378daa952ba7f163c4a11628f55a4df523b3ef84604051612d099190613d7b565b60405180910390a3612d1d8360008461393f565b505050565b60008183612d3091906148a3565b905092915050565b60008060008580549050905060008114612da65785600182612d5a91906148a3565b81548110612d6b57612d6a614653565b5b9060005260206000200160000160049054906101000a90047bffffffffffffffffffffffffffffffffffffffffffffffffffffffff16612da9565b60005b7bffffffffffffffffffffffffffffffffffffffffffffffffffffffff169250612dd783858763ffffffff16565b9150600081118015612e2a57504386600183612df391906148a3565b81548110612e0457612e03614653565b5b9060005260206000200160000160009054906101000a900463ffffffff1663ffffffff16145b15612eb757612e388261396a565b86600183612e4691906148a3565b81548110612e5757612e56614653565b5b9060005260206000200160000160046101000a8154817bffffffffffffffffffffffffffffffffffffffffffffffffffffffff02191690837bffffffffffffffffffffffffffffffffffffffffffffffffffffffff160217905550612fa7565b856040518060400160405280612ecc4361264a565b63ffffffff168152602001612ee08561396a565b7bffffffffffffffffffffffffffffffffffffffffffffffffffffffff168152509080600181540180825580915050600190039060005260206000200160009091909190915060008201518160000160006101000a81548163ffffffff021916908363ffffffff16021790555060208201518160000160046101000a8154817bffffffffffffffffffffffffffffffffffffffffffffffffffffffff02191690837bffffffffffffffffffffffffffffffffffffffffffffffffffffffff16021790555050505b50935093915050565b6000613012826040518060400160405280602081526020017f5361666545524332303a206c6f772d6c6576656c2063616c6c206661696c65648152508573ffffffffffffffffffffffffffffffffffffffff166139d59092919063ffffffff16565b9050600081511115613072578080602001905181019061303291906155cf565b613071576040517f08c379a00000000000000000000000000000000000000000000000000000000081526004016130689061566e565b60405180910390fd5b5b505050565b6000606554905090565b6000606654905090565b600083838346306040516020016130a695949392919061568e565b6040516020818303038152906040528051906020012090509392505050565b600060028284186130d691906156e1565b8284166130e391906148d7565b905092915050565b8173ffffffffffffffffffffffffffffffffffffffff168373ffffffffffffffffffffffffffffffffffffffff16141580156131275750600081115b156132df57600073ffffffffffffffffffffffffffffffffffffffff168373ffffffffffffffffffffffffffffffffffffffff1614613205576000806131ae60cd60008773ffffffffffffffffffffffffffffffffffffffff1673ffffffffffffffffffffffffffffffffffffffff168152602001908152602001600020612d2285612d38565b915091508473ffffffffffffffffffffffffffffffffffffffff167fdec2bacdd2f05b59de34da9b523dff8be42e5e38e818c82fdb0bae774387a72483836040516131fa929190615712565b60405180910390a250505b600073ffffffffffffffffffffffffffffffffffffffff168273ffffffffffffffffffffffffffffffffffffffff16146132de5760008061328760cd60008673ffffffffffffffffffffffffffffffffffffffff1673ffffffffffffffffffffffffffffffffffffffff16815260200190815260200160002061345a85612d38565b915091508373ffffffffffffffffffffffffffffffffffffffff167fdec2bacdd2f05b59de34da9b523dff8be42e5e38e818c82fdb0bae774387a72483836040516132d3929190615712565b60405180910390a250505b5b505050565b600073ffffffffffffffffffffffffffffffffffffffff168273ffffffffffffffffffffffffffffffffffffffff1603613353576040517f08c379a000000000000000000000000000000000000000000000000000000000815260040161334a90615787565b60405180910390fd5b61335f6000838361393a565b806035600082825461337191906148d7565b9250508190555080603360008473ffffffffffffffffffffffffffffffffffffffff1673ffffffffffffffffffffffffffffffffffffffff16815260200190815260200160002060008282546133c791906148d7565b925050819055508173ffffffffffffffffffffffffffffffffffffffff16600073ffffffffffffffffffffffffffffffffffffffff167fddf252ad1be2c89b69c2b068fc378daa952ba7f163c4a11628f55a4df523b3ef8360405161342c9190613d7b565b60405180910390a36134406000838361393f565b5050565b60006bffffffffffffffffffffffff8016905090565b6000818361346891906148d7565b905092915050565b6000828260405160200161348592919061581f565b60405160208183030381529060405280519060200120905092915050565b6000807f7fffffffffffffffffffffffffffffff5d576e7357a4501ddfe92f46681b20a08360001c11156134de5760006003915091506135a6565b601b8560ff16141580156134f65750601c8560ff1614155b156135085760006004915091506135a6565b60006001878787876040516000815260200160405260405161352d9493929190615856565b6020604051602081039080840390855afa15801561354f573d6000803e3d6000fd5b505050602060405103519050600073ffffffffffffffffffffffffffffffffffffffff168173ffffffffffffffffffffffffffffffffffffffff160361359d576000600192509250506135a6565b80600092509250505b94509492505050565b600060048111156135c3576135c261589b565b5b8160048111156135d6576135d561589b565b5b031561377857600160048111156135f0576135ef61589b565b5b8160048111156136035761360261589b565b5b03613643576040517f08c379a000000000000000000000000000000000000000000000000000000000815260040161363a90615916565b60405180910390fd5b600260048111156136575761365661589b565b5b81600481111561366a5761366961589b565b5b036136aa576040517f08c379a00000000000000000000000000000000000000000000000000000000081526004016136a190615982565b60405180910390fd5b600360048111156136be576136bd61589b565b5b8160048111156136d1576136d061589b565b5b03613711576040517f08c379a000000000000000000000000000000000000000000000000000000000815260040161370890615a14565b60405180910390fd5b6004808111156137245761372361589b565b5b8160048111156137375761373661589b565b5b03613777576040517f08c379a000000000000000000000000000000000000000000000000000000000815260040161376e90615aa6565b60405180910390fd5b5b50565b6001816000016000828254019250508190555050565b600060019054906101000a900460ff166137e0576040517f08c379a00000000000000000000000000000000000000000000000000000000081526004016137d79061545f565b60405180910390fd5b81603690816137ef9190615c97565b5080603790816137ff9190615c97565b505050565b600060019054906101000a900460ff16613853576040517f08c379a000000000000000000000000000000000000000000000000000000000815260040161384a9061545f565b60405180910390fd5b600082805190602001209050600082805190602001209050816065819055508060668190555050505050565b600060019054906101000a900460ff166138ce576040517f08c379a00000000000000000000000000000000000000000000000000000000081526004016138c59061545f565b60405180910390fd5b6138de6138d9612022565b61269d565b565b600060019054906101000a900460ff1661392f576040517f08c379a00000000000000000000000000000000000000000000000000000000081526004016139269061545f565b60405180910390fd5b600161016281905550565b505050565b61394a8383836139ed565b61396561395684610e5b565b61395f84610e5b565b836130eb565b505050565b60007bffffffffffffffffffffffffffffffffffffffffffffffffffffffff80168211156139cd576040517f08c379a00000000000000000000000000000000000000000000000000000000081526004016139c490615ddb565b60405180910390fd5b819050919050565b60606139e484846000856139f2565b90509392505050565b505050565b606082471015613a37576040517f08c379a0000000000000000000000000000000000000000000000000000000008152600401613a2e90615e6d565b60405180910390fd5b613a4085612987565b613a7f576040517f08c379a0000000000000000000000000000000000000000000000000000000008152600401613a7690615ed9565b60405180910390fd5b6000808673ffffffffffffffffffffffffffffffffffffffff168587604051613aa89190615f40565b60006040518083038185875af1925050503d8060008114613ae5576040519150601f19603f3d011682016040523d82523d6000602084013e613aea565b606091505b5091509150613afa828286613b06565b92505050949350505050565b60608315613b1657829050613b66565b600083511115613b295782518084602001fd5b816040517f08c379a0000000000000000000000000000000000000000000000000000000008152600401613b5d9190613c3b565b60405180910390fd5b9392505050565b6040518060400160405280600063ffffffff16815260200160007bffffffffffffffffffffffffffffffffffffffffffffffffffffffff1681525090565b600081519050919050565b600082825260208201905092915050565b60005b83811015613be5578082015181840152602081019050613bca565b60008484015250505050565b6000601f19601f8301169050919050565b6000613c0d82613bab565b613c178185613bb6565b9350613c27818560208601613bc7565b613c3081613bf1565b840191505092915050565b60006020820190508181036000830152613c558184613c02565b905092915050565b600080fd5b600073ffffffffffffffffffffffffffffffffffffffff82169050919050565b6000613c8d82613c62565b9050919050565b613c9d81613c82565b8114613ca857600080fd5b50565b600081359050613cba81613c94565b92915050565b6000819050919050565b613cd381613cc0565b8114613cde57600080fd5b50565b600081359050613cf081613cca565b92915050565b60008060408385031215613d0d57613d0c613c5d565b5b6000613d1b85828601613cab565b9250506020613d2c85828601613ce1565b9150509250929050565b60008115159050919050565b613d4b81613d36565b82525050565b6000602082019050613d666000830184613d42565b92915050565b613d7581613cc0565b82525050565b6000602082019050613d906000830184613d6c565b92915050565b600080600060608486031215613daf57613dae613c5d565b5b6000613dbd86828701613cab565b9350506020613dce86828701613cab565b9250506040613ddf86828701613ce1565b9150509250925092565b600061ffff82169050919050565b613e0081613de9565b8114613e0b57600080fd5b50565b600081359050613e1d81613df7565b92915050565b600060208284031215613e3957613e38613c5d565b5b6000613e4784828501613e0e565b91505092915050565b600060208284031215613e6657613e65613c5d565b5b6000613e7484828501613ce1565b91505092915050565b600060ff82169050919050565b613e9381613e7d565b82525050565b6000602082019050613eae6000830184613e8a565b92915050565b6000819050919050565b613ec781613eb4565b82525050565b6000602082019050613ee26000830184613ebe565b92915050565b600077ffffffffffffffffffffffffffffffffffffffffffffffff82169050919050565b613f1581613ee8565b82525050565b6000602082019050613f306000830184613f0c565b92915050565b600060208284031215613f4c57613f4b613c5d565b5b6000613f5a84828501613cab565b91505092915050565b613f6c81613c82565b82525050565b6000602082019050613f876000830184613f63565b92915050565b600063ffffffff82169050919050565b613fa681613f8d565b82525050565b6000602082019050613fc16000830184613f9d565b92915050565b6000819050919050565b6000613fec613fe7613fe284613c62565b613fc7565b613c62565b9050919050565b6000613ffe82613fd1565b9050919050565b600061401082613ff3565b9050919050565b61402081614005565b82525050565b600060208201905061403b6000830184614017565b92915050565b60006bffffffffffffffffffffffff82169050919050565b61406281614041565b82525050565b600060208201905061407d6000830184614059565b92915050565b60006fffffffffffffffffffffffffffffffff82169050919050565b6140a881614083565b81146140b357600080fd5b50565b6000813590506140c58161409f565b92915050565b6000602082840312156140e1576140e0613c5d565b5b60006140ef848285016140b6565b91505092915050565b61410181613de9565b82525050565b600060208201905061411c60008301846140f8565b92915050565b61412b81613e7d565b811461413657600080fd5b50565b60008135905061414881614122565b92915050565b61415781613eb4565b811461416257600080fd5b50565b6000813590506141748161414e565b92915050565b60008060008060008060c0878903121561419757614196613c5d565b5b60006141a589828a01613cab565b96505060206141b689828a01613ce1565b95505060406141c789828a01613ce1565b94505060606141d889828a01614139565b93505060806141e989828a01614165565b92505060a06141fa89828a01614165565b9150509295509295509295565b61421081614083565b82525050565b600065ffffffffffff82169050919050565b61423181614216565b82525050565b600060c08201905061424c6000830189613d42565b6142596020830188614207565b6142666040830187614228565b61427360608301866140f8565b61428060808301856140f8565b61428d60a0830184613f0c565b979650505050505050565b600080600080600080600060e0888a0312156142b7576142b6613c5d565b5b60006142c58a828b01613cab565b97505060206142d68a828b01613cab565b96505060406142e78a828b01613ce1565b95505060606142f88a828b01613ce1565b94505060806143098a828b01614139565b93505060a061431a8a828b01614165565b92505060c061432b8a828b01614165565b91505092959891949750929550565b6000806040838503121561435157614350613c5d565b5b600061435f85828601613cab565b925050602061437085828601613cab565b9150509250929050565b600061438582613c82565b9050919050565b6143958161437a565b81146143a057600080fd5b50565b6000813590506143b28161438c565b92915050565b600080600080608085870312156143d2576143d1613c5d565b5b60006143e0878288016143a3565b94505060206143f187828801613e0e565b935050604061440287828801613e0e565b925050606061441387828801613cab565b91505092959194509250565b61442881613f8d565b811461443357600080fd5b50565b6000813590506144458161441f565b92915050565b6000806040838503121561446257614461613c5d565b5b600061447085828601613cab565b925050602061448185828601614436565b9150509250929050565b61449481613f8d565b82525050565b60007bffffffffffffffffffffffffffffffffffffffffffffffffffffffff82169050919050565b6144cb8161449a565b82525050565b6040820160008201516144e7600085018261448b565b5060208201516144fa60208501826144c2565b50505050565b600060408201905061451560008301846144d1565b92915050565b7f4e487b7100000000000000000000000000000000000000000000000000000000600052602260045260246000fd5b6000600282049050600182168061456257607f821691505b6020821081036145755761457461451b565b5b50919050565b7f5265656e7472616e637947756172643a207265656e7472616e742063616c6c00600082015250565b60006145b1601f83613bb6565b91506145bc8261457b565b602082019050919050565b600060208201905081810360008301526145e0816145a4565b9050919050565b7f43796265724172656e615374616b696e673a20696e76616c696420696e646578600082015250565b600061461d602083613bb6565b9150614628826145e7565b602082019050919050565b6000602082019050818103600083015261464c81614610565b9050919050565b7f4e487b7100000000000000000000000000000000000000000000000000000000600052603260045260246000fd5b7f43796265724172656e615374616b696e673a20756e7374616b656420616c726560008201527f6164790000000000000000000000000000000000000000000000000000000000602082015250565b60006146de602383613bb6565b91506146e982614682565b604082019050919050565b6000602082019050818103600083015261470d816146d1565b9050919050565b7f4e487b7100000000000000000000000000000000000000000000000000000000600052601160045260246000fd5b600061474e82613ee8565b915061475983613ee8565b9250828203905077ffffffffffffffffffffffffffffffffffffffffffffffff81111561478957614788614714565b5b92915050565b600061479a82614216565b91506147a583614216565b92508282026147b381614216565b91508082146147c5576147c4614714565b5b5092915050565b60006147d782614216565b91506147e283614216565b9250828201905065ffffffffffff811115614800576147ff614714565b5b92915050565b600061481182614083565b915061481c83614083565b925082820261482a81614083565b915080821461483c5761483b614714565b5b5092915050565b7f4e487b7100000000000000000000000000000000000000000000000000000000600052601260045260246000fd5b600061487d82614083565b915061488883614083565b92508261489857614897614843565b5b828204905092915050565b60006148ae82613cc0565b91506148b983613cc0565b92508282039050818111156148d1576148d0614714565b5b92915050565b60006148e282613cc0565b91506148ed83613cc0565b925082820190508082111561490557614904614714565b5b92915050565b7f4552433230566f7465733a20626c6f636b206e6f7420796574206d696e656400600082015250565b6000614941601f83613bb6565b915061494c8261490b565b602082019050919050565b6000602082019050818103600083015261497081614934565b9050919050565b600061498282613ee8565b915061498d83613ee8565b9250828201905077ffffffffffffffffffffffffffffffffffffffffffffffff8111156149bd576149bc614714565b5b92915050565b7f45524332303a2064656372656173656420616c6c6f77616e63652062656c6f7760008201527f207a65726f000000000000000000000000000000000000000000000000000000602082015250565b6000614a1f602583613bb6565b9150614a2a826149c3565b604082019050919050565b60006020820190508181036000830152614a4e81614a12565b9050919050565b7f4552433230566f7465733a207369676e61747572652065787069726564000000600082015250565b6000614a8b601d83613bb6565b9150614a9682614a55565b602082019050919050565b60006020820190508181036000830152614aba81614a7e565b9050919050565b6000608082019050614ad66000830187613ebe565b614ae36020830186613f63565b614af06040830185613d6c565b614afd6060830184613d6c565b95945050505050565b7f4552433230566f7465733a20696e76616c6964206e6f6e636500000000000000600082015250565b6000614b3c601983613bb6565b9150614b4782614b06565b602082019050919050565b60006020820190508181036000830152614b6b81614b2f565b9050919050565b7f45524332305065726d69743a206578706972656420646561646c696e65000000600082015250565b6000614ba8601d83613bb6565b9150614bb382614b72565b602082019050919050565b60006020820190508181036000830152614bd781614b9b565b9050919050565b600060c082019050614bf36000830189613ebe565b614c006020830188613f63565b614c0d6040830187613f63565b614c1a6060830186613d6c565b614c276080830185613d6c565b614c3460a0830184613d6c565b979650505050505050565b7f45524332305065726d69743a20696e76616c6964207369676e61747572650000600082015250565b6000614c75601e83613bb6565b9150614c8082614c3f565b602082019050919050565b60006020820190508181036000830152614ca481614c68565b9050919050565b7f496e697469616c697a61626c653a20636f6e747261637420697320616c72656160008201527f647920696e697469616c697a6564000000000000000000000000000000000000602082015250565b6000614d07602e83613bb6565b9150614d1282614cab565b604082019050919050565b60006020820190508181036000830152614d3681614cfa565b9050919050565b7f43796265724172656e615374616b696e673a207374616b696e6720746f6b656e60008201527f20697320746865207a65726f2061646472657373000000000000000000000000602082015250565b6000614d99603483613bb6565b9150614da482614d3d565b604082019050919050565b60006020820190508181036000830152614dc881614d8c565b9050919050565b7f43796265724172656e615374616b696e673a207472656173757279206973207460008201527f6865207a65726f20616464726573730000000000000000000000000000000000602082015250565b6000614e2b602f83613bb6565b9150614e3682614dcf565b604082019050919050565b60006020820190508181036000830152614e5a81614e1e565b9050919050565b6000819050919050565b6000614e86614e81614e7c84614e61565b613fc7565b613e7d565b9050919050565b614e9681614e6b565b82525050565b6000602082019050614eb16000830184614e8d565b92915050565b7f4f776e61626c653a206e6577206f776e657220697320746865207a65726f206160008201527f6464726573730000000000000000000000000000000000000000000000000000602082015250565b6000614f13602683613bb6565b9150614f1e82614eb7565b604082019050919050565b60006020820190508181036000830152614f4281614f06565b9050919050565b7f45524332303a20617070726f76652066726f6d20746865207a65726f2061646460008201527f7265737300000000000000000000000000000000000000000000000000000000602082015250565b6000614fa5602483613bb6565b9150614fb082614f49565b604082019050919050565b60006020820190508181036000830152614fd481614f98565b9050919050565b7f45524332303a20617070726f766520746f20746865207a65726f20616464726560008201527f7373000000000000000000000000000000000000000000000000000000000000602082015250565b6000615037602283613bb6565b915061504282614fdb565b604082019050919050565b600060208201905081810360008301526150668161502a565b9050919050565b7f45524332303a20696e73756666696369656e7420616c6c6f77616e6365000000600082015250565b60006150a3601d83613bb6565b91506150ae8261506d565b602082019050919050565b600060208201905081810360008301526150d281615096565b9050919050565b7f43796265724172656e615374616b696e673a204e4f4e5f5452414e534645524160008201527f424c450000000000000000000000000000000000000000000000000000000000602082015250565b6000615135602383613bb6565b9150615140826150d9565b604082019050919050565b6000602082019050818103600083015261516481615128565b9050919050565b7f4f776e61626c653a2063616c6c6572206973206e6f7420746865206f776e6572600082015250565b60006151a1602083613bb6565b91506151ac8261516b565b602082019050919050565b600060208201905081810360008301526151d081615194565b9050919050565b60006040820190506151ec6000830185613f63565b6151f96020830184613d6c565b9392505050565b7f53616665436173743a2076616c756520646f65736e27742066697420696e203360008201527f3220626974730000000000000000000000000000000000000000000000000000602082015250565b600061525c602683613bb6565b915061526782615200565b604082019050919050565b6000602082019050818103600083015261528b8161524f565b9050919050565b7f53616665436173743a2076616c756520646f65736e27742066697420696e203960008201527f3620626974730000000000000000000000000000000000000000000000000000602082015250565b60006152ee602683613bb6565b91506152f982615292565b604082019050919050565b6000602082019050818103600083015261531d816152e1565b9050919050565b60006060820190506153396000830186613f63565b6153466020830185613f63565b6153536040830184613d6c565b949350505050565b7f4552433230566f7465733a20746f74616c20737570706c79207269736b73206f60008201527f766572666c6f77696e6720766f74657300000000000000000000000000000000602082015250565b60006153b7603083613bb6565b91506153c28261535b565b604082019050919050565b600060208201905081810360008301526153e6816153aa565b9050919050565b7f496e697469616c697a61626c653a20636f6e7472616374206973206e6f74206960008201527f6e697469616c697a696e67000000000000000000000000000000000000000000602082015250565b6000615449602b83613bb6565b9150615454826153ed565b604082019050919050565b600060208201905081810360008301526154788161543c565b9050919050565b7f45524332303a206275726e2066726f6d20746865207a65726f2061646472657360008201527f7300000000000000000000000000000000000000000000000000000000000000602082015250565b60006154db602183613bb6565b91506154e68261547f565b604082019050919050565b6000602082019050818103600083015261550a816154ce565b9050919050565b7f45524332303a206275726e20616d6f756e7420657863656564732062616c616e60008201527f6365000000000000000000000000000000000000000000000000000000000000602082015250565b600061556d602283613bb6565b915061557882615511565b604082019050919050565b6000602082019050818103600083015261559c81615560565b9050919050565b6155ac81613d36565b81146155b757600080fd5b50565b6000815190506155c9816155a3565b92915050565b6000602082840312156155e5576155e4613c5d565b5b60006155f3848285016155ba565b91505092915050565b7f5361666545524332303a204552433230206f7065726174696f6e20646964206e60008201527f6f74207375636365656400000000000000000000000000000000000000000000602082015250565b6000615658602a83613bb6565b9150615663826155fc565b604082019050919050565b600060208201905081810360008301526156878161564b565b9050919050565b600060a0820190506156a36000830188613ebe565b6156b06020830187613ebe565b6156bd6040830186613ebe565b6156ca6060830185613d6c565b6156d76080830184613f63565b9695505050505050565b60006156ec82613cc0565b91506156f783613cc0565b92508261570757615706614843565b5b828204905092915050565b60006040820190506157276000830185613d6c565b6157346020830184613d6c565b9392505050565b7f45524332303a206d696e7420746f20746865207a65726f206164647265737300600082015250565b6000615771601f83613bb6565b915061577c8261573b565b602082019050919050565b600060208201905081810360008301526157a081615764565b9050919050565b600081905092915050565b7f1901000000000000000000000000000000000000000000000000000000000000600082015250565b60006157e86002836157a7565b91506157f3826157b2565b600282019050919050565b6000819050919050565b61581961581482613eb4565b6157fe565b82525050565b600061582a826157db565b91506158368285615808565b6020820191506158468284615808565b6020820191508190509392505050565b600060808201905061586b6000830187613ebe565b6158786020830186613e8a565b6158856040830185613ebe565b6158926060830184613ebe565b95945050505050565b7f4e487b7100000000000000000000000000000000000000000000000000000000600052602160045260246000fd5b7f45434453413a20696e76616c6964207369676e61747572650000000000000000600082015250565b6000615900601883613bb6565b915061590b826158ca565b602082019050919050565b6000602082019050818103600083015261592f816158f3565b9050919050565b7f45434453413a20696e76616c6964207369676e6174757265206c656e67746800600082015250565b600061596c601f83613bb6565b915061597782615936565b602082019050919050565b6000602082019050818103600083015261599b8161595f565b9050919050565b7f45434453413a20696e76616c6964207369676e6174757265202773272076616c60008201527f7565000000000000000000000000000000000000000000000000000000000000602082015250565b60006159fe602283613bb6565b9150615a09826159a2565b604082019050919050565b60006020820190508181036000830152615a2d816159f1565b9050919050565b7f45434453413a20696e76616c6964207369676e6174757265202776272076616c60008201527f7565000000000000000000000000000000000000000000000000000000000000602082015250565b6000615a90602283613bb6565b9150615a9b82615a34565b604082019050919050565b60006020820190508181036000830152615abf81615a83565b9050919050565b7f4e487b7100000000000000000000000000000000000000000000000000000000600052604160045260246000fd5b60008190508160005260206000209050919050565b60006020601f8301049050919050565b600082821b905092915050565b600060088302615b577fffffffffffffffffffffffffffffffffffffffffffffffffffffffffffffffff82615b1a565b615b618683615b1a565b95508019841693508086168417925050509392505050565b6000615b94615b8f615b8a84613cc0565b613fc7565b613cc0565b9050919050565b6000819050919050565b615bae83615b79565b615bc2615bba82615b9b565b848454615b27565b825550505050565b600090565b615bd7615bca565b615be2818484615ba5565b505050565b5b81811015615c0657615bfb600082615bcf565b600181019050615be8565b5050565b601f821115615c4b57615c1c81615af5565b615c2584615b0a565b81016020851015615c34578190505b615c48615c4085615b0a565b830182615be7565b50505b505050565b600082821c905092915050565b6000615c6e60001984600802615c50565b1980831691505092915050565b6000615c878383615c5d565b9150826002028217905092915050565b615ca082613bab565b67ffffffffffffffff811115615cb957615cb8615ac6565b5b615cc3825461454a565b615cce828285615c0a565b600060209050601f831160018114615d015760008415615cef578287015190505b615cf98582615c7b565b865550615d61565b601f198416615d0f86615af5565b60005b82811015615d3757848901518255600182019150602085019450602081019050615d12565b86831015615d545784890151615d50601f891682615c5d565b8355505b6001600288020188555050505b505050505050565b7f53616665436173743a2076616c756520646f65736e27742066697420696e203260008201527f3234206269747300000000000000000000000000000000000000000000000000602082015250565b6000615dc5602783613bb6565b9150615dd082615d69565b604082019050919050565b60006020820190508181036000830152615df481615db8565b9050919050565b7f416464726573733a20696e73756666696369656e742062616c616e636520666f60008201527f722063616c6c0000000000000000000000000000000000000000000000000000602082015250565b6000615e57602683613bb6565b9150615e6282615dfb565b604082019050919050565b60006020820190508181036000830152615e8681615e4a565b9050919050565b7f416464726573733a2063616c6c20746f206e6f6e2d636f6e7472616374000000600082015250565b6000615ec3601d83613bb6565b9150615ece82615e8d565b602082019050919050565b60006020820190508181036000830152615ef281615eb6565b9050919050565b600081519050919050565b600081905092915050565b6000615f1a82615ef9565b615f248185615f04565b9350615f34818560208601613bc7565b80840191505092915050565b6000615f4c8284615f0f565b91508190509291505056fea26469706673582212205f8ae1534e2c47e7c416b79a2f25e8e0c0601b610a19bdebd1987f2ab87253d464736f6c63430008110033",
  "linkReferences": {},
  "deployedLinkReferences": {}
}