{
  "_format": "hh-sol-artifact-1",
  "contractName": "CyberArenaStaking",
  "sourceName": "contracts/Staking.sol",
  "abi": [
    {
      "inputs": [
        {
          "internalType": "contract IERC20",
          "name": "_stakingToken",
          "type": "address"
        },
        {
          "internalType": "uint16",
          "name": "_penaltyDays",
          "type": "uint16"
        },
        {
          "internalType": "uint16",
          "name": "_penaltyBP",
          "type": "uint16"
        },
        {
          "internalType": "address",
          "name": "_treasury",
          "type": "address"
        }
      ],
      "stateMutability": "nonpayable",
      "type": "constructor"
    },
    {
      "anonymous": false,
      "inputs": [
        {
          "indexed": true,
          "internalType": "address",
          "name": "owner",
          "type": "address"
        },
        {
          "indexed": true,
          "internalType": "address",
          "name": "spender",
          "type": "address"
        },
        {
          "indexed": false,
          "internalType": "uint256",
          "name": "value",
          "type": "uint256"
        }
      ],
      "name": "Approval",
      "type": "event"
    },
    {
      "anonymous": false,
      "inputs": [
        {
          "indexed": true,
          "internalType": "address",
          "name": "previousOwner",
          "type": "address"
        },
        {
          "indexed": true,
          "internalType": "address",
          "name": "newOwner",
          "type": "address"
        }
      ],
      "name": "OwnershipTransferred",
      "type": "event"
    },
    {
      "anonymous": false,
      "inputs": [
        {
          "indexed": false,
          "internalType": "uint16",
          "name": "penaltyBP",
          "type": "uint16"
        }
      ],
      "name": "SetPenaltyBP",
      "type": "event"
    },
    {
      "anonymous": false,
      "inputs": [
        {
          "indexed": false,
          "internalType": "uint16",
          "name": "penaltyDays",
          "type": "uint16"
        }
      ],
      "name": "SetPenaltyDays",
      "type": "event"
    },
    {
      "anonymous": false,
      "inputs": [
        {
          "indexed": false,
          "internalType": "address",
          "name": "treasury",
          "type": "address"
        }
      ],
      "name": "SetTreasury",
      "type": "event"
    },
    {
      "anonymous": false,
      "inputs": [
        {
          "indexed": true,
          "internalType": "address",
          "name": "from",
          "type": "address"
        },
        {
          "indexed": true,
          "internalType": "address",
          "name": "to",
          "type": "address"
        },
        {
          "indexed": false,
          "internalType": "uint256",
          "name": "value",
          "type": "uint256"
        }
      ],
      "name": "Transfer",
      "type": "event"
    },
    {
      "inputs": [
        {
          "internalType": "address",
          "name": "owner",
          "type": "address"
        },
        {
          "internalType": "address",
          "name": "spender",
          "type": "address"
        }
      ],
      "name": "allowance",
      "outputs": [
        {
          "internalType": "uint256",
          "name": "",
          "type": "uint256"
        }
      ],
      "stateMutability": "view",
      "type": "function"
    },
    {
      "inputs": [
        {
          "internalType": "address",
          "name": "spender",
          "type": "address"
        },
        {
          "internalType": "uint256",
          "name": "amount",
          "type": "uint256"
        }
      ],
      "name": "approve",
      "outputs": [
        {
          "internalType": "bool",
          "name": "",
          "type": "bool"
        }
      ],
      "stateMutability": "nonpayable",
      "type": "function"
    },
    {
      "inputs": [
        {
          "internalType": "address",
          "name": "account",
          "type": "address"
        }
      ],
      "name": "balanceOf",
      "outputs": [
        {
          "internalType": "uint256",
          "name": "",
          "type": "uint256"
        }
      ],
      "stateMutability": "view",
      "type": "function"
    },
    {
      "inputs": [],
      "name": "decimals",
      "outputs": [
        {
          "internalType": "uint8",
          "name": "",
          "type": "uint8"
        }
      ],
      "stateMutability": "view",
      "type": "function"
    },
    {
      "inputs": [
        {
          "internalType": "address",
          "name": "spender",
          "type": "address"
        },
        {
          "internalType": "uint256",
          "name": "subtractedValue",
          "type": "uint256"
        }
      ],
      "name": "decreaseAllowance",
      "outputs": [
        {
          "internalType": "bool",
          "name": "",
          "type": "bool"
        }
      ],
      "stateMutability": "nonpayable",
      "type": "function"
    },
    {
      "inputs": [
        {
          "internalType": "address",
          "name": "spender",
          "type": "address"
        },
        {
          "internalType": "uint256",
          "name": "addedValue",
          "type": "uint256"
        }
      ],
      "name": "increaseAllowance",
      "outputs": [
        {
          "internalType": "bool",
          "name": "",
          "type": "bool"
        }
      ],
      "stateMutability": "nonpayable",
      "type": "function"
    },
    {
      "inputs": [],
      "name": "name",
      "outputs": [
        {
          "internalType": "string",
          "name": "",
          "type": "string"
        }
      ],
      "stateMutability": "view",
      "type": "function"
    },
    {
      "inputs": [],
      "name": "owner",
      "outputs": [
        {
          "internalType": "address",
          "name": "",
          "type": "address"
        }
      ],
      "stateMutability": "view",
      "type": "function"
    },
    {
      "inputs": [],
      "name": "penaltyBP",
      "outputs": [
        {
          "internalType": "uint16",
          "name": "",
          "type": "uint16"
        }
      ],
      "stateMutability": "view",
      "type": "function"
    },
    {
      "inputs": [],
      "name": "penaltyDays",
      "outputs": [
        {
          "internalType": "uint16",
          "name": "",
          "type": "uint16"
        }
      ],
      "stateMutability": "view",
      "type": "function"
    },
    {
      "inputs": [],
      "name": "renounceOwnership",
      "outputs": [],
      "stateMutability": "nonpayable",
      "type": "function"
    },
    {
      "inputs": [
        {
          "internalType": "uint16",
          "name": "_penaltyBP",
          "type": "uint16"
        }
      ],
      "name": "setPenaltyBP",
      "outputs": [],
      "stateMutability": "nonpayable",
      "type": "function"
    },
    {
      "inputs": [
        {
          "internalType": "uint16",
          "name": "_penaltyDays",
          "type": "uint16"
        }
      ],
      "name": "setPenaltyDays",
      "outputs": [],
      "stateMutability": "nonpayable",
      "type": "function"
    },
    {
      "inputs": [
        {
          "internalType": "address",
          "name": "_treasury",
          "type": "address"
        }
      ],
      "name": "setTreasury",
      "outputs": [],
      "stateMutability": "nonpayable",
      "type": "function"
    },
    {
      "inputs": [
        {
          "internalType": "uint128",
          "name": "_amount",
          "type": "uint128"
        }
      ],
      "name": "stake",
      "outputs": [],
      "stateMutability": "nonpayable",
      "type": "function"
    },
    {
      "inputs": [
        {
          "internalType": "address",
          "name": "",
          "type": "address"
        }
      ],
      "name": "stakers",
      "outputs": [
        {
          "internalType": "bool",
          "name": "unstaked",
          "type": "bool"
        },
        {
          "internalType": "uint128",
          "name": "amount",
          "type": "uint128"
        },
        {
          "internalType": "uint48",
          "name": "stakedTimestamp",
          "type": "uint48"
        },
        {
          "internalType": "uint16",
          "name": "penaltyDays",
          "type": "uint16"
        },
        {
          "internalType": "uint16",
          "name": "penaltyBP",
          "type": "uint16"
        },
        {
          "internalType": "uint192",
          "name": "shares",
          "type": "uint192"
        }
      ],
      "stateMutability": "view",
      "type": "function"
    },
    {
      "inputs": [],
      "name": "stakingToken",
      "outputs": [
        {
          "internalType": "contract IERC20",
          "name": "",
          "type": "address"
        }
      ],
      "stateMutability": "view",
      "type": "function"
    },
    {
      "inputs": [],
      "name": "symbol",
      "outputs": [
        {
          "internalType": "string",
          "name": "",
          "type": "string"
        }
      ],
      "stateMutability": "view",
      "type": "function"
    },
    {
      "inputs": [],
      "name": "totalShares",
      "outputs": [
        {
          "internalType": "uint192",
          "name": "",
          "type": "uint192"
        }
      ],
      "stateMutability": "view",
      "type": "function"
    },
    {
      "inputs": [],
      "name": "totalSupply",
      "outputs": [
        {
          "internalType": "uint256",
          "name": "",
          "type": "uint256"
        }
      ],
      "stateMutability": "view",
      "type": "function"
    },
    {
      "inputs": [
        {
          "internalType": "address",
          "name": "to",
          "type": "address"
        },
        {
          "internalType": "uint256",
          "name": "amount",
          "type": "uint256"
        }
      ],
      "name": "transfer",
      "outputs": [
        {
          "internalType": "bool",
          "name": "",
          "type": "bool"
        }
      ],
      "stateMutability": "nonpayable",
      "type": "function"
    },
    {
      "inputs": [
        {
          "internalType": "address",
          "name": "from",
          "type": "address"
        },
        {
          "internalType": "address",
          "name": "to",
          "type": "address"
        },
        {
          "internalType": "uint256",
          "name": "amount",
          "type": "uint256"
        }
      ],
      "name": "transferFrom",
      "outputs": [
        {
          "internalType": "bool",
          "name": "",
          "type": "bool"
        }
      ],
      "stateMutability": "nonpayable",
      "type": "function"
    },
    {
      "inputs": [
        {
          "internalType": "address",
          "name": "newOwner",
          "type": "address"
        }
      ],
      "name": "transferOwnership",
      "outputs": [],
      "stateMutability": "nonpayable",
      "type": "function"
    },
    {
      "inputs": [],
      "name": "treasury",
      "outputs": [
        {
          "internalType": "address",
          "name": "",
          "type": "address"
        }
      ],
      "stateMutability": "view",
      "type": "function"
    },
    {
      "inputs": [],
      "name": "unstake",
      "outputs": [],
      "stateMutability": "nonpayable",
      "type": "function"
    }
  ],
  "bytecode": "0x60806040523480156200001157600080fd5b5060405162003c8b38038062003c8b833981810160405281019062000037919062000457565b6040518060400160405280600a81526020017f5374616b656420434154000000000000000000000000000000000000000000008152506040518060400160405280600581526020017f73744341540000000000000000000000000000000000000000000000000000008152508160039081620000b4919062000743565b508060049081620000c6919062000743565b505050620000e9620000dd6200029b60201b60201c565b620002a360201b60201c565b6001600681905550600073ffffffffffffffffffffffffffffffffffffffff168473ffffffffffffffffffffffffffffffffffffffff160362000163576040517f08c379a00000000000000000000000000000000000000000000000000000000081526004016200015a90620008b1565b60405180910390fd5b600073ffffffffffffffffffffffffffffffffffffffff168173ffffffffffffffffffffffffffffffffffffffff1603620001d5576040517f08c379a0000000000000000000000000000000000000000000000000000000008152600401620001cc9062000949565b60405180910390fd5b83600760006101000a81548173ffffffffffffffffffffffffffffffffffffffff021916908373ffffffffffffffffffffffffffffffffffffffff16021790555082600960006101000a81548161ffff021916908361ffff16021790555081600960026101000a81548161ffff021916908361ffff16021790555080600960046101000a81548173ffffffffffffffffffffffffffffffffffffffff021916908373ffffffffffffffffffffffffffffffffffffffff160217905550505050506200096b565b600033905090565b6000600560009054906101000a900473ffffffffffffffffffffffffffffffffffffffff16905081600560006101000a81548173ffffffffffffffffffffffffffffffffffffffff021916908373ffffffffffffffffffffffffffffffffffffffff1602179055508173ffffffffffffffffffffffffffffffffffffffff168173ffffffffffffffffffffffffffffffffffffffff167f8be0079c531659141344cd1fd0a4f28419497f9722a3daafe3b4186f6b6457e060405160405180910390a35050565b600080fd5b600073ffffffffffffffffffffffffffffffffffffffff82169050919050565b60006200039b826200036e565b9050919050565b6000620003af826200038e565b9050919050565b620003c181620003a2565b8114620003cd57600080fd5b50565b600081519050620003e181620003b6565b92915050565b600061ffff82169050919050565b6200040081620003e7565b81146200040c57600080fd5b50565b6000815190506200042081620003f5565b92915050565b62000431816200038e565b81146200043d57600080fd5b50565b600081519050620004518162000426565b92915050565b6000806000806080858703121562000474576200047362000369565b5b60006200048487828801620003d0565b945050602062000497878288016200040f565b9350506040620004aa878288016200040f565b9250506060620004bd8782880162000440565b91505092959194509250565b600081519050919050565b7f4e487b7100000000000000000000000000000000000000000000000000000000600052604160045260246000fd5b7f4e487b7100000000000000000000000000000000000000000000000000000000600052602260045260246000fd5b600060028204905060018216806200054b57607f821691505b60208210810362000561576200056062000503565b5b50919050565b60008190508160005260206000209050919050565b60006020601f8301049050919050565b600082821b905092915050565b600060088302620005cb7fffffffffffffffffffffffffffffffffffffffffffffffffffffffffffffffff826200058c565b620005d786836200058c565b95508019841693508086168417925050509392505050565b6000819050919050565b6000819050919050565b6000620006246200061e6200061884620005ef565b620005f9565b620005ef565b9050919050565b6000819050919050565b620006408362000603565b620006586200064f826200062b565b84845462000599565b825550505050565b600090565b6200066f62000660565b6200067c81848462000635565b505050565b5b81811015620006a4576200069860008262000665565b60018101905062000682565b5050565b601f821115620006f357620006bd8162000567565b620006c8846200057c565b81016020851015620006d8578190505b620006f0620006e7856200057c565b83018262000681565b50505b505050565b600082821c905092915050565b60006200071860001984600802620006f8565b1980831691505092915050565b600062000733838362000705565b9150826002028217905092915050565b6200074e82620004c9565b67ffffffffffffffff8111156200076a5762000769620004d4565b5b62000776825462000532565b62000783828285620006a8565b600060209050601f831160018114620007bb5760008415620007a6578287015190505b620007b2858262000725565b86555062000822565b601f198416620007cb8662000567565b60005b82811015620007f557848901518255600182019150602085019450602081019050620007ce565b8683101562000815578489015162000811601f89168262000705565b8355505b6001600288020188555050505b505050505050565b600082825260208201905092915050565b7f43796265724172656e615374616b696e673a207374616b696e6720746f6b656e60008201527f20697320746865207a65726f2061646472657373000000000000000000000000602082015250565b6000620008996034836200082a565b9150620008a6826200083b565b604082019050919050565b60006020820190508181036000830152620008cc816200088a565b9050919050565b7f43796265724172656e615374616b696e673a207472656173757279206973207460008201527f6865207a65726f20616464726573730000000000000000000000000000000000602082015250565b600062000931602f836200082a565b91506200093e82620008d3565b604082019050919050565b60006020820190508181036000830152620009648162000922565b9050919050565b613310806200097b6000396000f3fe608060405234801561001057600080fd5b50600436106101735760003560e01c806372f702f3116100de578063a5582c3e11610097578063dd62ed3e11610071578063dd62ed3e14610443578063ee2b44e414610473578063f0f4426014610491578063f2fde38b146104ad57610173565b8063a5582c3e146103d9578063a9059cbb146103f7578063bacb4c571461042757610173565b806372f702f3146102fe57806388fe2be81461031c5780638da5cb5b146103385780639168ae721461035657806395d89b411461038b578063a457c2d7146103a957610173565b8063313ce56711610130578063313ce5671461023a57806339509351146102585780633a98ef391461028857806361d027b3146102a657806370a08231146102c4578063715018a6146102f457610173565b806306fdde0314610178578063095ea7b31461019657806318160ddd146101c657806323b872dd146101e45780632932e77a146102145780632def662014610230575b600080fd5b6101806104c9565b60405161018d9190611f9b565b60405180910390f35b6101b060048036038101906101ab9190612056565b61055b565b6040516101bd91906120b1565b60405180910390f35b6101ce61057e565b6040516101db91906120db565b60405180910390f35b6101fe60048036038101906101f991906120f6565b610588565b60405161020b91906120b1565b60405180910390f35b61022e60048036038101906102299190612183565b6105b7565b005b61023861065e565b005b610242610a64565b60405161024f91906121cc565b60405180910390f35b610272600480360381019061026d9190612056565b610a6d565b60405161027f91906120b1565b60405180910390f35b610290610aa4565b60405161029d919061221a565b60405180910390f35b6102ae610ace565b6040516102bb9190612244565b60405180910390f35b6102de60048036038101906102d9919061225f565b610af4565b6040516102eb91906120db565b60405180910390f35b6102fc610b3c565b005b610306610b50565b60405161031391906122eb565b60405180910390f35b6103366004803603810190610331919061234e565b610b76565b005b610340610f83565b60405161034d9190612244565b60405180910390f35b610370600480360381019061036b919061225f565b610fad565b604051610382969594939291906123ba565b60405180910390f35b610393611064565b6040516103a09190611f9b565b60405180910390f35b6103c360048036038101906103be9190612056565b6110f6565b6040516103d091906120b1565b60405180910390f35b6103e161116d565b6040516103ee919061241b565b60405180910390f35b610411600480360381019061040c9190612056565b611181565b60405161041e91906120b1565b60405180910390f35b610441600480360381019061043c9190612183565b6111a4565b005b61045d60048036038101906104589190612436565b61124c565b60405161046a91906120db565b60405180910390f35b61047b6112d3565b604051610488919061241b565b60405180910390f35b6104ab60048036038101906104a6919061225f565b6112e7565b005b6104c760048036038101906104c2919061225f565b6113d9565b005b6060600380546104d8906124a5565b80601f0160208091040260200160405190810160405280929190818152602001828054610504906124a5565b80156105515780601f1061052657610100808354040283529160200191610551565b820191906000526020600020905b81548152906001019060200180831161053457829003601f168201915b5050505050905090565b60008061056661145c565b9050610573818585611464565b600191505092915050565b6000600254905090565b60008061059361145c565b90506105a085828561162d565b6105ab8585856116b9565b60019150509392505050565b6105bf6116f4565b605a8161ffff161115610607576040517f08c379a00000000000000000000000000000000000000000000000000000000081526004016105fe90612548565b60405180910390fd5b80600960006101000a81548161ffff021916908361ffff1602179055507f8c3d05154710d4cda78ff685fd4551d32b2968b7e07cb57b4db352ad1f3713af81604051610653919061241b565b60405180910390a150565b6002600654036106a3576040517f08c379a000000000000000000000000000000000000000000000000000000000815260040161069a906125b4565b60405180910390fd5b60026006819055506000600860003373ffffffffffffffffffffffffffffffffffffffff1673ffffffffffffffffffffffffffffffffffffffff168152602001908152602001600020905060008160000160119054906101000a900465ffffffffffff1665ffffffffffff160361074f576040517f08c379a000000000000000000000000000000000000000000000000000000000815260040161074690612646565b60405180910390fd5b8060000160009054906101000a900460ff16156107a1576040517f08c379a0000000000000000000000000000000000000000000000000000000008152600401610798906126d8565b60405180910390fd5b6107dd338260000160019054906101000a90046fffffffffffffffffffffffffffffffff166fffffffffffffffffffffffffffffffff16611772565b8060010160009054906101000a900477ffffffffffffffffffffffffffffffffffffffffffffffff16600a60008282829054906101000a900477ffffffffffffffffffffffffffffffffffffffffffffffff1661083a9190612727565b92506101000a81548177ffffffffffffffffffffffffffffffffffffffffffffffff021916908377ffffffffffffffffffffffffffffffffffffffffffffffff16021790555060018160000160006101000a81548160ff02191690831515021790555060006108a7611948565b620151808360000160179054906101000a900461ffff1661ffff166108cc9190612773565b8360000160119054906101000a900465ffffffffffff166108ed91906127b0565b65ffffffffffff1611156109ce576127108260000160199054906101000a900461ffff1661ffff168360000160019054906101000a90046fffffffffffffffffffffffffffffffff1661094091906127ea565b61094a9190612856565b6fffffffffffffffffffffffffffffffff1690506109cd600960049054906101000a900473ffffffffffffffffffffffffffffffffffffffff1682600760009054906101000a900473ffffffffffffffffffffffffffffffffffffffff1673ffffffffffffffffffffffffffffffffffffffff166119509092919063ffffffff16565b5b610a5833828460000160019054906101000a90046fffffffffffffffffffffffffffffffff166fffffffffffffffffffffffffffffffff16610a109190612887565b600760009054906101000a900473ffffffffffffffffffffffffffffffffffffffff1673ffffffffffffffffffffffffffffffffffffffff166119509092919063ffffffff16565b50506001600681905550565b60006012905090565b600080610a7861145c565b9050610a99818585610a8a858961124c565b610a9491906128bb565b611464565b600191505092915050565b600a60009054906101000a900477ffffffffffffffffffffffffffffffffffffffffffffffff1681565b600960049054906101000a900473ffffffffffffffffffffffffffffffffffffffff1681565b60008060008373ffffffffffffffffffffffffffffffffffffffff1673ffffffffffffffffffffffffffffffffffffffff168152602001908152602001600020549050919050565b610b446116f4565b610b4e60006119d6565b565b600760009054906101000a900473ffffffffffffffffffffffffffffffffffffffff1681565b600260065403610bbb576040517f08c379a0000000000000000000000000000000000000000000000000000000008152600401610bb2906125b4565b60405180910390fd5b60026006819055506000600860003373ffffffffffffffffffffffffffffffffffffffff1673ffffffffffffffffffffffffffffffffffffffff168152602001908152602001600020905060008160000160119054906101000a900465ffffffffffff1665ffffffffffff1614610c67576040517f08c379a0000000000000000000000000000000000000000000000000000000008152600401610c5e90612961565b60405180910390fd5b610cc83330846fffffffffffffffffffffffffffffffff16600760009054906101000a900473ffffffffffffffffffffffffffffffffffffffff1673ffffffffffffffffffffffffffffffffffffffff16611a9c909392919063ffffffff16565b610ce433836fffffffffffffffffffffffffffffffff16611b25565b816fffffffffffffffffffffffffffffffff16600a60008282829054906101000a900477ffffffffffffffffffffffffffffffffffffffffffffffff16610d2b9190612981565b92506101000a81548177ffffffffffffffffffffffffffffffffffffffffffffffff021916908377ffffffffffffffffffffffffffffffffffffffffffffffff1602179055506040518060c00160405280600015158152602001836fffffffffffffffffffffffffffffffff168152602001610da5611948565b65ffffffffffff168152602001600960009054906101000a900461ffff1661ffff168152602001600960029054906101000a900461ffff1661ffff168152602001836fffffffffffffffffffffffffffffffff1677ffffffffffffffffffffffffffffffffffffffffffffffff16815250600860003373ffffffffffffffffffffffffffffffffffffffff1673ffffffffffffffffffffffffffffffffffffffff16815260200190815260200160002060008201518160000160006101000a81548160ff02191690831515021790555060208201518160000160016101000a8154816fffffffffffffffffffffffffffffffff02191690836fffffffffffffffffffffffffffffffff16021790555060408201518160000160116101000a81548165ffffffffffff021916908365ffffffffffff16021790555060608201518160000160176101000a81548161ffff021916908361ffff16021790555060808201518160000160196101000a81548161ffff021916908361ffff16021790555060a08201518160010160006101000a81548177ffffffffffffffffffffffffffffffffffffffffffffffff021916908377ffffffffffffffffffffffffffffffffffffffffffffffff16021790555090505050600160068190555050565b6000600560009054906101000a900473ffffffffffffffffffffffffffffffffffffffff16905090565b60086020528060005260406000206000915090508060000160009054906101000a900460ff16908060000160019054906101000a90046fffffffffffffffffffffffffffffffff16908060000160119054906101000a900465ffffffffffff16908060000160179054906101000a900461ffff16908060000160199054906101000a900461ffff16908060010160009054906101000a900477ffffffffffffffffffffffffffffffffffffffffffffffff16905086565b606060048054611073906124a5565b80601f016020809104026020016040519081016040528092919081815260200182805461109f906124a5565b80156110ec5780601f106110c1576101008083540402835291602001916110ec565b820191906000526020600020905b8154815290600101906020018083116110cf57829003601f168201915b5050505050905090565b60008061110161145c565b9050600061110f828661124c565b905083811015611154576040517f08c379a000000000000000000000000000000000000000000000000000000000815260040161114b90612a3f565b60405180910390fd5b6111618286868403611464565b60019250505092915050565b600960029054906101000a900461ffff1681565b60008061118c61145c565b90506111998185856116b9565b600191505092915050565b6111ac6116f4565b6127108161ffff1611156111f5576040517f08c379a00000000000000000000000000000000000000000000000000000000081526004016111ec90612ad1565b60405180910390fd5b80600960026101000a81548161ffff021916908361ffff1602179055507f49df4ae990079b53e42ad090f1fc5b7311dd70675bccd49294082a2ed78d619481604051611241919061241b565b60405180910390a150565b6000600160008473ffffffffffffffffffffffffffffffffffffffff1673ffffffffffffffffffffffffffffffffffffffff16815260200190815260200160002060008373ffffffffffffffffffffffffffffffffffffffff1673ffffffffffffffffffffffffffffffffffffffff16815260200190815260200160002054905092915050565b600960009054906101000a900461ffff1681565b6112ef6116f4565b600073ffffffffffffffffffffffffffffffffffffffff168173ffffffffffffffffffffffffffffffffffffffff160361135e576040517f08c379a000000000000000000000000000000000000000000000000000000000815260040161135590612b63565b60405180910390fd5b80600960046101000a81548173ffffffffffffffffffffffffffffffffffffffff021916908373ffffffffffffffffffffffffffffffffffffffff1602179055507fcb7ef3e545f5cdb893f5c568ba710fe08f336375a2d9fd66e161033f8fc09ef3816040516113ce9190612244565b60405180910390a150565b6113e16116f4565b600073ffffffffffffffffffffffffffffffffffffffff168173ffffffffffffffffffffffffffffffffffffffff1603611450576040517f08c379a000000000000000000000000000000000000000000000000000000000815260040161144790612bf5565b60405180910390fd5b611459816119d6565b50565b600033905090565b600073ffffffffffffffffffffffffffffffffffffffff168373ffffffffffffffffffffffffffffffffffffffff16036114d3576040517f08c379a00000000000000000000000000000000000000000000000000000000081526004016114ca90612c87565b60405180910390fd5b600073ffffffffffffffffffffffffffffffffffffffff168273ffffffffffffffffffffffffffffffffffffffff1603611542576040517f08c379a000000000000000000000000000000000000000000000000000000000815260040161153990612d19565b60405180910390fd5b80600160008573ffffffffffffffffffffffffffffffffffffffff1673ffffffffffffffffffffffffffffffffffffffff16815260200190815260200160002060008473ffffffffffffffffffffffffffffffffffffffff1673ffffffffffffffffffffffffffffffffffffffff168152602001908152602001600020819055508173ffffffffffffffffffffffffffffffffffffffff168373ffffffffffffffffffffffffffffffffffffffff167f8c5be1e5ebec7d5bd14f71427d1e84f3dd0314c0f7b2291e5b200ac8c7c3b9258360405161162091906120db565b60405180910390a3505050565b6000611639848461124c565b90507fffffffffffffffffffffffffffffffffffffffffffffffffffffffffffffffff81146116b357818110156116a5576040517f08c379a000000000000000000000000000000000000000000000000000000000815260040161169c90612d85565b60405180910390fd5b6116b28484848403611464565b5b50505050565b6040517f08c379a00000000000000000000000000000000000000000000000000000000081526004016116eb90612e17565b60405180910390fd5b6116fc61145c565b73ffffffffffffffffffffffffffffffffffffffff1661171a610f83565b73ffffffffffffffffffffffffffffffffffffffff1614611770576040517f08c379a000000000000000000000000000000000000000000000000000000000815260040161176790612e83565b60405180910390fd5b565b600073ffffffffffffffffffffffffffffffffffffffff168273ffffffffffffffffffffffffffffffffffffffff16036117e1576040517f08c379a00000000000000000000000000000000000000000000000000000000081526004016117d890612f15565b60405180910390fd5b6117ed82600083611c84565b60008060008473ffffffffffffffffffffffffffffffffffffffff1673ffffffffffffffffffffffffffffffffffffffff16815260200190815260200160002054905081811015611873576040517f08c379a000000000000000000000000000000000000000000000000000000000815260040161186a90612fa7565b60405180910390fd5b8181036000808573ffffffffffffffffffffffffffffffffffffffff1673ffffffffffffffffffffffffffffffffffffffff1681526020019081526020016000208190555081600260008282546118ca9190612887565b92505081905550600073ffffffffffffffffffffffffffffffffffffffff168373ffffffffffffffffffffffffffffffffffffffff167fddf252ad1be2c89b69c2b068fc378daa952ba7f163c4a11628f55a4df523b3ef8460405161192f91906120db565b60405180910390a361194383600084611c89565b505050565b600042905090565b6119d18363a9059cbb60e01b848460405160240161196f929190612fc7565b604051602081830303815290604052907bffffffffffffffffffffffffffffffffffffffffffffffffffffffff19166020820180517bffffffffffffffffffffffffffffffffffffffffffffffffffffffff8381831617835250505050611c8e565b505050565b6000600560009054906101000a900473ffffffffffffffffffffffffffffffffffffffff16905081600560006101000a81548173ffffffffffffffffffffffffffffffffffffffff021916908373ffffffffffffffffffffffffffffffffffffffff1602179055508173ffffffffffffffffffffffffffffffffffffffff168173ffffffffffffffffffffffffffffffffffffffff167f8be0079c531659141344cd1fd0a4f28419497f9722a3daafe3b4186f6b6457e060405160405180910390a35050565b611b1f846323b872dd60e01b858585604051602401611abd93929190612ff0565b604051602081830303815290604052907bffffffffffffffffffffffffffffffffffffffffffffffffffffffff19166020820180517bffffffffffffffffffffffffffffffffffffffffffffffffffffffff8381831617835250505050611c8e565b50505050565b600073ffffffffffffffffffffffffffffffffffffffff168273ffffffffffffffffffffffffffffffffffffffff1603611b94576040517f08c379a0000000000000000000000000000000000000000000000000000000008152600401611b8b90613073565b60405180910390fd5b611ba060008383611c84565b8060026000828254611bb291906128bb565b92505081905550806000808473ffffffffffffffffffffffffffffffffffffffff1673ffffffffffffffffffffffffffffffffffffffff1681526020019081526020016000206000828254611c0791906128bb565b925050819055508173ffffffffffffffffffffffffffffffffffffffff16600073ffffffffffffffffffffffffffffffffffffffff167fddf252ad1be2c89b69c2b068fc378daa952ba7f163c4a11628f55a4df523b3ef83604051611c6c91906120db565b60405180910390a3611c8060008383611c89565b5050565b505050565b505050565b6000611cf0826040518060400160405280602081526020017f5361666545524332303a206c6f772d6c6576656c2063616c6c206661696c65648152508573ffffffffffffffffffffffffffffffffffffffff16611d559092919063ffffffff16565b9050600081511115611d505780806020019051810190611d1091906130bf565b611d4f576040517f08c379a0000000000000000000000000000000000000000000000000000000008152600401611d469061315e565b60405180910390fd5b5b505050565b6060611d648484600085611d6d565b90509392505050565b606082471015611db2576040517f08c379a0000000000000000000000000000000000000000000000000000000008152600401611da9906131f0565b60405180910390fd5b611dbb85611e81565b611dfa576040517f08c379a0000000000000000000000000000000000000000000000000000000008152600401611df19061325c565b60405180910390fd5b6000808673ffffffffffffffffffffffffffffffffffffffff168587604051611e2391906132c3565b60006040518083038185875af1925050503d8060008114611e60576040519150601f19603f3d011682016040523d82523d6000602084013e611e65565b606091505b5091509150611e75828286611ea4565b92505050949350505050565b6000808273ffffffffffffffffffffffffffffffffffffffff163b119050919050565b60608315611eb457829050611f04565b600083511115611ec75782518084602001fd5b816040517f08c379a0000000000000000000000000000000000000000000000000000000008152600401611efb9190611f9b565b60405180910390fd5b9392505050565b600081519050919050565b600082825260208201905092915050565b60005b83811015611f45578082015181840152602081019050611f2a565b60008484015250505050565b6000601f19601f8301169050919050565b6000611f6d82611f0b565b611f778185611f16565b9350611f87818560208601611f27565b611f9081611f51565b840191505092915050565b60006020820190508181036000830152611fb58184611f62565b905092915050565b600080fd5b600073ffffffffffffffffffffffffffffffffffffffff82169050919050565b6000611fed82611fc2565b9050919050565b611ffd81611fe2565b811461200857600080fd5b50565b60008135905061201a81611ff4565b92915050565b6000819050919050565b61203381612020565b811461203e57600080fd5b50565b6000813590506120508161202a565b92915050565b6000806040838503121561206d5761206c611fbd565b5b600061207b8582860161200b565b925050602061208c85828601612041565b9150509250929050565b60008115159050919050565b6120ab81612096565b82525050565b60006020820190506120c660008301846120a2565b92915050565b6120d581612020565b82525050565b60006020820190506120f060008301846120cc565b92915050565b60008060006060848603121561210f5761210e611fbd565b5b600061211d8682870161200b565b935050602061212e8682870161200b565b925050604061213f86828701612041565b9150509250925092565b600061ffff82169050919050565b61216081612149565b811461216b57600080fd5b50565b60008135905061217d81612157565b92915050565b60006020828403121561219957612198611fbd565b5b60006121a78482850161216e565b91505092915050565b600060ff82169050919050565b6121c6816121b0565b82525050565b60006020820190506121e160008301846121bd565b92915050565b600077ffffffffffffffffffffffffffffffffffffffffffffffff82169050919050565b612214816121e7565b82525050565b600060208201905061222f600083018461220b565b92915050565b61223e81611fe2565b82525050565b60006020820190506122596000830184612235565b92915050565b60006020828403121561227557612274611fbd565b5b60006122838482850161200b565b91505092915050565b6000819050919050565b60006122b16122ac6122a784611fc2565b61228c565b611fc2565b9050919050565b60006122c382612296565b9050919050565b60006122d5826122b8565b9050919050565b6122e5816122ca565b82525050565b600060208201905061230060008301846122dc565b92915050565b60006fffffffffffffffffffffffffffffffff82169050919050565b61232b81612306565b811461233657600080fd5b50565b60008135905061234881612322565b92915050565b60006020828403121561236457612363611fbd565b5b600061237284828501612339565b91505092915050565b61238481612306565b82525050565b600065ffffffffffff82169050919050565b6123a58161238a565b82525050565b6123b481612149565b82525050565b600060c0820190506123cf60008301896120a2565b6123dc602083018861237b565b6123e9604083018761239c565b6123f660608301866123ab565b61240360808301856123ab565b61241060a083018461220b565b979650505050505050565b600060208201905061243060008301846123ab565b92915050565b6000806040838503121561244d5761244c611fbd565b5b600061245b8582860161200b565b925050602061246c8582860161200b565b9150509250929050565b7f4e487b7100000000000000000000000000000000000000000000000000000000600052602260045260246000fd5b600060028204905060018216806124bd57607f821691505b6020821081036124d0576124cf612476565b5b50919050565b7f43796265724172656e615374616b696e673a2070656e616c747920646179732060008201527f65786365656473206c696d697400000000000000000000000000000000000000602082015250565b6000612532602d83611f16565b915061253d826124d6565b604082019050919050565b6000602082019050818103600083015261256181612525565b9050919050565b7f5265656e7472616e637947756172643a207265656e7472616e742063616c6c00600082015250565b600061259e601f83611f16565b91506125a982612568565b602082019050919050565b600060208201905081810360008301526125cd81612591565b9050919050565b7f43796265724172656e615374616b696e673a206e6f7468696e6720697320737460008201527f616b656400000000000000000000000000000000000000000000000000000000602082015250565b6000612630602483611f16565b915061263b826125d4565b604082019050919050565b6000602082019050818103600083015261265f81612623565b9050919050565b7f43796265724172656e615374616b696e673a20756e7374616b656420616c726560008201527f6164790000000000000000000000000000000000000000000000000000000000602082015250565b60006126c2602383611f16565b91506126cd82612666565b604082019050919050565b600060208201905081810360008301526126f1816126b5565b9050919050565b7f4e487b7100000000000000000000000000000000000000000000000000000000600052601160045260246000fd5b6000612732826121e7565b915061273d836121e7565b9250828203905077ffffffffffffffffffffffffffffffffffffffffffffffff81111561276d5761276c6126f8565b5b92915050565b600061277e8261238a565b91506127898361238a565b92508282026127978161238a565b91508082146127a9576127a86126f8565b5b5092915050565b60006127bb8261238a565b91506127c68361238a565b9250828201905065ffffffffffff8111156127e4576127e36126f8565b5b92915050565b60006127f582612306565b915061280083612306565b925082820261280e81612306565b91508082146128205761281f6126f8565b5b5092915050565b7f4e487b7100000000000000000000000000000000000000000000000000000000600052601260045260246000fd5b600061286182612306565b915061286c83612306565b92508261287c5761287b612827565b5b828204905092915050565b600061289282612020565b915061289d83612020565b92508282039050818111156128b5576128b46126f8565b5b92915050565b60006128c682612020565b91506128d183612020565b92508282019050808211156128e9576128e86126f8565b5b92915050565b7f43796265724172656e615374616b696e673a20616c7265616479207374616b6560008201527f6400000000000000000000000000000000000000000000000000000000000000602082015250565b600061294b602183611f16565b9150612956826128ef565b604082019050919050565b6000602082019050818103600083015261297a8161293e565b9050919050565b600061298c826121e7565b9150612997836121e7565b9250828201905077ffffffffffffffffffffffffffffffffffffffffffffffff8111156129c7576129c66126f8565b5b92915050565b7f45524332303a2064656372656173656420616c6c6f77616e63652062656c6f7760008201527f207a65726f000000000000000000000000000000000000000000000000000000602082015250565b6000612a29602583611f16565b9150612a34826129cd565b604082019050919050565b60006020820190508181036000830152612a5881612a1c565b9050919050565b7f43796265724172656e615374616b696e673a2070656e616c747920425020657860008201527f6365656473206c696d6974000000000000000000000000000000000000000000602082015250565b6000612abb602b83611f16565b9150612ac682612a5f565b604082019050919050565b60006020820190508181036000830152612aea81612aae565b9050919050565b7f43796265724172656e615374616b696e673a207472656173757279206973207460008201527f6865207a65726f20616464726573730000000000000000000000000000000000602082015250565b6000612b4d602f83611f16565b9150612b5882612af1565b604082019050919050565b60006020820190508181036000830152612b7c81612b40565b9050919050565b7f4f776e61626c653a206e6577206f776e657220697320746865207a65726f206160008201527f6464726573730000000000000000000000000000000000000000000000000000602082015250565b6000612bdf602683611f16565b9150612bea82612b83565b604082019050919050565b60006020820190508181036000830152612c0e81612bd2565b9050919050565b7f45524332303a20617070726f76652066726f6d20746865207a65726f2061646460008201527f7265737300000000000000000000000000000000000000000000000000000000602082015250565b6000612c71602483611f16565b9150612c7c82612c15565b604082019050919050565b60006020820190508181036000830152612ca081612c64565b9050919050565b7f45524332303a20617070726f766520746f20746865207a65726f20616464726560008201527f7373000000000000000000000000000000000000000000000000000000000000602082015250565b6000612d03602283611f16565b9150612d0e82612ca7565b604082019050919050565b60006020820190508181036000830152612d3281612cf6565b9050919050565b7f45524332303a20696e73756666696369656e7420616c6c6f77616e6365000000600082015250565b6000612d6f601d83611f16565b9150612d7a82612d39565b602082019050919050565b60006020820190508181036000830152612d9e81612d62565b9050919050565b7f43796265724172656e615374616b696e673a204e4f4e5f5452414e534645524160008201527f424c450000000000000000000000000000000000000000000000000000000000602082015250565b6000612e01602383611f16565b9150612e0c82612da5565b604082019050919050565b60006020820190508181036000830152612e3081612df4565b9050919050565b7f4f776e61626c653a2063616c6c6572206973206e6f7420746865206f776e6572600082015250565b6000612e6d602083611f16565b9150612e7882612e37565b602082019050919050565b60006020820190508181036000830152612e9c81612e60565b9050919050565b7f45524332303a206275726e2066726f6d20746865207a65726f2061646472657360008201527f7300000000000000000000000000000000000000000000000000000000000000602082015250565b6000612eff602183611f16565b9150612f0a82612ea3565b604082019050919050565b60006020820190508181036000830152612f2e81612ef2565b9050919050565b7f45524332303a206275726e20616d6f756e7420657863656564732062616c616e60008201527f6365000000000000000000000000000000000000000000000000000000000000602082015250565b6000612f91602283611f16565b9150612f9c82612f35565b604082019050919050565b60006020820190508181036000830152612fc081612f84565b9050919050565b6000604082019050612fdc6000830185612235565b612fe960208301846120cc565b9392505050565b60006060820190506130056000830186612235565b6130126020830185612235565b61301f60408301846120cc565b949350505050565b7f45524332303a206d696e7420746f20746865207a65726f206164647265737300600082015250565b600061305d601f83611f16565b915061306882613027565b602082019050919050565b6000602082019050818103600083015261308c81613050565b9050919050565b61309c81612096565b81146130a757600080fd5b50565b6000815190506130b981613093565b92915050565b6000602082840312156130d5576130d4611fbd565b5b60006130e3848285016130aa565b91505092915050565b7f5361666545524332303a204552433230206f7065726174696f6e20646964206e60008201527f6f74207375636365656400000000000000000000000000000000000000000000602082015250565b6000613148602a83611f16565b9150613153826130ec565b604082019050919050565b600060208201905081810360008301526131778161313b565b9050919050565b7f416464726573733a20696e73756666696369656e742062616c616e636520666f60008201527f722063616c6c0000000000000000000000000000000000000000000000000000602082015250565b60006131da602683611f16565b91506131e58261317e565b604082019050919050565b60006020820190508181036000830152613209816131cd565b9050919050565b7f416464726573733a2063616c6c20746f206e6f6e2d636f6e7472616374000000600082015250565b6000613246601d83611f16565b915061325182613210565b602082019050919050565b6000602082019050818103600083015261327581613239565b9050919050565b600081519050919050565b600081905092915050565b600061329d8261327c565b6132a78185613287565b93506132b7818560208601611f27565b80840191505092915050565b60006132cf8284613292565b91508190509291505056fea264697066735822122096b668eb1a4e09b943e53b5d08a9e9a96600552c2e2f9544ef70f62dec0dbbba64736f6c63430008110033",
  "linkReferences": {},
  "deployedLinkReferences": {}
}