{
  "_format": "hh-sol-artifact-1",
  "contractName": "MockVesting",
  "sourceName": "contracts/MockVesting.sol",
  "abi": [
    {
      "inputs": [
        {
          "internalType": "address",
          "name": "token_",
          "type": "address"
        }
      ],
      "stateMutability": "nonpayable",
      "type": "constructor"
    },
    {
      "anonymous": false,
      "inputs": [
        {
          "indexed": true,
          "internalType": "address",
          "name": "previousOwner",
          "type": "address"
        },
        {
          "indexed": true,
          "internalType": "address",
          "name": "newOwner",
          "type": "address"
        }
      ],
      "name": "OwnershipTransferred",
      "type": "event"
    },
    {
      "anonymous": false,
      "inputs": [
        {
          "indexed": false,
          "internalType": "uint256",
          "name": "amount",
          "type": "uint256"
        }
      ],
      "name": "Released",
      "type": "event"
    },
    {
      "stateMutability": "payable",
      "type": "fallback"
    },
    {
      "inputs": [
        {
          "internalType": "address",
          "name": "addr",
          "type": "address"
        }
      ],
      "name": "computeReleasableAmount",
      "outputs": [
        {
          "internalType": "uint256",
          "name": "",
          "type": "uint256"
        }
      ],
      "stateMutability": "view",
      "type": "function"
    },
    {
      "inputs": [
        {
          "internalType": "address",
          "name": "_beneficiary",
          "type": "address"
        },
        {
          "internalType": "uint256",
          "name": "_start",
          "type": "uint256"
        },
        {
          "internalType": "uint256",
          "name": "_duration",
          "type": "uint256"
        },
        {
          "internalType": "uint256",
          "name": "_slicePeriodSeconds",
          "type": "uint256"
        },
        {
          "internalType": "uint256",
          "name": "_amount",
          "type": "uint256"
        }
      ],
      "name": "createVestingSchedule",
      "outputs": [],
      "stateMutability": "nonpayable",
      "type": "function"
    },
    {
      "inputs": [],
      "name": "getToken",
      "outputs": [
        {
          "internalType": "address",
          "name": "",
          "type": "address"
        }
      ],
      "stateMutability": "view",
      "type": "function"
    },
    {
      "inputs": [
        {
          "internalType": "address",
          "name": "addr",
          "type": "address"
        }
      ],
      "name": "getVestingSchedule",
      "outputs": [
        {
          "components": [
            {
              "internalType": "bool",
              "name": "initialized",
              "type": "bool"
            },
            {
              "internalType": "address",
              "name": "beneficiary",
              "type": "address"
            },
            {
              "internalType": "uint256",
              "name": "start",
              "type": "uint256"
            },
            {
              "internalType": "uint256",
              "name": "duration",
              "type": "uint256"
            },
            {
              "internalType": "uint256",
              "name": "slicePeriodSeconds",
              "type": "uint256"
            },
            {
              "internalType": "uint256",
              "name": "amountTotal",
              "type": "uint256"
            },
            {
              "internalType": "uint256",
              "name": "released",
              "type": "uint256"
            }
          ],
          "internalType": "struct Vesting.VestingSchedule",
          "name": "",
          "type": "tuple"
        }
      ],
      "stateMutability": "view",
      "type": "function"
    },
    {
      "inputs": [],
      "name": "getVestingSchedulesTotalAmount",
      "outputs": [
        {
          "internalType": "uint256",
          "name": "",
          "type": "uint256"
        }
      ],
      "stateMutability": "view",
      "type": "function"
    },
    {
      "inputs": [],
      "name": "getWithdrawableAmount",
      "outputs": [
        {
          "internalType": "uint256",
          "name": "",
          "type": "uint256"
        }
      ],
      "stateMutability": "view",
      "type": "function"
    },
    {
      "inputs": [],
      "name": "owner",
      "outputs": [
        {
          "internalType": "address",
          "name": "",
          "type": "address"
        }
      ],
      "stateMutability": "view",
      "type": "function"
    },
    {
      "inputs": [
        {
          "internalType": "address",
          "name": "addr",
          "type": "address"
        },
        {
          "internalType": "uint256",
          "name": "amount",
          "type": "uint256"
        }
      ],
      "name": "release",
      "outputs": [],
      "stateMutability": "nonpayable",
      "type": "function"
    },
    {
      "inputs": [],
      "name": "renounceOwnership",
      "outputs": [],
      "stateMutability": "nonpayable",
      "type": "function"
    },
    {
      "inputs": [
        {
          "internalType": "uint256",
          "name": "_time",
          "type": "uint256"
        }
      ],
      "name": "setCurrentTime",
      "outputs": [],
      "stateMutability": "nonpayable",
      "type": "function"
    },
    {
      "inputs": [
        {
          "internalType": "address",
          "name": "newOwner",
          "type": "address"
        }
      ],
      "name": "transferOwnership",
      "outputs": [],
      "stateMutability": "nonpayable",
      "type": "function"
    },
    {
      "stateMutability": "payable",
      "type": "receive"
    }
  ],
  "bytecode": "0x60a060405260006004553480156200001657600080fd5b506040516200214b3803806200214b83398181016040528101906200003c919062000210565b806200005d62000051620000da60201b60201c565b620000e260201b60201c565b60018081905550600073ffffffffffffffffffffffffffffffffffffffff168173ffffffffffffffffffffffffffffffffffffffff16036200009e57600080fd5b8073ffffffffffffffffffffffffffffffffffffffff1660808173ffffffffffffffffffffffffffffffffffffffff1681525050505062000242565b600033905090565b60008060009054906101000a900473ffffffffffffffffffffffffffffffffffffffff169050816000806101000a81548173ffffffffffffffffffffffffffffffffffffffff021916908373ffffffffffffffffffffffffffffffffffffffff1602179055508173ffffffffffffffffffffffffffffffffffffffff168173ffffffffffffffffffffffffffffffffffffffff167f8be0079c531659141344cd1fd0a4f28419497f9722a3daafe3b4186f6b6457e060405160405180910390a35050565b600080fd5b600073ffffffffffffffffffffffffffffffffffffffff82169050919050565b6000620001d882620001ab565b9050919050565b620001ea81620001cb565b8114620001f657600080fd5b50565b6000815190506200020a81620001df565b92915050565b600060208284031215620002295762000228620001a6565b5b60006200023984828501620001f9565b91505092915050565b608051611edf6200026c6000396000818161055b0152818161088001526108ff0152611edf6000f3fe6080604052600436106100a05760003560e01c8063715018a611610064578063715018a61461017a5780638da5cb5b1461019157806390be10cc146101bc5780639f829063146101e7578063dd1fdb6214610224578063f2fde38b14610261576100a7565b80630357371d146100a95780631bf0b08b146100d257806321df0da7146100fb57806322f8e5661461012657806348deb4711461014f576100a7565b366100a757005b005b3480156100b557600080fd5b506100d060048036038101906100cb91906112c5565b61028a565b005b3480156100de57600080fd5b506100f960048036038101906100f49190611305565b6105af565b005b34801561010757600080fd5b5061011061087c565b60405161011d919061138f565b60405180910390f35b34801561013257600080fd5b5061014d600480360381019061014891906113aa565b6108a4565b005b34801561015b57600080fd5b506101646108ae565b60405161017191906113e6565b60405180910390f35b34801561018657600080fd5b5061018f6108b8565b005b34801561019d57600080fd5b506101a66108cc565b6040516101b3919061138f565b60405180910390f35b3480156101c857600080fd5b506101d16108f5565b6040516101de91906113e6565b60405180910390f35b3480156101f357600080fd5b5061020e60048036038101906102099190611401565b6109aa565b60405161021b91906114f5565b60405180910390f35b34801561023057600080fd5b5061024b60048036038101906102469190611401565b610aa6565b60405161025891906113e6565b60405180910390f35b34801561026d57600080fd5b5061028860048036038101906102839190611401565b610ba9565b005b6002600154036102cf576040517f08c379a00000000000000000000000000000000000000000000000000000000081526004016102c69061156d565b60405180910390fd5b60026001819055506000600260008473ffffffffffffffffffffffffffffffffffffffff1673ffffffffffffffffffffffffffffffffffffffff168152602001908152602001600020905060008160000160019054906101000a900473ffffffffffffffffffffffffffffffffffffffff1673ffffffffffffffffffffffffffffffffffffffff163373ffffffffffffffffffffffffffffffffffffffff16149050600061037b6108cc565b73ffffffffffffffffffffffffffffffffffffffff163373ffffffffffffffffffffffffffffffffffffffff1614905081806103b45750805b6103f3576040517f08c379a00000000000000000000000000000000000000000000000000000000081526004016103ea90611625565b60405180910390fd5b60006104ac846040518060e00160405290816000820160009054906101000a900460ff161515151581526020016000820160019054906101000a900473ffffffffffffffffffffffffffffffffffffffff1673ffffffffffffffffffffffffffffffffffffffff1673ffffffffffffffffffffffffffffffffffffffff16815260200160018201548152602001600282015481526020016003820154815260200160048201548152602001600582015481525050610c2c565b9050848110156104f1576040517f08c379a00000000000000000000000000000000000000000000000000000000081526004016104e8906116b7565b60405180910390fd5b610508858560050154610d2890919063ffffffff16565b846005018190555060008460000160019054906101000a900473ffffffffffffffffffffffffffffffffffffffff16905061054e86600354610d3e90919063ffffffff16565b60038190555061059f81877f000000000000000000000000000000000000000000000000000000000000000073ffffffffffffffffffffffffffffffffffffffff16610d549092919063ffffffff16565b5050505050600180819055505050565b6105b7610dda565b803073ffffffffffffffffffffffffffffffffffffffff166390be10cc6040518163ffffffff1660e01b8152600401602060405180830381865afa158015610603573d6000803e3d6000fd5b505050506040513d601f19601f8201168201806040525081019061062791906116ec565b1015610668576040517f08c379a000000000000000000000000000000000000000000000000000000000815260040161065f906117b1565b60405180910390fd5b600083116106ab576040517f08c379a00000000000000000000000000000000000000000000000000000000081526004016106a290611843565b60405180910390fd5b600081116106ee576040517f08c379a00000000000000000000000000000000000000000000000000000000081526004016106e5906118af565b60405180910390fd5b6001821015610732576040517f08c379a000000000000000000000000000000000000000000000000000000000815260040161072990611941565b60405180910390fd5b6040518060e001604052806001151581526020018673ffffffffffffffffffffffffffffffffffffffff1681526020018581526020018481526020018381526020018281526020016000815250600260008773ffffffffffffffffffffffffffffffffffffffff1673ffffffffffffffffffffffffffffffffffffffff16815260200190815260200160002060008201518160000160006101000a81548160ff02191690831515021790555060208201518160000160016101000a81548173ffffffffffffffffffffffffffffffffffffffff021916908373ffffffffffffffffffffffffffffffffffffffff16021790555060408201518160010155606082015181600201556080820151816003015560a0820151816004015560c0820151816005015590505061086f81600354610d2890919063ffffffff16565b6003819055505050505050565b60007f0000000000000000000000000000000000000000000000000000000000000000905090565b8060048190555050565b6000600354905090565b6108c0610dda565b6108ca6000610e58565b565b60008060009054906101000a900473ffffffffffffffffffffffffffffffffffffffff16905090565b60006109a56003547f000000000000000000000000000000000000000000000000000000000000000073ffffffffffffffffffffffffffffffffffffffff166370a08231306040518263ffffffff1660e01b8152600401610956919061138f565b602060405180830381865afa158015610973573d6000803e3d6000fd5b505050506040513d601f19601f8201168201806040525081019061099791906116ec565b610d3e90919063ffffffff16565b905090565b6109b26111d7565b600260008373ffffffffffffffffffffffffffffffffffffffff1673ffffffffffffffffffffffffffffffffffffffff1681526020019081526020016000206040518060e00160405290816000820160009054906101000a900460ff161515151581526020016000820160019054906101000a900473ffffffffffffffffffffffffffffffffffffffff1673ffffffffffffffffffffffffffffffffffffffff1673ffffffffffffffffffffffffffffffffffffffff168152602001600182015481526020016002820154815260200160038201548152602001600482015481526020016005820154815250509050919050565b600080600260008473ffffffffffffffffffffffffffffffffffffffff1673ffffffffffffffffffffffffffffffffffffffff1681526020019081526020016000209050610ba1816040518060e00160405290816000820160009054906101000a900460ff161515151581526020016000820160019054906101000a900473ffffffffffffffffffffffffffffffffffffffff1673ffffffffffffffffffffffffffffffffffffffff1673ffffffffffffffffffffffffffffffffffffffff16815260200160018201548152602001600282015481526020016003820154815260200160048201548152602001600582015481525050610c2c565b915050919050565b610bb1610dda565b600073ffffffffffffffffffffffffffffffffffffffff168173ffffffffffffffffffffffffffffffffffffffff1603610c20576040517f08c379a0000000000000000000000000000000000000000000000000000000008152600401610c17906119d3565b60405180910390fd5b610c2981610e58565b50565b600080610c37610f1c565b9050610c5483606001518460400151610d2890919063ffffffff16565b8110610c7d57610c758360c001518460a00151610d3e90919063ffffffff16565b915050610d23565b6000610c96846040015183610d3e90919063ffffffff16565b90506000846080015190506000610cb68284610f2690919063ffffffff16565b90506000610ccd8383610f3c90919063ffffffff16565b90506000610cfe8860600151610cf0848b60a00151610f3c90919063ffffffff16565b610f2690919063ffffffff16565b9050610d178860c0015182610d3e90919063ffffffff16565b90508096505050505050505b919050565b60008183610d369190611a22565b905092915050565b60008183610d4c9190611a56565b905092915050565b610dd58363a9059cbb60e01b8484604051602401610d73929190611a8a565b604051602081830303815290604052907bffffffffffffffffffffffffffffffffffffffffffffffffffffffff19166020820180517bffffffffffffffffffffffffffffffffffffffffffffffffffffffff8381831617835250505050610f52565b505050565b610de2611019565b73ffffffffffffffffffffffffffffffffffffffff16610e006108cc565b73ffffffffffffffffffffffffffffffffffffffff1614610e56576040517f08c379a0000000000000000000000000000000000000000000000000000000008152600401610e4d90611aff565b60405180910390fd5b565b60008060009054906101000a900473ffffffffffffffffffffffffffffffffffffffff169050816000806101000a81548173ffffffffffffffffffffffffffffffffffffffff021916908373ffffffffffffffffffffffffffffffffffffffff1602179055508173ffffffffffffffffffffffffffffffffffffffff168173ffffffffffffffffffffffffffffffffffffffff167f8be0079c531659141344cd1fd0a4f28419497f9722a3daafe3b4186f6b6457e060405160405180910390a35050565b6000600454905090565b60008183610f349190611b4e565b905092915050565b60008183610f4a9190611b7f565b905092915050565b6000610fb4826040518060400160405280602081526020017f5361666545524332303a206c6f772d6c6576656c2063616c6c206661696c65648152508573ffffffffffffffffffffffffffffffffffffffff166110219092919063ffffffff16565b90506000815111156110145780806020019051810190610fd49190611bed565b611013576040517f08c379a000000000000000000000000000000000000000000000000000000000815260040161100a90611c8c565b60405180910390fd5b5b505050565b600033905090565b60606110308484600085611039565b90509392505050565b60608247101561107e576040517f08c379a000000000000000000000000000000000000000000000000000000000815260040161107590611d1e565b60405180910390fd5b6110878561114d565b6110c6576040517f08c379a00000000000000000000000000000000000000000000000000000000081526004016110bd90611d8a565b60405180910390fd5b6000808673ffffffffffffffffffffffffffffffffffffffff1685876040516110ef9190611e1b565b60006040518083038185875af1925050503d806000811461112c576040519150601f19603f3d011682016040523d82523d6000602084013e611131565b606091505b5091509150611141828286611170565b92505050949350505050565b6000808273ffffffffffffffffffffffffffffffffffffffff163b119050919050565b60608315611180578290506111d0565b6000835111156111935782518084602001fd5b816040517f08c379a00000000000000000000000000000000000000000000000000000000081526004016111c79190611e87565b60405180910390fd5b9392505050565b6040518060e00160405280600015158152602001600073ffffffffffffffffffffffffffffffffffffffff16815260200160008152602001600081526020016000815260200160008152602001600081525090565b600080fd5b600073ffffffffffffffffffffffffffffffffffffffff82169050919050565b600061125c82611231565b9050919050565b61126c81611251565b811461127757600080fd5b50565b60008135905061128981611263565b92915050565b6000819050919050565b6112a28161128f565b81146112ad57600080fd5b50565b6000813590506112bf81611299565b92915050565b600080604083850312156112dc576112db61122c565b5b60006112ea8582860161127a565b92505060206112fb858286016112b0565b9150509250929050565b600080600080600060a086880312156113215761132061122c565b5b600061132f8882890161127a565b9550506020611340888289016112b0565b9450506040611351888289016112b0565b9350506060611362888289016112b0565b9250506080611373888289016112b0565b9150509295509295909350565b61138981611251565b82525050565b60006020820190506113a46000830184611380565b92915050565b6000602082840312156113c0576113bf61122c565b5b60006113ce848285016112b0565b91505092915050565b6113e08161128f565b82525050565b60006020820190506113fb60008301846113d7565b92915050565b6000602082840312156114175761141661122c565b5b60006114258482850161127a565b91505092915050565b60008115159050919050565b6114438161142e565b82525050565b61145281611251565b82525050565b6114618161128f565b82525050565b60e08201600082015161147d600085018261143a565b5060208201516114906020850182611449565b5060408201516114a36040850182611458565b5060608201516114b66060850182611458565b5060808201516114c96080850182611458565b5060a08201516114dc60a0850182611458565b5060c08201516114ef60c0850182611458565b50505050565b600060e08201905061150a6000830184611467565b92915050565b600082825260208201905092915050565b7f5265656e7472616e637947756172643a207265656e7472616e742063616c6c00600082015250565b6000611557601f83611510565b915061156282611521565b602082019050919050565b600060208201905081810360008301526115868161154a565b9050919050565b7f546f6b656e56657374696e673a206f6e6c792062656e6566696369617279206160008201527f6e64206f776e65722063616e2072656c656173652076657374656420746f6b6560208201527f6e73000000000000000000000000000000000000000000000000000000000000604082015250565b600061160f604283611510565b915061161a8261158d565b606082019050919050565b6000602082019050818103600083015261163e81611602565b9050919050565b7f546f6b656e56657374696e673a2063616e6e6f742072656c6561736520746f6b60008201527f656e732c206e6f7420656e6f7567682076657374656420746f6b656e73000000602082015250565b60006116a1603d83611510565b91506116ac82611645565b604082019050919050565b600060208201905081810360008301526116d081611694565b9050919050565b6000815190506116e681611299565b92915050565b6000602082840312156117025761170161122c565b5b6000611710848285016116d7565b91505092915050565b7f546f6b656e56657374696e673a2063616e6e6f7420637265617465207665737460008201527f696e67207363686564756c652062656361757365206e6f74207375666669636960208201527f656e7420746f6b656e7300000000000000000000000000000000000000000000604082015250565b600061179b604a83611510565b91506117a682611719565b606082019050919050565b600060208201905081810360008301526117ca8161178e565b9050919050565b7f546f6b656e56657374696e673a206475726174696f6e206d757374206265203e60008201527f2030000000000000000000000000000000000000000000000000000000000000602082015250565b600061182d602283611510565b9150611838826117d1565b604082019050919050565b6000602082019050818103600083015261185c81611820565b9050919050565b7f546f6b656e56657374696e673a20616d6f756e74206d757374206265203e2030600082015250565b6000611899602083611510565b91506118a482611863565b602082019050919050565b600060208201905081810360008301526118c88161188c565b9050919050565b7f546f6b656e56657374696e673a20736c696365506572696f645365636f6e647360008201527f206d757374206265203e3d203100000000000000000000000000000000000000602082015250565b600061192b602d83611510565b9150611936826118cf565b604082019050919050565b6000602082019050818103600083015261195a8161191e565b9050919050565b7f4f776e61626c653a206e6577206f776e657220697320746865207a65726f206160008201527f6464726573730000000000000000000000000000000000000000000000000000602082015250565b60006119bd602683611510565b91506119c882611961565b604082019050919050565b600060208201905081810360008301526119ec816119b0565b9050919050565b7f4e487b7100000000000000000000000000000000000000000000000000000000600052601160045260246000fd5b6000611a2d8261128f565b9150611a388361128f565b9250828201905080821115611a5057611a4f6119f3565b5b92915050565b6000611a618261128f565b9150611a6c8361128f565b9250828203905081811115611a8457611a836119f3565b5b92915050565b6000604082019050611a9f6000830185611380565b611aac60208301846113d7565b9392505050565b7f4f776e61626c653a2063616c6c6572206973206e6f7420746865206f776e6572600082015250565b6000611ae9602083611510565b9150611af482611ab3565b602082019050919050565b60006020820190508181036000830152611b1881611adc565b9050919050565b7f4e487b7100000000000000000000000000000000000000000000000000000000600052601260045260246000fd5b6000611b598261128f565b9150611b648361128f565b925082611b7457611b73611b1f565b5b828204905092915050565b6000611b8a8261128f565b9150611b958361128f565b9250828202611ba38161128f565b91508282048414831517611bba57611bb96119f3565b5b5092915050565b611bca8161142e565b8114611bd557600080fd5b50565b600081519050611be781611bc1565b92915050565b600060208284031215611c0357611c0261122c565b5b6000611c1184828501611bd8565b91505092915050565b7f5361666545524332303a204552433230206f7065726174696f6e20646964206e60008201527f6f74207375636365656400000000000000000000000000000000000000000000602082015250565b6000611c76602a83611510565b9150611c8182611c1a565b604082019050919050565b60006020820190508181036000830152611ca581611c69565b9050919050565b7f416464726573733a20696e73756666696369656e742062616c616e636520666f60008201527f722063616c6c0000000000000000000000000000000000000000000000000000602082015250565b6000611d08602683611510565b9150611d1382611cac565b604082019050919050565b60006020820190508181036000830152611d3781611cfb565b9050919050565b7f416464726573733a2063616c6c20746f206e6f6e2d636f6e7472616374000000600082015250565b6000611d74601d83611510565b9150611d7f82611d3e565b602082019050919050565b60006020820190508181036000830152611da381611d67565b9050919050565b600081519050919050565b600081905092915050565b60005b83811015611dde578082015181840152602081019050611dc3565b60008484015250505050565b6000611df582611daa565b611dff8185611db5565b9350611e0f818560208601611dc0565b80840191505092915050565b6000611e278284611dea565b915081905092915050565b600081519050919050565b6000601f19601f8301169050919050565b6000611e5982611e32565b611e638185611510565b9350611e73818560208601611dc0565b611e7c81611e3d565b840191505092915050565b60006020820190508181036000830152611ea18184611e4e565b90509291505056fea2646970667358221220a6b642522ed1180268765fdaa7f47046909e46c2835856a9fdd19e3f011dd04d64736f6c63430008110033",
  "linkReferences": {},
  "deployedLinkReferences": {}
}