{
  "_format": "hh-sol-artifact-1",
  "contractName": "MockVesting",
  "sourceName": "contracts/MockVesting.sol",
  "abi": [
    {
      "inputs": [
        {
          "internalType": "address",
          "name": "token_",
          "type": "address"
        }
      ],
      "stateMutability": "nonpayable",
      "type": "constructor"
    },
    {
      "anonymous": false,
      "inputs": [
        {
          "indexed": true,
          "internalType": "address",
          "name": "previousOwner",
          "type": "address"
        },
        {
          "indexed": true,
          "internalType": "address",
          "name": "newOwner",
          "type": "address"
        }
      ],
      "name": "OwnershipTransferred",
      "type": "event"
    },
    {
      "anonymous": false,
      "inputs": [
        {
          "indexed": false,
          "internalType": "uint256",
          "name": "amount",
          "type": "uint256"
        }
      ],
      "name": "Released",
      "type": "event"
    },
    {
      "stateMutability": "payable",
      "type": "fallback"
    },
    {
      "inputs": [
        {
          "internalType": "address",
          "name": "addr",
          "type": "address"
        }
      ],
      "name": "computeReleasableAmount",
      "outputs": [
        {
          "internalType": "uint256",
          "name": "",
          "type": "uint256"
        }
      ],
      "stateMutability": "view",
      "type": "function"
    },
    {
      "inputs": [
        {
          "internalType": "address",
          "name": "_beneficiary",
          "type": "address"
        },
        {
          "internalType": "uint256",
          "name": "_start",
          "type": "uint256"
        },
        {
          "internalType": "uint256",
          "name": "_duration",
          "type": "uint256"
        },
        {
          "internalType": "uint256",
          "name": "_slicePeriodSeconds",
          "type": "uint256"
        },
        {
          "internalType": "uint256",
          "name": "_amount",
          "type": "uint256"
        }
      ],
      "name": "createVestingSchedule",
      "outputs": [],
      "stateMutability": "nonpayable",
      "type": "function"
    },
    {
      "inputs": [],
      "name": "getToken",
      "outputs": [
        {
          "internalType": "address",
          "name": "",
          "type": "address"
        }
      ],
      "stateMutability": "view",
      "type": "function"
    },
    {
      "inputs": [
        {
          "internalType": "address",
          "name": "addr",
          "type": "address"
        }
      ],
      "name": "getVestingSchedule",
      "outputs": [
        {
          "components": [
            {
              "internalType": "bool",
              "name": "initialized",
              "type": "bool"
            },
            {
              "internalType": "address",
              "name": "beneficiary",
              "type": "address"
            },
            {
              "internalType": "uint256",
              "name": "start",
              "type": "uint256"
            },
            {
              "internalType": "uint256",
              "name": "duration",
              "type": "uint256"
            },
            {
              "internalType": "uint256",
              "name": "slicePeriodSeconds",
              "type": "uint256"
            },
            {
              "internalType": "uint256",
              "name": "amountTotal",
              "type": "uint256"
            },
            {
              "internalType": "uint256",
              "name": "released",
              "type": "uint256"
            }
          ],
          "internalType": "struct Vesting.VestingSchedule",
          "name": "",
          "type": "tuple"
        }
      ],
      "stateMutability": "view",
      "type": "function"
    },
    {
      "inputs": [],
      "name": "getVestingSchedulesTotalAmount",
      "outputs": [
        {
          "internalType": "uint256",
          "name": "",
          "type": "uint256"
        }
      ],
      "stateMutability": "view",
      "type": "function"
    },
    {
      "inputs": [],
      "name": "getWithdrawableAmount",
      "outputs": [
        {
          "internalType": "uint256",
          "name": "",
          "type": "uint256"
        }
      ],
      "stateMutability": "view",
      "type": "function"
    },
    {
      "inputs": [],
      "name": "owner",
      "outputs": [
        {
          "internalType": "address",
          "name": "",
          "type": "address"
        }
      ],
      "stateMutability": "view",
      "type": "function"
    },
    {
      "inputs": [
        {
          "internalType": "address",
          "name": "addr",
          "type": "address"
        },
        {
          "internalType": "uint256",
          "name": "amount",
          "type": "uint256"
        }
      ],
      "name": "release",
      "outputs": [],
      "stateMutability": "nonpayable",
      "type": "function"
    },
    {
      "inputs": [],
      "name": "renounceOwnership",
      "outputs": [],
      "stateMutability": "nonpayable",
      "type": "function"
    },
    {
      "inputs": [
        {
          "internalType": "uint256",
          "name": "_time",
          "type": "uint256"
        }
      ],
      "name": "setCurrentTime",
      "outputs": [],
      "stateMutability": "nonpayable",
      "type": "function"
    },
    {
      "inputs": [
        {
          "internalType": "address",
          "name": "newOwner",
          "type": "address"
        }
      ],
      "name": "transferOwnership",
      "outputs": [],
      "stateMutability": "nonpayable",
      "type": "function"
    },
    {
      "stateMutability": "payable",
      "type": "receive"
    }
  ],
  "bytecode": "0x60a060405260006004553480156200001657600080fd5b50604051620022813803806200228183398181016040528101906200003c919062000210565b806200005d62000051620000da60201b60201c565b620000e260201b60201c565b60018081905550600073ffffffffffffffffffffffffffffffffffffffff168173ffffffffffffffffffffffffffffffffffffffff16036200009e57600080fd5b8073ffffffffffffffffffffffffffffffffffffffff1660808173ffffffffffffffffffffffffffffffffffffffff1681525050505062000242565b600033905090565b60008060009054906101000a900473ffffffffffffffffffffffffffffffffffffffff169050816000806101000a81548173ffffffffffffffffffffffffffffffffffffffff021916908373ffffffffffffffffffffffffffffffffffffffff1602179055508173ffffffffffffffffffffffffffffffffffffffff168173ffffffffffffffffffffffffffffffffffffffff167f8be0079c531659141344cd1fd0a4f28419497f9722a3daafe3b4186f6b6457e060405160405180910390a35050565b600080fd5b600073ffffffffffffffffffffffffffffffffffffffff82169050919050565b6000620001d882620001ab565b9050919050565b620001ea81620001cb565b8114620001f657600080fd5b50565b6000815190506200020a81620001df565b92915050565b600060208284031215620002295762000228620001a6565b5b60006200023984828501620001f9565b91505092915050565b6080516120156200026c6000396000818161055b0152818161092401526109a301526120156000f3fe6080604052600436106100a05760003560e01c8063715018a611610064578063715018a61461017a5780638da5cb5b1461019157806390be10cc146101bc5780639f829063146101e7578063dd1fdb6214610224578063f2fde38b14610261576100a7565b80630357371d146100a95780631bf0b08b146100d257806321df0da7146100fb57806322f8e5661461012657806348deb4711461014f576100a7565b366100a757005b005b3480156100b557600080fd5b506100d060048036038101906100cb9190611369565b61028a565b005b3480156100de57600080fd5b506100f960048036038101906100f491906113a9565b6105af565b005b34801561010757600080fd5b50610110610920565b60405161011d9190611433565b60405180910390f35b34801561013257600080fd5b5061014d6004803603810190610148919061144e565b610948565b005b34801561015b57600080fd5b50610164610952565b604051610171919061148a565b60405180910390f35b34801561018657600080fd5b5061018f61095c565b005b34801561019d57600080fd5b506101a6610970565b6040516101b39190611433565b60405180910390f35b3480156101c857600080fd5b506101d1610999565b6040516101de919061148a565b60405180910390f35b3480156101f357600080fd5b5061020e600480360381019061020991906114a5565b610a4e565b60405161021b9190611599565b60405180910390f35b34801561023057600080fd5b5061024b600480360381019061024691906114a5565b610b4a565b604051610258919061148a565b60405180910390f35b34801561026d57600080fd5b50610288600480360381019061028391906114a5565b610c4d565b005b6002600154036102cf576040517f08c379a00000000000000000000000000000000000000000000000000000000081526004016102c690611611565b60405180910390fd5b60026001819055506000600260008473ffffffffffffffffffffffffffffffffffffffff1673ffffffffffffffffffffffffffffffffffffffff168152602001908152602001600020905060008160000160019054906101000a900473ffffffffffffffffffffffffffffffffffffffff1673ffffffffffffffffffffffffffffffffffffffff163373ffffffffffffffffffffffffffffffffffffffff16149050600061037b610970565b73ffffffffffffffffffffffffffffffffffffffff163373ffffffffffffffffffffffffffffffffffffffff1614905081806103b45750805b6103f3576040517f08c379a00000000000000000000000000000000000000000000000000000000081526004016103ea906116c9565b60405180910390fd5b60006104ac846040518060e00160405290816000820160009054906101000a900460ff161515151581526020016000820160019054906101000a900473ffffffffffffffffffffffffffffffffffffffff1673ffffffffffffffffffffffffffffffffffffffff1673ffffffffffffffffffffffffffffffffffffffff16815260200160018201548152602001600282015481526020016003820154815260200160048201548152602001600582015481525050610cd0565b9050848110156104f1576040517f08c379a00000000000000000000000000000000000000000000000000000000081526004016104e89061175b565b60405180910390fd5b610508858560050154610dcc90919063ffffffff16565b846005018190555060008460000160019054906101000a900473ffffffffffffffffffffffffffffffffffffffff16905061054e86600354610de290919063ffffffff16565b60038190555061059f81877f000000000000000000000000000000000000000000000000000000000000000073ffffffffffffffffffffffffffffffffffffffff16610df89092919063ffffffff16565b5050505050600180819055505050565b6105b7610e7e565b803073ffffffffffffffffffffffffffffffffffffffff166390be10cc6040518163ffffffff1660e01b8152600401602060405180830381865afa158015610603573d6000803e3d6000fd5b505050506040513d601f19601f820116820180604052508101906106279190611790565b1015610668576040517f08c379a000000000000000000000000000000000000000000000000000000000815260040161065f90611855565b60405180910390fd5b600083116106ab576040517f08c379a00000000000000000000000000000000000000000000000000000000081526004016106a2906118e7565b60405180910390fd5b600081116106ee576040517f08c379a00000000000000000000000000000000000000000000000000000000081526004016106e590611953565b60405180910390fd5b6001821015610732576040517f08c379a0000000000000000000000000000000000000000000000000000000008152600401610729906119e5565b60405180910390fd5b61073a610efc565b84101561077c576040517f08c379a000000000000000000000000000000000000000000000000000000000815260040161077390611a77565b60405180910390fd5b600260008673ffffffffffffffffffffffffffffffffffffffff1673ffffffffffffffffffffffffffffffffffffffff16815260200190815260200160002060000160009054906101000a900460ff16156107d657600080fd5b6040518060e001604052806001151581526020018673ffffffffffffffffffffffffffffffffffffffff1681526020018581526020018481526020018381526020018281526020016000815250600260008773ffffffffffffffffffffffffffffffffffffffff1673ffffffffffffffffffffffffffffffffffffffff16815260200190815260200160002060008201518160000160006101000a81548160ff02191690831515021790555060208201518160000160016101000a81548173ffffffffffffffffffffffffffffffffffffffff021916908373ffffffffffffffffffffffffffffffffffffffff16021790555060408201518160010155606082015181600201556080820151816003015560a0820151816004015560c0820151816005015590505061091381600354610dcc90919063ffffffff16565b6003819055505050505050565b60007f0000000000000000000000000000000000000000000000000000000000000000905090565b8060048190555050565b6000600354905090565b610964610e7e565b61096e6000610f06565b565b60008060009054906101000a900473ffffffffffffffffffffffffffffffffffffffff16905090565b6000610a496003547f000000000000000000000000000000000000000000000000000000000000000073ffffffffffffffffffffffffffffffffffffffff166370a08231306040518263ffffffff1660e01b81526004016109fa9190611433565b602060405180830381865afa158015610a17573d6000803e3d6000fd5b505050506040513d601f19601f82011682018060405250810190610a3b9190611790565b610de290919063ffffffff16565b905090565b610a5661127b565b600260008373ffffffffffffffffffffffffffffffffffffffff1673ffffffffffffffffffffffffffffffffffffffff1681526020019081526020016000206040518060e00160405290816000820160009054906101000a900460ff161515151581526020016000820160019054906101000a900473ffffffffffffffffffffffffffffffffffffffff1673ffffffffffffffffffffffffffffffffffffffff1673ffffffffffffffffffffffffffffffffffffffff168152602001600182015481526020016002820154815260200160038201548152602001600482015481526020016005820154815250509050919050565b600080600260008473ffffffffffffffffffffffffffffffffffffffff1673ffffffffffffffffffffffffffffffffffffffff1681526020019081526020016000209050610c45816040518060e00160405290816000820160009054906101000a900460ff161515151581526020016000820160019054906101000a900473ffffffffffffffffffffffffffffffffffffffff1673ffffffffffffffffffffffffffffffffffffffff1673ffffffffffffffffffffffffffffffffffffffff16815260200160018201548152602001600282015481526020016003820154815260200160048201548152602001600582015481525050610cd0565b915050919050565b610c55610e7e565b600073ffffffffffffffffffffffffffffffffffffffff168173ffffffffffffffffffffffffffffffffffffffff1603610cc4576040517f08c379a0000000000000000000000000000000000000000000000000000000008152600401610cbb90611b09565b60405180910390fd5b610ccd81610f06565b50565b600080610cdb610efc565b9050610cf883606001518460400151610dcc90919063ffffffff16565b8110610d2157610d198360c001518460a00151610de290919063ffffffff16565b915050610dc7565b6000610d3a846040015183610de290919063ffffffff16565b90506000846080015190506000610d5a8284610fca90919063ffffffff16565b90506000610d718383610fe090919063ffffffff16565b90506000610da28860600151610d94848b60a00151610fe090919063ffffffff16565b610fca90919063ffffffff16565b9050610dbb8860c0015182610de290919063ffffffff16565b90508096505050505050505b919050565b60008183610dda9190611b58565b905092915050565b60008183610df09190611b8c565b905092915050565b610e798363a9059cbb60e01b8484604051602401610e17929190611bc0565b604051602081830303815290604052907bffffffffffffffffffffffffffffffffffffffffffffffffffffffff19166020820180517bffffffffffffffffffffffffffffffffffffffffffffffffffffffff8381831617835250505050610ff6565b505050565b610e866110bd565b73ffffffffffffffffffffffffffffffffffffffff16610ea4610970565b73ffffffffffffffffffffffffffffffffffffffff1614610efa576040517f08c379a0000000000000000000000000000000000000000000000000000000008152600401610ef190611c35565b60405180910390fd5b565b6000600454905090565b60008060009054906101000a900473ffffffffffffffffffffffffffffffffffffffff169050816000806101000a81548173ffffffffffffffffffffffffffffffffffffffff021916908373ffffffffffffffffffffffffffffffffffffffff1602179055508173ffffffffffffffffffffffffffffffffffffffff168173ffffffffffffffffffffffffffffffffffffffff167f8be0079c531659141344cd1fd0a4f28419497f9722a3daafe3b4186f6b6457e060405160405180910390a35050565b60008183610fd89190611c84565b905092915050565b60008183610fee9190611cb5565b905092915050565b6000611058826040518060400160405280602081526020017f5361666545524332303a206c6f772d6c6576656c2063616c6c206661696c65648152508573ffffffffffffffffffffffffffffffffffffffff166110c59092919063ffffffff16565b90506000815111156110b857808060200190518101906110789190611d23565b6110b7576040517f08c379a00000000000000000000000000000000000000000000000000000000081526004016110ae90611dc2565b60405180910390fd5b5b505050565b600033905090565b60606110d484846000856110dd565b90509392505050565b606082471015611122576040517f08c379a000000000000000000000000000000000000000000000000000000000815260040161111990611e54565b60405180910390fd5b61112b856111f1565b61116a576040517f08c379a000000000000000000000000000000000000000000000000000000000815260040161116190611ec0565b60405180910390fd5b6000808673ffffffffffffffffffffffffffffffffffffffff1685876040516111939190611f51565b60006040518083038185875af1925050503d80600081146111d0576040519150601f19603f3d011682016040523d82523d6000602084013e6111d5565b606091505b50915091506111e5828286611214565b92505050949350505050565b6000808273ffffffffffffffffffffffffffffffffffffffff163b119050919050565b6060831561122457829050611274565b6000835111156112375782518084602001fd5b816040517f08c379a000000000000000000000000000000000000000000000000000000000815260040161126b9190611fbd565b60405180910390fd5b9392505050565b6040518060e00160405280600015158152602001600073ffffffffffffffffffffffffffffffffffffffff16815260200160008152602001600081526020016000815260200160008152602001600081525090565b600080fd5b600073ffffffffffffffffffffffffffffffffffffffff82169050919050565b6000611300826112d5565b9050919050565b611310816112f5565b811461131b57600080fd5b50565b60008135905061132d81611307565b92915050565b6000819050919050565b61134681611333565b811461135157600080fd5b50565b6000813590506113638161133d565b92915050565b600080604083850312156113805761137f6112d0565b5b600061138e8582860161131e565b925050602061139f85828601611354565b9150509250929050565b600080600080600060a086880312156113c5576113c46112d0565b5b60006113d38882890161131e565b95505060206113e488828901611354565b94505060406113f588828901611354565b935050606061140688828901611354565b925050608061141788828901611354565b9150509295509295909350565b61142d816112f5565b82525050565b60006020820190506114486000830184611424565b92915050565b600060208284031215611464576114636112d0565b5b600061147284828501611354565b91505092915050565b61148481611333565b82525050565b600060208201905061149f600083018461147b565b92915050565b6000602082840312156114bb576114ba6112d0565b5b60006114c98482850161131e565b91505092915050565b60008115159050919050565b6114e7816114d2565b82525050565b6114f6816112f5565b82525050565b61150581611333565b82525050565b60e08201600082015161152160008501826114de565b50602082015161153460208501826114ed565b50604082015161154760408501826114fc565b50606082015161155a60608501826114fc565b50608082015161156d60808501826114fc565b5060a082015161158060a08501826114fc565b5060c082015161159360c08501826114fc565b50505050565b600060e0820190506115ae600083018461150b565b92915050565b600082825260208201905092915050565b7f5265656e7472616e637947756172643a207265656e7472616e742063616c6c00600082015250565b60006115fb601f836115b4565b9150611606826115c5565b602082019050919050565b6000602082019050818103600083015261162a816115ee565b9050919050565b7f546f6b656e56657374696e673a206f6e6c792062656e6566696369617279206160008201527f6e64206f776e65722063616e2072656c656173652076657374656420746f6b6560208201527f6e73000000000000000000000000000000000000000000000000000000000000604082015250565b60006116b36042836115b4565b91506116be82611631565b606082019050919050565b600060208201905081810360008301526116e2816116a6565b9050919050565b7f546f6b656e56657374696e673a2063616e6e6f742072656c6561736520746f6b60008201527f656e732c206e6f7420656e6f7567682076657374656420746f6b656e73000000602082015250565b6000611745603d836115b4565b9150611750826116e9565b604082019050919050565b6000602082019050818103600083015261177481611738565b9050919050565b60008151905061178a8161133d565b92915050565b6000602082840312156117a6576117a56112d0565b5b60006117b48482850161177b565b91505092915050565b7f546f6b656e56657374696e673a2063616e6e6f7420637265617465207665737460008201527f696e67207363686564756c652062656361757365206e6f74207375666669636960208201527f656e7420746f6b656e7300000000000000000000000000000000000000000000604082015250565b600061183f604a836115b4565b915061184a826117bd565b606082019050919050565b6000602082019050818103600083015261186e81611832565b9050919050565b7f546f6b656e56657374696e673a206475726174696f6e206d757374206265203e60008201527f2030000000000000000000000000000000000000000000000000000000000000602082015250565b60006118d16022836115b4565b91506118dc82611875565b604082019050919050565b60006020820190508181036000830152611900816118c4565b9050919050565b7f546f6b656e56657374696e673a20616d6f756e74206d757374206265203e2030600082015250565b600061193d6020836115b4565b915061194882611907565b602082019050919050565b6000602082019050818103600083015261196c81611930565b9050919050565b7f546f6b656e56657374696e673a20736c696365506572696f645365636f6e647360008201527f206d757374206265203e3d203100000000000000000000000000000000000000602082015250565b60006119cf602d836115b4565b91506119da82611973565b604082019050919050565b600060208201905081810360008301526119fe816119c2565b9050919050565b7f546f6b656e56657374696e673a205f7374617274206d757374206265206c617460008201527f6572207468616e206c617465737420626c6f636b000000000000000000000000602082015250565b6000611a616034836115b4565b9150611a6c82611a05565b604082019050919050565b60006020820190508181036000830152611a9081611a54565b9050919050565b7f4f776e61626c653a206e6577206f776e657220697320746865207a65726f206160008201527f6464726573730000000000000000000000000000000000000000000000000000602082015250565b6000611af36026836115b4565b9150611afe82611a97565b604082019050919050565b60006020820190508181036000830152611b2281611ae6565b9050919050565b7f4e487b7100000000000000000000000000000000000000000000000000000000600052601160045260246000fd5b6000611b6382611333565b9150611b6e83611333565b9250828201905080821115611b8657611b85611b29565b5b92915050565b6000611b9782611333565b9150611ba283611333565b9250828203905081811115611bba57611bb9611b29565b5b92915050565b6000604082019050611bd56000830185611424565b611be2602083018461147b565b9392505050565b7f4f776e61626c653a2063616c6c6572206973206e6f7420746865206f776e6572600082015250565b6000611c1f6020836115b4565b9150611c2a82611be9565b602082019050919050565b60006020820190508181036000830152611c4e81611c12565b9050919050565b7f4e487b7100000000000000000000000000000000000000000000000000000000600052601260045260246000fd5b6000611c8f82611333565b9150611c9a83611333565b925082611caa57611ca9611c55565b5b828204905092915050565b6000611cc082611333565b9150611ccb83611333565b9250828202611cd981611333565b91508282048414831517611cf057611cef611b29565b5b5092915050565b611d00816114d2565b8114611d0b57600080fd5b50565b600081519050611d1d81611cf7565b92915050565b600060208284031215611d3957611d386112d0565b5b6000611d4784828501611d0e565b91505092915050565b7f5361666545524332303a204552433230206f7065726174696f6e20646964206e60008201527f6f74207375636365656400000000000000000000000000000000000000000000602082015250565b6000611dac602a836115b4565b9150611db782611d50565b604082019050919050565b60006020820190508181036000830152611ddb81611d9f565b9050919050565b7f416464726573733a20696e73756666696369656e742062616c616e636520666f60008201527f722063616c6c0000000000000000000000000000000000000000000000000000602082015250565b6000611e3e6026836115b4565b9150611e4982611de2565b604082019050919050565b60006020820190508181036000830152611e6d81611e31565b9050919050565b7f416464726573733a2063616c6c20746f206e6f6e2d636f6e7472616374000000600082015250565b6000611eaa601d836115b4565b9150611eb582611e74565b602082019050919050565b60006020820190508181036000830152611ed981611e9d565b9050919050565b600081519050919050565b600081905092915050565b60005b83811015611f14578082015181840152602081019050611ef9565b60008484015250505050565b6000611f2b82611ee0565b611f358185611eeb565b9350611f45818560208601611ef6565b80840191505092915050565b6000611f5d8284611f20565b915081905092915050565b600081519050919050565b6000601f19601f8301169050919050565b6000611f8f82611f68565b611f9981856115b4565b9350611fa9818560208601611ef6565b611fb281611f73565b840191505092915050565b60006020820190508181036000830152611fd78184611f84565b90509291505056fea26469706673582212205fef1bd733ce4bfd858413df610575b2e9a27f19f6d70e592ab6bcf43338962664736f6c63430008110033",
  "linkReferences": {},
  "deployedLinkReferences": {}
}